:020000040800F2
:1000000000C00020D1050008990500089B050008E4
:100010009D0500089F050008A105000800000000DC
:10002000000000000000000000000000A11D00080A
:10003000A305000800000000411E0008A5050008F7
:100040001906000819060008190600081906000814
:100050001906000819060008190600081906000804
:1000600019060008190600081906000819060008F4
:1000700019060008190600081906000819060008E4
:1000800019060008190600081906000819060008D4
:1000900019060008190600081906000819060008C4
:1000A00019060008190600081906000819060008B4
:1000B00019060008190600081906000819060008A4
:1000C0001906000819060008190600081906000894
:1000D00019060008BD0500081906000819060008E1
:1000E0001906000819060008190600081906000874
:1000F0001906000819060008190600081906000864
:100100001906000819060008190600081906000853
:100110001906000819060008190600081906000843
:100120001906000819060008190600081906000833
:1001300000000000000000000000000000000000BF
:1001400000000000000000000000000000000000AF
:10015000000000000000000000000000000000009F
:10016000000000000000000000000000000000008F
:10017000000000000000000000000000000000007F
:10018000000000000000000000000000000000006F
:10019000000000000000000000000000000000005F
:1001A000000000000000000000000000000000004F
:1001B000000000000000000000000000000000003F
:1001C000000000000000000000000000000000002F
:1001D000000000000000000000000000000000001F
:0401E0005FF8E0F1F3
:1001F00010B5054C237833B9044B13B10448AFF361
:1002000000800123237010BD4C040020000000007A
:10021000C836000808B5034B1BB103490348AFF3C8
:10022000008008BD0000000050040020C83600080F
:10023000844641EA000313F0030349D1403A23D333
:100240000B6803604B6843608B688360CB68C36056
:100250000B6903614B6943618B698361CB69C3613E
:100260000B6A03624B6A43628B6A8362CB6AC36226
:100270000B6B03634B6B43638B6B8363CB6BC3630E
:1002800040304031403ADBD230320BD30B68036050
:100290004B6843608B688360CB68C360103010315B
:1002A000103AF3D20C3205D351F8043B40F8043B2A
:1002B000043AF9D2043208D0D2071CBF11F8013B2E
:1002C00000F8013B01D30B8803806046704700BFF4
:1002D000082A13D38B07B1D010F00303AED0C3F1BB
:1002E0000403D21ADB071CBF11F8013B00F8013BE5
:1002F000A4D331F8023B20F8023B9FE7043AD9D35C
:10030000013A11F8013B00F8013BF9D20B78037078
:100310004B7843708B7883706046704710B586B019
:100320000023029303930493059303F1804303F5A1
:1003300004339A6942F020029A619A6902F020021D
:100340000092009A9A6942F004029A619B6903F054
:1003500004030193019B0A4C01224FF48071204653
:1003600000F00CFC4FF48073029301230393049379
:100370000323059302A9204600F0E0FA06B010BD61
:100380000008014008B54FF4FA7001F035FB4FF456
:100390008071024800F0F8FBF5E700BF000801405B
:1003A00008B54FF47A7001F027FB064C204603F0A5
:1003B000EDF84FF47A7382B22146034801F02EF82B
:1003C000EFE700BF000000206C04002072B6FEE7DB
:1003D00008B50A480A4B03604FF4E1334360002339
:1003E0008360C36003610C2242618361C36100F0DA
:1003F000E5FF00B908BDFFF7E9FF00BF6C0400206E
:100400000038014000B591B02822002106A803F071
:100410006BF8002301930293039304930593012245
:1004200006924FF4803307930A9202220D920E93A4
:100430004FF4E0130F9306A800F0C6FB80B90F231A
:10044000019302210291002303934FF480620492EE
:10045000059301A800F0EAFD20B911B05DF804FB96
:10046000FFF7B4FFFFF7B2FF08B500F0FDF8FFF7A4
:10047000C9FFFFF753FFFFF7ABFF01F0FFF9084A91
:100480000021084801F042FA074B1860074A002192
:10049000074801F03BFA074B186001F011FAFEE73C
:1004A000F836000885030008680400201C3700089F
:1004B000A1030008B404002000B583B0114B9A6971
:1004C00042F001029A619A6902F001020092009AD8
:1004D000DA6942F08052DA61DB6903F080530193FC
:1004E000019B00220F216FF0010000F0F3F8064A93
:1004F000536823F0E06343F00073536003B05DF88A
:1005000004FB00BF001002400000014030B587B07E
:100510000023029303930493059302681C4B9A42B1
:1005200001D007B030BD03F558439A6942F48042C8
:100530009A619A6902F480420092009A9A6942F0A4
:1005400004029A619B6903F004030193019B4FF439
:100550000073029302230393032305930D4D02A915
:10056000284600F0EBF94FF48063029300240394D3
:100570000123049302A9284600F0E0F92246052150
:10058000252000F0A7F8252000F0DCF8C9E700BF1F
:100590000038014000080140FEE7FEE7FEE7FEE705
:1005A000FEE7704708B500F071F802F009FD012878
:1005B00000D108BD01F066FCFBE7000008B5024869
:1005C00001F018F808BD00BF6C040020704700005F
:1005D000FFF7FCFF0B480C490C4A002302E0D458FB
:1005E000C4500433C4188C42F9D3094A094C00237F
:1005F00001E013600432A242FBD302F051FFFFF787
:1006000033FF7047000000204C040020943700089E
:100610004C040020081E0020FEE7000010B5044630
:100620000E4B18784FF47A73B3FBF0F30C4A106852
:10063000B0FBF3F000F094F868B90F2C01D9012059
:100640000AE0002221464FF0FF3000F043F8054B4E
:100650001C60002000E0012010BD00BF140000203D
:10066000100000201800002008B5074A136843F066
:1006700010031360032000F01BF80F20FFF7CEFFDC
:10068000FFF71AFF002008BD00200240034A11684E
:10069000034B1B780B441360704700BFB804002065
:1006A00014000020014B1868704700BFB8040020F8
:1006B000074AD36823F4E0631B041B0C000200F418
:1006C000E060034343F0BF6343F40033D3607047FB
:1006D00000ED00E000B5194BDB68C3F30223C3F162
:1006E000070CBCF1040F28BF4FF0040C03F1040EFB
:1006F000BEF1060F18D9033B4FF0FF3E0EFA0CFC7B
:1007000021EA0C0199400EFA03F322EA030319438C
:1007100000280BDB0901C9B200F1604000F561401F
:1007200080F800135DF804FB0023E5E700F00F00FC
:100730000901C9B2024B1954F4E700BF00ED00E013
:1007400014ED00E0002807DB00F01F024009012340
:100750009340024A42F82030704700BF00E100E0B9
:100760000138B0F1807F0BD24FF0E0235861054A89
:10077000F02182F823100020986107221A61704747
:100780000120704700ED00E090F82130DBB2022B31
:1007900006D004238363002380F8203001207047B3
:1007A0000268136823F00E0313600268136823F0D5
:1007B00001031360036CC16B012202FA03F34B6067
:1007C00080F82120002380F8203018467047000070
:1007D00008B590F82130DBB2022B03D004238363E9
:1007E000012008BD0268136823F00E03136002683D
:1007F000136823F00103136003684C4A93424ED9F7
:10080000783A934224D01432934230D01432934237
:100810002FD0143293422FD0143293422FD014325F
:1008200093422FD0143293422FD002F5627293423A
:100830002ED0143293422DD0143293422CD0143245
:10084000934202D04FF4803203E04FF4805200E034
:100850000122374B5A60012380F82130002380F8B1
:100860002030436B002B5ED098470020B9E7102260
:10087000EFE74FF48072ECE74FF48052E9E74FF472
:100880008032E6E74FF48012E3E74FF08072E0E752
:100890000122DEE71022DCE74FF48072D9E7254A17
:1008A000934224D01432934225D01432934224D060
:1008B0001432934224D01432934224D014329342FF
:1008C00024D01432934224D002F56272934223D092
:1008D0001432934222D01432934221D014329342E4
:1008E00002D04FF4803203E04FF4805200E0012246
:1008F000114B5A60AFE71022FAE74FF48072F7E726
:100900004FF48052F4E74FF48032F1E74FF4801255
:10091000EEE74FF08072EBE70122E9E71022E7E70C
:100920004FF48072E4E700205BE700BF80000240E4
:1009300000040240080002400000024070B582B08E
:100940000024A446B0E0874DAA4210D007D9864DB6
:10095000AA420CD005F58035AA4208D013E0A5F5CF
:100960008015AA4203D005F57025AA4207D18A68EE
:10097000002A62D0012A5BD04361082403E0A5F578
:100980008015AA42F3D0BEF1FF0F58D80646BEF13B
:10099000FF0F56D84FEA8C0233680F25954023EAA3
:1009A000050304FA02F2134333604B6813F0805FCF
:1009B00078D06E4B9A6942F001029A619B6903F00C
:1009C00001030193019B4FEA9C02951C684B53F86D
:1009D00025600CF003039D000F23AB4026EA0306BD
:1009E000644B984233D003F58063984200F09880BE
:1009F00003F58063984200F0958003F58063984288
:100A000000F0928003F58063984200F08F8003F538
:100A10008063984219D006231AE0CC68B3E7CC680B
:100A20000434B0E7CC680834ADE7CC680C34AAE7EE
:100A300003610824A7E70024A5E70424A3E7061D13
:100A4000A5E7ACF108029200A6E7052300E0002329
:100A5000AB4033430232464D45F822304B6813F425
:100A6000801F65D0444A936843EA0E0393604B6845
:100A700013F4001F62D0404AD36843EA0E03D360E8
:100A80004B6813F4003F5FD03B4A536843EA0E03C0
:100A900053604B6813F4803F5CD0374A136843EAD5
:100AA0000E0313600CF1010C0A6832FA0CF357D0F4
:100AB000012303FA0CF302EA030E33EA0202F1D136
:100AC0004A68122A3FF63FAF122A3FF65CAF01A5F3
:100AD00055F822F06F0900081B0A0008250A0008D3
:100AE000370A0008870900088709000887090008F5
:100AF0008709000887090008870900088709000896
:100B00008709000887090008870900088709000885
:100B100087090008870900081F0A00082B0A000837
:100B2000012395E7022393E7032391E704238FE74B
:100B3000114A936823EA0E03936098E70E4AD3683C
:100B400023EA0E03D3609BE70B4A536823EA0E03A4
:100B500053609EE7084A136823EA0E031360A1E777
:100B600002B070BD000022100000311000100240E1
:100B70000000014000080140000401400AB1016189
:100B80007047090401617047C36801EA030221EA62
:100B9000030141EA024101617047000082B0084B45
:100BA0001B68084AA2FB03235B0A00FB03F30193C3
:100BB00000BF019B5A1E0192002BF9D102B0704771
:100BC00010000020D34D6210002800F0F18170B5B4
:100BD00082B00446036813F0010F2CD0994B5B6878
:100BE00003F00C03042B1DD0964B5B6803F00C0341
:100BF000082B12D06368B3F5803F41D0002B55D14C
:100C000003F1804303F504331A6822F480321A603A
:100C10001A6822F480221A6037E08A4B5B6813F46A
:100C2000803FE7D0874B1B6813F4003F03D0636815
:100C3000002B00F0BF81236813F0020F75D0814BA9
:100C40005B6813F00C0F5FD07E4B5B6803F00C0306
:100C5000082B54D02369002B00F08A807A4B0122A4
:100C60001A60FFF71FFD0546764B1B6813F0020F55
:100C700075D1FFF717FD401B0228F5D903209EE12F
:100C8000704A136843F480331360636843B3FFF71B
:100C900009FD05466B4B1B6813F4003FCBD1FFF7F2
:100CA00001FD401B6428F5D9032088E1B3F5A02F8E
:100CB00009D0644B1A6822F480321A601A6822F450
:100CC00080221A60E1E703F18043A3F53C331A6800
:100CD00042F480221A601A6842F480321A60D4E723
:100CE000FFF7E0FC0546574B1B6813F4003FA2D00A
:100CF000FFF7D8FC401B6428F5D903205FE1514B76
:100D00005B6813F4803FA5D14E4B1B6813F0020FB4
:100D100003D02369012B40F04F814A4A136823F026
:100D2000F803616943EAC1031360236813F0080FF5
:100D300033D0A369002B5CD0434B0122C3F880243D
:100D4000FFF7B0FC05463F4B5B6A13F0020F21D161
:100D5000FFF7A8FC401B0228F5D903202FE1394AF0
:100D6000136823F0F803616943EAC1031360DCE709
:100D7000354B00221A60FFF795FC0546314B1B6886
:100D800013F0020FD1D0FFF78DFC401B0228F5D9DC
:100D9000032014E10120FFF701FF236813F0040F83
:100DA00000F09680274BDB6913F0805F34D1254B30
:100DB000DA6942F08052DA61DB6903F08053019313
:100DC000019B0125214B1B6813F4807F26D0E3682B
:100DD000012B3DD0002B53D103F1804303F50433A5
:100DE0001A6A22F001021A621A6A22F004021A62D6
:100DF00033E0154B0022C3F88024FFF753FC05466F
:100E0000104B5B6A13F0020FC7D0FFF74BFC401B7F
:100E10000228F5D90320D2E00025D3E70B4A136856
:100E200043F480731360FFF73DFC0646074B1B68D5
:100E300013F4807FCBD1FFF735FC801B6428F5D9F4
:100E40000320BCE00010024000004242007000405D
:100E50005F4A136A43F001031362E36833B3FFF799
:100E600021FC06465A4B1B6A13F0020F2FD1FFF7E5
:100E700019FC801B41F288339842F3D903209EE08D
:100E8000052B09D0524B1A6A22F001021A621A6A23
:100E900022F004021A62E0E74D4B1A6A42F00402A3
:100EA0001A621A6A42F001021A62D6E7FFF7FAFBE9
:100EB0000646474B1B6A13F0020F08D0FFF7F2FB00
:100EC000801B41F288339842F3D9032077E0E5B9DB
:100ED000E369002B72D03E4A526802F00C02082AE5
:100EE00056D0022B17D03B4B00221A66FFF7DAFBD5
:100EF0000446374B1B6813F0007F47D0FFF7D2FB47
:100F0000001B0228F5D9032059E0314AD36923F0A8
:100F10008053D361DCE72F4B00221A66FFF7C2FB38
:100F200005462B4B1B6813F0007F06D0FFF7BAFB7A
:100F3000401B0228F5D9032041E0236AB3F5803F26
:100F40001AD023494B6823F47413226A606A02435F
:100F500013434B601F4B01221A66FFF7A3FB0446A5
:100F60001B4B1B6813F0007F0ED1FFF79BFB001B90
:100F70000228F5D9032022E0154A536823F40033F0
:100F8000A1680B435360DCE7002018E0002016E066
:100F9000012B16D00E4B5B6803F48031226A91421C
:100FA00011D103F47013626A93420ED1002006E05F
:100FB00001207047012002E0012000E0002002B083
:100FC00070BD0120FBE70120F9E70120F7E700BF32
:100FD00000100240000042420F4B5B6803F00C021D
:100FE000082A01D00D487047C3F383420C49885C3E
:100FF00013F4803F0BD0084B5B68C3F34043094AAE
:10100000D35C064A02FB00F0B0FBF3F07047064BDE
:1010100003FB00F0704700BF0010024000127A008E
:10102000583700086837000800093D00002800F024
:10103000A08070B50D460446524B1B6803F00703B1
:101040008B420BD24F4A136823F007030B43136004
:10105000136803F007038B4240F08D80236813F080
:10106000020F17D013F0040F04D0474A536843F41B
:10107000E0635360236813F0080F04D0424A5368BA
:1010800043F460535360404A536823F0F003A1686F
:101090000B435360236813F0010F31D06368012BB9
:1010A00020D0022B25D0384A126812F0020F64D0EB
:1010B00035494A6822F0030213434B60FFF7F2FA06
:1010C0000646314B5B6803F00C036268B3EB820F9A
:1010D00016D0FFF7E7FA801B41F288339842F0D927
:1010E000032045E0284A126812F4003FE0D10120B5
:1010F0003EE0254A126812F0007FD9D1012037E086
:10110000204B1B6803F00703AB420AD91D4A136842
:1011100023F007032B431360136803F00703AB426C
:101120002DD1236813F0040F06D0174A536823F417
:10113000E063E1680B435360236813F0080F07D0A6
:10114000114A536823F46053216943EAC103536091
:10115000FFF742FF0C4B5B68C3F303130B4AD35CEE
:10116000D8400B4B18600B4B1868FFF757FA00205C
:1011700070BD012070470120FAE70120F8E7012047
:10118000F6E700BF00200240001002404037000890
:101190001000002018000020014B1868704700BFA5
:1011A0001000002008B5FFF7F7FF044B5B68C3F39E
:1011B0000223034AD35CD84008BD00BF00100240A0
:1011C0005037000808B5FFF7E7FF044B5B68C3F32F
:1011D000C223034AD35CD84008BD00BF00100240C0
:1011E00050370008026802F10C0353E8003F23F473
:1011F00090730C3242E800310029F3D1026802F109
:10120000140353E8003F23F00103143242E8003195
:101210000029F3D1036B012B05D0202380F8423045
:10122000002303637047026802F10C0353E8003F98
:1012300023F010030C3242E800310029F3D1ECE72F
:1012400090F84130DBB2212B01D002207047836837
:10125000B3F5805F17D0036A5A1C02621A780368DC
:101260005A60C38C9BB2013B9BB2C3844BB90268EA
:10127000D36823F08003D3600268D36843F040034F
:10128000D360002070470369002BE4D1036A1B88F8
:101290000268C3F308035360036A02330362E0E7A2
:1012A00010B504460268136923F44053C1680B4328
:1012B000136183680269134342691A430168CB686A
:1012C00023F4B05323F00C031343CB60026853693B
:1012D00023F4407381690B4353610268134B9A42B4
:1012E00020D0FFF75FFF024602EB820202EB820290
:1012F00063689B00B2FBF3F20D48A0FB0231490981
:10130000642303FB11231B013233A0FB03235B097E
:1013100003F0F00202EB011203F00F032168134403
:101320008B6010BDFFF74EFF0246DDE7003801403D
:101330001F85EB512DE9F84305460F4616469946A1
:10134000DDF820802C68246837EA04030CBF4FF0D6
:10135000010C4FF0000CB4452DD1B8F1FF3FF1D096
:10136000B8F1000F05D0FFF79DF9A0EB090040454B
:10137000E8D92A6802F10C0353E8003F23F4D07344
:101380000C3242E800310029F3D12A6802F114033B
:1013900053E8003F23F00103143242E800310029F2
:1013A000F3D1202385F8413085F84230002385F8B9
:1013B0004030032000E00020BDE8F88360B310B5A2
:1013C000044690F8413013B3242384F84130226856
:1013D000D36823F40053D3602046FFF761FF2268EF
:1013E000136923F4904313612268536923F02A039D
:1013F00053612268D36843F40053D36000206064D3
:10140000202384F8413084F84230606310BD80F8B6
:101410004030FFF77BF8D7E7012070472DE9F04116
:1014200082B01E4690F84130DBB2202B4BD10446EF
:101430000D46904600294AD00AB9012044E0002315
:101440004364212380F84130FFF72CF90746A4F8C4
:101450002480A4F82680A368B3F5805F02D04FF003
:1014600000080FE02369FBB14FF000080AE038F8EC
:10147000023B2268C3F308035360E28C92B2013A44
:1014800092B2E284E38C9BB28BB100963B46002281
:1014900080212046FFF74EFFD8B9002DE7D015F880
:1014A000012B23685A60E8E7A8460025EAE7009682
:1014B0003B46002240212046FFF73CFF58B920233D
:1014C00084F8413000E0022002B0BDE8F081012044
:1014D000FAE70320F8E70320F6E7704708B501684C
:1014E000CA6822F04002CA60202280F84120FFF73B
:1014F000F4FF002008BD7047704708B5406A00231C
:10150000C385C384FFF7F8FF08BD704790F84230E9
:10151000DBB2222B69D18368B3F5805F4FD0826A3A
:10152000B3F5805F04D0002B56D10369002B53D153
:1015300003685B681370836A01338362C38D9BB257
:10154000013B9BB2C385002B51D100B583B002682B
:10155000D36823F02003D3600268D36823F4807338
:10156000D3600268536923F001035361202380F89C
:10157000423000234363036B012B33D10023036309
:10158000026802F10C0353E8003F23F010030C3211
:1015900042E800310029F3D103681A6812F0100FF5
:1015A00006D0002201921A6801925B680193019BA8
:1015B000818DFFF7AAFF002003B05DF804FB0269EC
:1015C000002AACD1826A03685B68C3F30803138006
:1015D000836A02338362B1E703685B6803F07F03C9
:1015E0001370A8E7FFF787FFE5E7022070470020A8
:1015F0007047000030B583B0044602681368D068B5
:10160000516913F00F0505D113F0200F02D010F02F
:10161000200F19D12DB111F0010119D110F4907FD3
:1016200016D1216B01297DD013F0800F03D010F06B
:10163000800F40F0188113F0400F03D010F0400FDE
:1016400040F0158103B030BD2046FFF75FFFF9E79A
:1016500013F0010F06D010F4807F03D0626C42F0CB
:101660000102626413F0040F04D019B1626C42F0FD
:101670000202626413F0020F04D019B1626C42F0EE
:101680000402626413F0080F07D010F0200F00D19D
:1016900019B1626C42F008026264626C002AD1D017
:1016A00013F0200F02D010F0200F29D123685B69BE
:1016B00003F04003626C12F0080F00D163B32046C0
:1016C000FFF790FD23685B6913F0400F20D022687C
:1016D00002F1140353E8003F23F04003143242E8C0
:1016E00000310029F3D1E36B73B1634A5A63E06BB5
:1016F000FFF76EF80028A5D0E06B436B9847A1E791
:101700002046FFF703FFD1E72046FFF7F5FE99E7F4
:101710002046FFF7F1FE95E72046FFF7EDFE002398
:1017200063648FE713F0100F3FF47EAF10F0100FDB
:101730003FF47AAF00230193136801935368019338
:10174000019B536913F0400F51D0E26B13685B6843
:101750009BB2002B3FF476AFA18D99427FF672AF1A
:10176000E3859369202B37D0226802F10C0353E8FC
:10177000003F23F480730C3242E800310029F3D19A
:10178000226802F1140353E8003F23F001031432EE
:1017900042E800310029F3D1226802F1140353E832
:1017A000003F23F04003143242E800310029F3D116
:1017B000202384F8423000232363226802F10C03C3
:1017C00053E8003F23F010030C3242E800310029B7
:1017D000F3D1E06BFEF7D8FF02236363A18DE38DA5
:1017E0009BB2C91A89B22046FFF78FFE2AE7A18D66
:1017F000E38D9BB2C91A89B2E38D9BB2002B3FF4F3
:1018000021AF00293FF41EAF226802F10C0353E818
:10181000003F23F490730C3242E800300028F3D1EB
:10182000226802F1140353E8003F23F0010314324D
:1018300042E800300028F3D1202384F8423000230E
:101840002363226802F10C0353E8003F23F01003E6
:101850000C3242E800300028F3D1022363632046B3
:10186000FFF753FEEEE62046FFF7EAFCEAE62046E5
:10187000FFF734FEE6E600BFFB140008EFF3058334
:1018800093B9EFF3108393B90C4B1868022804D076
:1018900080B90A4B01221A607047EFF31183002BC5
:1018A000F6D06FF0050070476FF0050070476FF0DD
:1018B000050070474FF0FF30704700BF1807002049
:1018C00008B5EFF30583B3B9EFF31083B3B90E4B4B
:1018D0001B68022B08D0012B13D10B4B02221A607C
:1018E00001F0CCF8002008BDEFF31182002AF2D0FD
:1018F0006FF00500F7E76FF00500F4E76FF0050003
:10190000F1E74FF0FF30EEE718070020F0B587B0A1
:1019100000240494EFF30584002C43D1EFF31083EB
:10192000002B3FD1334B1B68022B16D0002839D037
:1019300000238DF8173062B3156895B1936903B928
:1019400018235C1E372C51D8546814F0010F4FD166
:1019500056694EB14FEA960C08E0EFF311830BBBCA
:10196000E4E70DF11705E9E74FF0800C94682CB11E
:10197000D7685B2F02D9176907B1B6B914B14FF018
:10198000FF340CE0D46894B914699CB14FF0FF3473
:1019900005E0002418234FF0800C0DF11705012CF1
:1019A0000AD0ACB1049807B0F0BD0124F7E74FF0BE
:1019B000FF34F4E70024F2E714699268029201947C
:1019C00000930B466246294600F0EAFF0490E9E7DF
:1019D00004AA019200930B461FFA8CF2294601F0EB
:1019E00019F80128DED000230493DBE70020DAE7B2
:1019F0000020D8E71807002008B5EFF30583A3B946
:101A0000EFF31083A3B90C4B1B68022B02D040B933
:101A1000002008BDEFF31183002BF8D06FF0050014
:101A2000F7E701F08FF90020F3E76FF00500F0E72A
:101A30006FF00500EDE700BF18070020034B0360BF
:101A4000034B0B6080231360704700BFBC0600206F
:101A5000BC040020034B0360034B0B604FF4807306
:101A6000136070471C0B00201C07002000F10803C6
:101A700043604FF0FF328260C36003610023036064
:101A8000704700230361704743684B609A688A601F
:101A9000516099600861036801330360704730B496
:101AA0000D68B5F1FF3F11D000F108031C465B68DB
:101AB0001A68AA42FAD963684B6099608C606160C9
:101AC000086103680133036030BC70470469F2E7C2
:101AD0000369416882688A60416851605A6882423D
:101AE00006D0002202611A68013A1A60186870472D
:101AF00082685A60F5E70000124A12F0070F1ED004
:101B0000D11D21F00701C1F5406313440A460E4878
:101B10000260002141601344083B23F007030B4897
:101B2000036059601960991A51601360084B19607D
:101B3000084B1960084B4FF000421A6070474FF491
:101B40004063E4E77C0B002088170020780B00201E
:101B500084170020801700207C170020154B1A46A0
:101B60001B688342FBD3516802EB010C844509D00A
:101B7000416800EB010C634509D00360904218D026
:101B8000106070474068014451601046F0E710B49F
:101B9000094C2468A3420AD05B6819444160136869
:101BA0001B680360904200D0106010BC7047046056
:101BB000F8E7704788170020780B002070B50546BD
:101BC00000F0AAFF344B1B68A3B1344B1B681D42C5
:101BD0004AD135B1083515F0070F02D025F00705B9
:101BE0000835002D42D02E4B1B68AB424DD32D4AF9
:101BF000146804E0FFF780FFE7E722461C466368AD
:101C0000AB4202D22368002BF7D1234B1B68A342BF
:101C10003DD0166808362368136063685B1B102B81
:101C200010D9601910F0070F08D04FF0500383F35C
:101C30001188BFF36F8FBFF34F8FFEE7436065607E
:101C4000FFF78CFF626816490B689B1A0B601649F8
:101C500009688B4201D214490B60104B1B68134377
:101C600063600023236002E0002600E0002600F00D
:101C7000EDFF16F0070F0CD04FF0500383F31188DF
:101C8000BFF36F8FBFF34F8FFEE70026EFE700260D
:101C9000EDE7304670BD00BF780B00207C170020B8
:101CA00080170020881700208417002080B338B5E3
:101CB0000446A0F1080550F8043C164A1268134285
:101CC00008D14FF0500383F31188BFF36F8FBFF338
:101CD0004F8FFEE750F8081C41B14FF0500383F3DB
:101CE0001188BFF36F8FBFF34F8FFEE723EA020324
:101CF00040F8043C00F010FF54F8041C064A136836
:101D00000B4413602846FFF729FF00F09FFF38BD02
:101D1000704700BF7C1700208017002082B000238E
:101D200001930D4B1B68B3F1FF3F08D04FF05003F8
:101D300083F31188BFF36F8FBFF34F8FFEE74FF030
:101D4000500383F31188BFF36F8FBFF34F8F019B55
:101D5000002BFCD002B070471C0000200648006831
:101D6000006880F3088862B661B6BFF34F8FBFF397
:101D70006F8F00DF00BF000008ED00E04FF08073C0
:101D800040F8043C21F0010140F8081C034B40F8E6
:101D90000C3C40F8202C4038704700BF1D1D000847
:101DA000074B19680868B0E8F00F80F30988BFF3A3
:101DB0006F8F4FF0000080F311884EF00D0E7047CA
:101DC000D81700204FF0500383F31188BFF36F8FB3
:101DD000BFF34F8F0B4A136801331360012B00D000
:101DE00070474FF0E023D3F8043D13F0FF0FF7D016
:101DF0004FF0500383F31188BFF36F8FBFF34F8F02
:101E0000FEE700BF1C000020094B1B6843B94FF0E0
:101E1000500383F31188BFF36F8FBFF34F8FFEE73B
:101E2000013B034A13600BB983F31188704700BF6D
:101E30001C00002000000000000000000000000066
:101E4000EFF30980BFF36F8F0D4B1A6820E9F00F95
:101E500010602DE908404FF0500080F3118800F029
:101E600097FF4FF0000080F31188BDE80840196823
:101E70000868B0E8F00F80F30988BFF36F8F7047F0
:101E8000D817002008B54FF0500383F31188BFF333
:101E90006F8FBFF34F8F00F04DFE28B14FF0E0235E
:101EA0004FF08052C3F8042D002383F3118808BD3E
:101EB0004FF0E022002313619361054B1B68054935
:101EC000A1FB03139B09013B536107231361704777
:101ED00010000020D34D621010B582B02A4B1A7842
:101EE000D2B20192FF221A701B78DBB28DF8033058
:101EF0009DF8033003F05003244A1370244B07224B
:101F00001A6009E0224A1368013B13609DF8033010
:101F10005B00DBB28DF803309DF8033013F0800FC7
:101F2000F0D11B4B1B68032B08D04FF0500383F3F9
:101F30001188BFF36F8FBFF34F8FFEE71B02144A68
:101F4000136003F4E0631360019BDBB20E4A13706D
:101F50004FF0E023D3F8202D42F47002C3F8202D77
:101F6000D3F8202D42F07042C3F8202DFFF7A0FFD8
:101F70000024084B1C60FFF7F1FE00F009FFFFF79B
:101F8000CDFE204602B010BD00E400E09017002016
:101F9000941700201C000020EFF305830F2B0FD9AE
:101FA000114A9B5CDBB2114A12789A4208D94FF071
:101FB000500383F31188BFF36F8FBFF34F8FFEE79A
:101FC0004FF0E023D3F80C3D03F4E063084A1268B5
:101FD000934208D94FF0500383F31188BFF36F8FFA
:101FE000BFF34F8FFEE77047F0E300E0901700204B
:101FF0009417002010B50446FFF7E4FEA26BE36BD4
:102000009A4204D00024FFF7FFFE204610BD0124B1
:10201000F9E710B50446FFF7D5FEA36B23B90124F9
:10202000FFF7F2FE204610BD0024F9E770B5044624
:102030001546866B026C5AB903681BB10020013645
:10204000A66370BD406800F0CBFF00236360F6E735
:102050006DB98068FEF7ECF8226CA3681344A360A6
:102060006268934219D32368A3602846E7E7C068F3
:10207000FEF7DEF8226C5142E3689B1AE3602268A7
:10208000934202D263680B44E360022D01D000202A
:10209000D5E726B1013E0020D1E72846CFE7002052
:1020A000CDE708B50346026C62B10846D968114411
:1020B000D960D3F804C0614501D31968D960D968E3
:1020C000FEF7B6F808BD38B50546FFF77BFE95F874
:1020D000454064B201E0013C64B2002C0ADD6B6A49
:1020E00043B105F1240000F0D1FE0028F3D000F048
:1020F00061FFF0E7FF2385F84530FFF785FEFFF726
:1021000061FE95F8444064B201E0013C64B2002CE9
:102110000ADD2B6943B105F1100000F0B7FE00287D
:10212000F3D000F047FFF0E7FF2385F84430FFF7D6
:102130006BFE38BD38B5E0B10D460446FFF742FEF0
:102140002368E26B216C01FB023060600020A06319
:10215000A360013A02FB0133E360FF2384F84430BB
:1021600084F84530FDB9236963B9FFF74DFE0120BE
:1021700038BD4FF0500383F31188BFF36F8FBFF367
:102180004F8FFEE704F1100000F080FE0028ECD035
:102190004FF0E0234FF08052C3F8042DBFF34F8F70
:1021A000BFF36F8FE1E704F11000FFF75FFC04F16C
:1021B0002400FFF75BFCD8E738B51D46049C0B46AE
:1021C00049B92460E063236401212046FFF7B2FF90
:1021D00084F84C5038BD2260F4E740B94FF050030A
:1021E00083F31188BFF36F8FBFF34F8FFEE710B5F6
:1021F00084B01C46844653B192B189B94FF0500364
:1022000083F31188BFF36F8FBFF34F8FFEE74FF05B
:10221000500383F31188BFF36F8FBFF34F8FFEE737
:102220006AB150230393039B502B13D04FF05003FC
:1022300083F31188BFF36F8FBFF34F8FFEE7002941
:10224000EFD04FF0500383F31188BFF36F8FBFF3CC
:102250004F8FFEE7012384F8463000949DF8183034
:102260006046FFF7A9FF204604B010BDF0B585B069
:10227000019288B10F461D460446B1B1022D20D10E
:10228000E36B012B1DD04FF0500383F31188BFF394
:102290006F8FBFF34F8FFEE74FF0500383F311882A
:1022A000BFF36F8FBFF34F8FFEE7036C002BE5D0BA
:1022B0004FF0500383F31188BFF36F8FBFF34F8F3D
:1022C000FEE700F07DFE064658B9019B002B48D082
:1022D0004FF0500383F31188BFF36F8FBFF34F8F1D
:1022E000FEE700263DE02A4639462046FFF79EFEDF
:1022F000636A7BB948B14FF0E0234FF08052C3F8D6
:10230000042DBFF34F8FBFF36F8FFFF77DFD0120CB
:1023100005B0F0BD04F1240000F0B8FD0028F4D0B1
:102320004FF0E0234FF08052C3F8042DBFF34F8FDE
:10233000BFF36F8FE9E7FFF767FD0020E8E702A82A
:1023400000F0EAFD012619E0002384F8443021E082
:10235000002384F8453023E02046FFF7B4FE00F068
:1023600075FCFFF72FFDA26BE36B9A42BBD3022DE6
:10237000B9D0019B002BDED0002EE0D0FFF744FD4A
:1023800000F0CAFBFFF71EFD94F8442052B2B2F1F0
:10239000FF3FD9D094F8452052B2B2F1FF3FD7D0D9
:1023A000FFF732FD01A902A800F0C2FDD8B920460E
:1023B000FFF720FE0028CFD0019904F1100000F0B3
:1023C00031FD2046FFF77FFE00F040FC0028C8D119
:1023D0004FF0E0234FF08052C3F8042DBFF34F8F2E
:1023E000BFF36F8FBDE72046FFF76DFE00F02EFCB8
:1023F00000208DE72DE9F84390B10F4616461C46A4
:102400000546B1B1022C20D1EB6B012B1DD04FF052
:10241000500383F31188BFF36F8FBFF34F8FFEE735
:102420004FF0500383F31188BFF36F8FBFF34F8FCB
:10243000FEE7036C002BE5D04FF0500383F31188C7
:10244000BFF36F8FBFF34F8FFEE7FFF7A5FDEFF3ED
:1024500011894FF0500383F31188BFF36F8FBFF3DF
:102460004F8FAA6BEB6B9A4206D3022C04D000204C
:1024700089F31188BDE8F88395F845804FFA88F80C
:10248000224639462846FFF7D1FDB8F1FF3F06D076
:1024900008F101035BB285F845300120E8E76B6A7B
:1024A0000BB90120E4E705F1240000F0EFFC18B1BE
:1024B00026B101203060DBE70120D9E70120D7E712
:1024C000F0B585B0019290B10F460446C1B100F05D
:1024D00077FD064600BB019B002B5ED04FF05003FA
:1024E00083F31188BFF36F8FBFF34F8FFEE74FF079
:1024F000500383F31188BFF36F8FBFF34F8FFEE755
:10250000036C002BE3D04FF0500383F31188BFF32B
:102510006F8FBFF34F8FFEE700263EE0394620461F
:10252000FFF7BFFD013DA563236923B9FFF76CFCED
:10253000012005B0F0BD04F1100000F0A7FC002858
:10254000F4D04FF0E0234FF08052C3F8042DBFF3D6
:102550004F8FBFF36F8FE9E7FFF756FC0020E8E7E6
:1025600002A800F0D9FC012621E0002384F84430C1
:1025700029E0002384F845302BE02046FFF7A3FD37
:1025800000F064FB09E02046FFF79DFD00F05EFBD4
:102590002046FFF73EFD00283FD1FFF713FCA56B57
:1025A000002DBBD1019B002BD6D0002ED8D0FFF739
:1025B0002BFC00F0B1FAFFF705FC94F844305BB255
:1025C000B3F1FF3FD1D094F845305BB2B3F1FF3F98
:1025D000CFD0FFF719FC01A902A800F0A9FC002840
:1025E000D1D12046FFF715FD0028C6D0019904F18E
:1025F000240000F017FC2046FFF765FD00F026FBE5
:102600000028CAD14FF0E0234FF08052C3F8042DC8
:10261000BFF34F8FBFF36F8FBFE7002089E7000044
:102620000023072B0CD8074A52F833200AB1013394
:10263000F7E7044A42F8331002EBC30358607047CF
:10264000704700BF9817002070B504460D46164627
:10265000FFF7B8FB94F844305BB2B3F1FF3F0DD005
:1026600094F845305BB2B3F1FF3F0BD0FFF7CCFBE2
:10267000A36B5BB12046FFF726FD70BD002384F8F5
:102680004430EDE7002384F84530EFE73246294631
:1026900004F1240000F0DEFBECE70000084B1B68AF
:1026A0001B6823B9074B4FF0FF321A607047044B89
:1026B0001B68DB68DB685A68024B1A60704700BF12
:1026C000DC170020881C00202DE9F04780460D46CD
:1026D00017469946089EDDF824A00A9C9200A52181
:1026E000206B00F001FF236B07F18042013A03EBFE
:1026F000820727F007074FF0000CBCF10F0F0BD833
:1027000015F80C2004EB0C0383F8342015F80C307A
:1027100013B10CF1010CF0E7002384F84330372E9D
:1027200000D93726E662E66400252565201DFFF7FF
:10273000A8F904F11800FFF7A4F92461C6F13806DE
:10274000A6616462656584F858504A464146384639
:10275000FFF714FB2060BAF1000F01D0CAF8004067
:10276000BDE8F08738B5002407E004EB840293004D
:102770000E481844FFF77AF90134372CF5D90C4D7F
:102780002846FFF773F90B4C2046FFF76FF90A480C
:10279000FFF76CF90948FFF769F90948FFF766F98F
:1027A000084B1D60084B1C6038BD00BFE4170020BB
:1027B0005C1C0020701C0020901C0020BC1C002011
:1027C000A81C0020DC170020E017002010B50446EC
:1027D000FFF7F8FA224A136801331360214B1B6894
:1027E0005BB1214B1B686BB91E4B1B68DA6AE36A4D
:1027F0009A4207D81B4B1C6004E01A4B1C601368FC
:10280000012B29D0194A1368013313606364E06A0D
:10281000174B1B68984201D9154B186000EB8000DC
:10282000211D144B03EB8000FFF72EF9FFF7ECFAA4
:102830000D4B1B687BB10B4B1B68DA6AE36A9A424B
:1028400009D24FF0E0234FF08052C3F8042DBFF3BC
:102850004F8FBFF36F8F10BDFFF784FFD2E700BF2C
:10286000441C0020D8170020A41C0020541C002069
:10287000581C0020E417002010B5044690F8593089
:1028800063B1012B11D0022B0ED04FF0500383F314
:102890001188BFF36F8FBFF34F8FFEE7006BFFF719
:1028A00005FA2046FFF702FA10BDFFF7FFF9FBE734
:1028B0000F4B1B68D3B110B5FFF784FA0D4BDB68E3
:1028C000DC68201DFFF704F90B4A1368013B136015
:1028D000074A1368013B1360FFF796FA2046FFF79B
:1028E000CBFF034B1B68002BE6D110BD704700BF28
:1028F000481C0020BC1C0020441C002008B5FFF729
:10290000D7FF074B1B68012BF9D94FF0E0234FF09D
:102910008052C3F8042DBFF34F8FBFF36F8FEEE7E4
:10292000E417002070B504460D46174B1E68174B80
:1029300018680430FFF7CCF8B4F1FF3F0DD03444F1
:10294000124B1B685C60A64210D9114B18680F4BE4
:1029500019680431FFF7A3F870BD002DEFD00B4BC1
:10296000196804310B48FFF78FF8F5E70A4B186830
:10297000064B19680431FFF792F8084B1B68A34215
:10298000EAD9064B1C60E7E7D01C0020D8170020CE
:10299000E0170020A81C0020DC170020881C002065
:1029A00030B587B00B9C7CB10C9DB5B15C2504950E
:1029B000049D5C2D1AD04FF0500383F31188BFF3B0
:1029C0006F8FBFF34F8FFEE74FF0500383F31188F3
:1029D000BFF36F8FBFF34F8FFEE74FF0500383F3CA
:1029E0001188BFF36F8FBFF34F8FFEE70C9D2C63F1
:1029F000022485F8594000240394029505AC019403
:102A00000A9C0094FFF760FE0C98FFF7DFFE059824
:102A100007B030BD2DE9F04385B00746884614461F
:102A20001E469000FFF7CAF800B381465C20FFF70E
:102A3000C5F80546B0B1C0F83090E5B1002385F87F
:102A40005930039302950D9B01930C9B00933346E1
:102A5000224641463846FFF737FE2846FFF7B6FEC6
:102A6000012005E04846FFF721F9E6E74FF0FF3087
:102A700005B0BDE8F0834FF0FF30F9E710B588B03E
:102A800000240594069407AA06A905A8FEF7D6FF18
:102A9000059B0293069B019300942346079A1849CD
:102AA0001848FFF77DFF184B186040B100F04CFB51
:102AB000012806D0B0F1FF3F18D008B010BD0020AB
:102AC000F6E74FF0500383F31188BFF36F8FBFF326
:102AD0004F8F0E4B4FF0FF321A600D4B01221A60E0
:102AE0000C4B00221A60FFF7F7F9E6E74FF05003AE
:102AF00083F31188BFF36F8FBFF34F8FFEE700BFE3
:102B00006C370008FD280008841C0020881C002069
:102B1000A41C0020D01C0020024A1368013313605B
:102B2000704700BF501C0020014B1868704700BF61
:102B3000D01C0020F8B53A4B1B68002B64D1394BF0
:102B40001D6801351D60C5B9374B1B681B6843B153
:102B50004FF0500383F31188BFF36F8FBFF34F8F94
:102B6000FEE7314A1168314B186810601960304A2D
:102B7000136801331360FFF791FD2E4B1B68AB42C6
:102B800038D900272C4B1B68DB6A03EB83039A00C0
:102B90002A4B9B58012B3CD901273AE00127224BB5
:102BA0001B681B6843B3204B1B68DB68DC686368E9
:102BB0009D4226D3261D3046FEF78AFFA36A1BB12D
:102BC00004F11800FEF784FFE36A1D4A126893427D
:102BD00001D91B4A136003EB83039A00314617485F
:102BE0001044FEF751FFE26A134B1B68DB6A9A42FE
:102BF000D4D2D4E70027D2E70E4B4FF0FF321A6051
:102C0000C0E70C4A1360BDE70E4A13680133136036
:102C100000270D4B1B6803B101273846F8BD00BFE4
:102C2000501C0020D01C0020DC170020E0170020E2
:102C30008C1C0020881C0020D8170020E4170020DE
:102C4000581C00204C1C0020D41C002038B5354BEB
:102C50001B6843B94FF0500383F31188BFF36F8FA4
:102C6000BFF34F8FFEE7FFF7ADF82E4B1A68013A1E
:102C70001A601B68002B4FD12B4B1B680BB900242B
:102C80004BE00024294B1B681BB3284BDB68DC6836
:102C900004F11800FEF71CFF251D2846FEF718FF5B
:102CA000E06A234B1B68984201D9214B186000EB66
:102CB000800029461F4B03EB8000FEF7E5FEE26A29
:102CC0001D4B1B68DB6A9A42DCD31C4B01221A6045
:102CD000D8E70CB1FFF7E2FC194B1C6884B9174B1D
:102CE0001C68D4B14FF0E0234FF08052C3F8042D9C
:102CF000BFF34F8FBFF36F8F01240EE0013C07D06D
:102D0000FFF718FF0028F9D00C4B01221A60F5E7F5
:102D10000B4B00221A60E2E70024FFF775F820460B
:102D200038BD00BF501C0020441C0020901C002017
:102D3000581C0020E4170020D8170020D41C0020C5
:102D40004C1C002010B5A8B10446104B1B6843B1C1
:102D50004FF0500383F31188BFF36F8FBFF34F8F92
:102D6000FEE7FFF7D9FE00212046FFF7DBFDFFF766
:102D70006DFF48B94FF0E0234FF08052C3F8042DA7
:102D8000BFF34F8FBFF36F8F10BD00BF501C0020EB
:102D90001F4B1B681BB11F4B01221A6070471D4B54
:102DA00000221A601C4B1B6803EB83018A001B493D
:102DB0008A585AB90BB1013BF6E74FF0500383F341
:102DC0001188BFF36F8FBFF34F8FFEE703EB8300D4
:102DD00082000A4450684068506003EB830C4FEA5D
:102DE0008C020832114488420BD003EB830291001D
:102DF0000A4A0A445268D168094A1160064A1360B7
:102E00007047406862469100044A0A445060ECE70B
:102E1000501C0020D41C0020581C0020E417002067
:102E2000D817002058B110B50C46094A116818315E
:102E3000FEF735FE01212046FFF774FD10BD4FF06F
:102E4000500383F31188BFF36F8FBFF34F8FFEE7FB
:102E5000D817002038B570B10D4614460A4A1168DB
:102E60001831FEF711FE0CB14FF0FF352146284610
:102E7000FFF758FD38BD4FF0500383F31188BFF3BF
:102E80006F8FBFF34F8FFEE7D817002038B5C368A8
:102E9000DC6824B304F118052846FEF719FE184B28
:102EA0001B682BBB251D2846FEF712FEE06A154B5A
:102EB0001B68984201D9134B186000EB800029462B
:102EC000114B03EB8000FEF7DFFDE26A0F4B1B683E
:102ED000DB6A9A4211D901200D4B186038BD4FF0C2
:102EE000500383F31188BFF36F8FBFF34F8FFEE75B
:102EF00029460848FEF7C8FDE7E70020EEE700BFD7
:102F0000501C0020581C0020E4170020D817002077
:102F1000D41C0020901C0020034B1B680360034B53
:102F20001B684360704700BF8C1C0020D01C002031
:102F3000D8B170B50C46054601B3FEF743FF1B4BF5
:102F400019686B68C81A2268B2F1FF3F27D0184E83
:102F50003668D5F800C0B44501D08B4224D98242EE
:102F600015D80023236001241AE04FF0500383F3A7
:102F70001188BFF36F8FBFF34F8FFEE74FF0500301
:102F800083F31188BFF36F8FBFF34F8FFEE75B1A98
:102F9000134423602846FFF7BFFF002400E000240D
:102FA000FEF732FF204670BD0124F9E7D01C002057
:102FB0008C1C0020014B01221A607047D41C002099
:102FC000054B1B6833B1054B1B680BB100207047E4
:102FD0000220704701207047A41C0020501C0020D4
:102FE00000283BD038B504461E4B1B68834208D0EE
:102FF0004FF0500383F31188BFF36F8FBFF34F8FF0
:10300000FEE7036D43B94FF0500383F31188BFF31C
:103010006F8FBFF34F8FFEE7013B0365C16AC26C40
:1030200091421DD00BB1002038BD051D2846FEF78A
:103030004FFDE06CE062C0F13803A3610A4B1B68EE
:10304000984201D9084B186000EB80002946074BD5
:1030500003EB8000FEF718FD0120E5E70020704734
:103060000020E1E7D8170020581C0020E4170020BA
:10307000064B1A681368B3FA83F35B09036013B94C
:10308000D368186870470020704700BFD81C002024
:1030900008B54160006191420CD8D21A83699A4206
:1030A00001D3012008BD011D094B1868FEF7F7FC8C
:1030B0000020F7E79A4201D2994206D2011D054B42
:1030C0001868FEF7ECFC0020ECE70120EAE700BFFF
:1030D000DC1C0020D81C002030B583B0FEF772FE47
:1030E000114B1B681BB1FEF78FFE03B030BD0F4DB7
:1030F0002846FEF7BBFC0E4C2046FEF7B7FC0D4BF6
:103100001D600D4B1C60002300930C4B0C4A1021DA
:103110000A20FFF762F8044B18600028E3D0094941
:10312000FFF77EFADFE700BFFC1D0020801D0020B6
:10313000941D0020D81C0020DC1C0020AC1D0020A9
:10314000E01C00207437000810B588B0FFF7C4FFFA
:10315000124B1B68CBB100240594069407AA06A95C
:1031600005A8FEF777FC059B0293069B01930223BB
:1031700000932346079A0A490A48FFF711FC0A4BB5
:10318000186010B1012008B010BD4FF0500383F358
:103190001188BFF36F8FBFF34F8FFEE7FC1D002038
:1031A0007C37000889340008001E0020B8B19C4616
:1031B00003461848006858B300B585B000910192E5
:1031C000029305291CDCFFF7FBFE022810D0002328
:1031D0001A4669460F480068FFF748F815E04FF0B7
:1031E000500383F31188BFF36F8FBFF34F8FFEE758
:1031F0000023069A694607480068FFF737F804E09D
:10320000002362466946FFF7F5F805B05DF804FB58
:1032100000207047FC1D002070B582B01A4B1B685F
:103220001A6852B3DB681E68DC68251D2846FEF765
:103230004FFC636A20469847E369012BEED1A369EE
:1032400033449E4207D26360246129460E4B1868BE
:10325000FEF725FCE2E7002100910B4632462046AE
:10326000FFF7A4FF0028D9D14FF0500383F3118852
:10327000BFF36F8FBFF34F8FFEE7044A1068024918
:103280000860136002B070BDD81C0020DC1C002058
:1032900038B50546FFF748FC0446074B1B688342D8
:1032A00005D800232B60044B1C60204638BDFFF777
:1032B000B3FF01232B60F6E7A81D002070B582B094
:1032C00006460D4614490968C968CC68201DFEF7FA
:1032D000FFFBE169012904D0636A2046984702B0E8
:1032E00070BDA16933462A4631442046FFF7D0FE1F
:1032F0000028F1D0002100910B4632462046FFF70E
:1033000055FF0028E8D14FF0500383F31188BFF335
:103310006F8FBFF34F8FFEE7D81C002070B582B0CF
:1033200006460C46FFF7F8FB01A8FFF7B1FF019B2B
:103330002BBB05460CB9B0421AD22CB1124B1B68FC
:103340001C68B4FA84F464092246711B0F4B186898
:10335000FFF77AF9FFF77AFC98B94FF0E0234FF0C6
:103360008052C3F8042DBFF34F8FBFF36F8F08E077
:10337000FFF76CFC29463046FFF7A0FF01E0FFF79E
:1033800065FC02B070BD00BFDC1C0020FC1D0020ED
:1033900010B588B002E0049B002B0FDA002204A9CC
:1033A000384B1868FFF78CF8002869D0049B002B75
:1033B000F1DA07990698059B9847ECE7069C636944
:1033C00013B1201DFEF784FB03A8FFF761FF049BE8
:1033D000092BE3D801A252F823F000BF05340008FE
:1033E00005340008053400089D3300084B340008FC
:1033F0007134000805340008053400089D330008C6
:103400004B340008059BA169024619442046FFF78A
:103410003FFE0028C2D0636A20469847E369012B2B
:10342000BCD1A269002100910B46059802442046B8
:10343000FFF7BCFE0028B1D14FF0500383F3118891
:10344000BFF36F8FBFF34F8FFEE70599A16131B1D5
:103450000346024601442046FFF71AFE9EE74FF05E
:10346000500383F31188BFF36F8FBFF34F8FFEE7D5
:1034700094F82C30002B91D12046FEF717FC8DE7F5
:1034800008B010BDFC1D002000B583B001A8FFF7F7
:10349000EFFD0199FFF742FFFFF77AFFF6E7000023
:1034A00070B50D4E0D4D761BB61006D0002455F8A4
:1034B000043B01349847A642F9D1094E094D00F06A
:1034C00003F9761BB61006D0002455F8043B0134EE
:1034D0009847A642F9D170BD8837000888370008A0
:1034E0009037000888370008830730B548D0541E4D
:1034F000002A3FD00346CAB201E0013C3AD303F8A8
:10350000012B9D07F9D1032C2DD9CDB245EA052514
:103510000F2C45EA054536D9A4F1100222F00F0C14
:1035200003F1200EE6444FEA121C03F1100242E9B7
:10353000045542E9025510327245F8D10CF10102EE
:1035400014F00C0F03EB021204F00F0C13D0ACF1CB
:10355000040323F003030433134442F8045B93424F
:10356000FBD10CF003042CB1CAB21C4403F8012BAC
:103570009C42FBD130BD64461346002CF4D1F9E7E0
:1035800003461446BFE71A46A446E0E720F00301CD
:1035900010F00300C0F1000051F8043B00F1040CEE
:1035A0004FEACC0C6FF000021CBF22FA0CF213435E
:1035B0004FF0010C4CEA0C2C4CEA0C4CA3EB0C0227
:1035C00022EA030212EACC1204BF51F8043B043091
:1035D000F4D0C2F1000102EA0102B2FA82F2C2F1B1
:1035E0001F0200EBD2007047024B13B1024800F0FB
:1035F00005B87047000000000936000800230146A6
:103600001A46184600F01AB838B5084B084D5B1B2F
:103610009C1007D0043B1D44013C55F804399847E1
:10362000002CF9D1BDE8384000F054B894370008B8
:1036300090370008704700BF704700BF2DE9F04782
:10364000DFF87CA00646DAF8000098460F4691465F
:10365000FFF7F0FF1B4B1B68D3F8484124B36568A4
:103660001F2D26DC5EB96B1C0235DAF800006360A2
:1036700044F82570FFF7E0FF0020BDE8F087012344
:1036800004EB8501C1F88890D4F88821AB401A4337
:10369000022EC4F88821C1F80881E4D1D4F88C2125
:1036A0001343C4F88C31DEE703F5A674C3F8484130
:1036B000D5E7DAF80000FFF7BFFF4FF0FF30DCE797
:1036C0004804002084370008F8B500BFF8BC08BCE7
:1036D0009E467047F8B500BFF8BC08BC9E467047D0
:1036E0006D795461736B303200000000646566616F
:1036F000756C745461736B00EC36000800000000B8
:1037000000000000000000000000000000020000B7
:10371000180000000000000000000000E036000873
:103720000000000000000000000000000000000099
:10373000000200000800000000000000000000007F
:103740000000000000000000010203040607080951
:103750000000000001020304020304050607080933
:103760000A0B0C0D0E0F10100102000049444C45CD
:1037700000000000546D725100000000546D722072
:083780005376630020000020D5
:08378800E935000815020008F4
:04379000F10100083B
:10379400616263646566673132333435360D0A001D
:1037A4000024F4000100000010000000AAAAAAAA44
:1037B400000000000C03002074030020DC03002040
:1037C40000000000000000000000000000000000F5
:1037D40000000000000000000000000000000000E5
:1037E40000000000000000000000000000000000D5
:1037F40000000000000000000000000000000000C5
:1038040000000000000000000000000000000000B4
:1038140000000000000000000000000000000000A4
:103824000000000000000000000000000000000094
:103834000000000000000000000000000000000084
:103844000000000000000000000000000000000074
:103854000000000000000000010000000000000063
:103864000E33CDAB34126DE6ECDE05000B00000028
:103874000000000000000000000000000000000044
:103884000000000000000000000000000000000034
:103894000000000000000000000000000000000024
:1038A4000000000000000000000000000000000014
:0C3BD4000000000000000000041E0020A3
:04000005080005D119
:00000001FF
