:020000040800F2
:1000000000C000200D1400080D1300080F13000895
:100010001113000813130008151300080000000056
:10002000000000000000000000000000912E000809
:100030001713000800000000312F000819130008F2
:1000400055140008551400085514000855140008EC
:1000500055140008551400085514000855140008DC
:1000600055140008551400085514000855140008CC
:1000700055140008551400085514000855140008BC
:1000800055140008551400085514000855140008AC
:100090005514000855140008551400082F130008C3
:1000A000551400085514000855140008551400088C
:1000B000551400085514000855140008551400087C
:1000C000551400085514000855140008551400086C
:1000D000551400083D130008551400085514000875
:1000E000551400085514000855140008551400084C
:1000F000551400085514000855140008551400083C
:10010000551400085514000855140008551400082B
:10011000551400085514000855140008551400081B
:10012000551400085514000855140008551400080B
:1001300000000000000000000000000000000000BF
:1001400000000000000000000000000000000000AF
:10015000000000000000000000000000000000009F
:10016000000000000000000000000000000000008F
:10017000000000000000000000000000000000007F
:10018000000000000000000000000000000000006F
:10019000000000000000000000000000000000005F
:1001A000000000000000000000000000000000004F
:1001B000000000000000000000000000000000003F
:1001C000000000000000000000000000000000002F
:1001D000000000000000000000000000000000001F
:0401E0005FF8E0F1F3
:1001F00010B5054C237833B9044B13B10448AFF361
:1002000000800123237010BDD009002000000000F1
:100210005CAA000808B5034B1BB103490348AFF3C0
:10022000008008BD00000000D40900205CAA00087E
:100230002DE9F047089E0D4604468846002B4DD117
:100240008A42944668D9B2FA82F252B101FA02F3B4
:10025000C2F1200120FA01F10CFA02FC41EA030884
:1002600094404FEA1C41B8FBF1F71FFA8CFE01FBEA
:10027000178807FB0EF0230C43EA084398420AD97B
:100280001CEB030307F1FF3580F01E81984240F21A
:100290001B81023F63441B1AB3FBF1F001FB1033D7
:1002A00000FB0EFEA4B244EA0344A6450AD91CEBA7
:1002B000040400F1FF3380F00981A64540F2068175
:1002C000644402380021A4EB0E0440EA07401EB14A
:1002D0000023D440C6E90043BDE8F0878B4208D92B
:1002E000002E00F0EE800021C6E900050846BDE8BA
:1002F000F087B3FA83F100294AD1AB4202D382429C
:1003000000F2FC80841A65EB030301209846002E5E
:10031000E2D0C6E90048DFE702B9FFDEB2FA82F2B6
:10032000002A40F09180A1EB0C0001214FEA1C470C
:100330001FFA8CFEB0FBF7F307FB1300250C45EA10
:1003400000450EFB03F0A84208D91CEB050503F19C
:10035000FF3802D2A84200F2CE8043462D1AB5FBE8
:10036000F7F007FB10550EFB00FEA4B244EA05446B
:10037000A64508D91CEB040400F1FF3502D2A645BE
:1003800000F2B6802846A4EB0E0440EA03409EE744
:10039000C1F120078B4022FA07FC4CEA030C25FA36
:1003A00007FA4FEA1C49BAFBF9F820FA07F309FBF0
:1003B00018AA8D401FFA8CFE1D4300FA01F308FBBA
:1003C0000EF02C0C44EA0A44A04202FA01F20BD9C6
:1003D0001CEB040408F1FF3A80F08880A04240F250
:1003E0008580A8F102086444241AB4FBF9F009FBE3
:1003F000104400FB0EFEADB245EA0444A64508D900
:100400001CEB040400F1FF356CD2A6456AD9023812
:10041000644440EA0840A0FB0295A4EB0E04AC4201
:10042000C846AE4656D353D0002E69D0B3EB08026F
:1004300064EB0E0422FA01F304FA07F71F43CC40E1
:10044000C6E90074002147E70CFA02FCC2F1200162
:1004500025FA01F34FEA1C4720FA01F195400D43BC
:10046000B3FBF7F107FB11331FFA8CFE280C40EAAF
:10047000034001FB0EF3834204FA02F408D91CEB9B
:10048000000001F1FF382FD283422DD90239604498
:10049000C01AB0FBF7F307FB1300ADB245EA004505
:1004A00003FB0EF0A84208D91CEB050503F1FF3849
:1004B00016D2A84214D9023B6544281A43EA0141E6
:1004C00038E73146304607E72F46E4E61846F9E6B6
:1004D0004B45A9D2B9EB020865EB0C0E0138A3E736
:1004E0004346EAE7284694E74146D1E7D0467BE712
:1004F0006444023847E7023B65442FE7084606E7B5
:100500003146E9E6704700BF844641EA000313F034
:10051000030349D1403A23D30B6803604B6843601F
:100520008B688360CB68C3600B6903614B6943616F
:100530008B698361CB69C3610B6A03624B6A436257
:100540008B6A8362CB6AC3620B6B03634B6B43633F
:100550008B6B8363CB6BC36340304031403ADBD25B
:1005600030320BD30B6803604B6843608B68836049
:10057000CB68C36010301031103AF3D20C3205D37F
:1005800051F8043B40F8043B043AF9D2043208D055
:10059000D2071CBF11F8013B00F8013B01D30B88C7
:1005A00003806046704700BF082A13D38B07B1D081
:1005B00010F00303AED0C3F10403D21ADB071CBF53
:1005C00011F8013B00F8013BA4D331F8023B20F8BD
:1005D000023B9FE7043AD9D3013A11F8013B00F8F6
:1005E000013BF9D20B7803704B7843708B788370A2
:1005F0006046704781F0004102E000BF83F0004395
:1006000030B54FEA41044FEA430594EA050F08BFAD
:1006100090EA020F1FBF54EA000C55EA020C7FEA71
:10062000645C7FEA655C00F0E2804FEA5454D4EBEE
:100630005555B8BF6D420CDD2C4480EA020281EAB8
:10064000030382EA000083EA010180EA020281EAF0
:100650000303362D88BF30BD11F0004F4FEA013142
:100660004FF4801C4CEA113102D0404261EB410151
:1006700013F0004F4FEA03334CEA133302D05242D7
:1006800063EB430394EA050F00F0A780A4F1010493
:10069000D5F1200E0DDB02FA0EFC22FA05F28018CD
:1006A00041F1000103FA0EF2801843FA05F35941B3
:1006B0000EE0A5F120050EF1200E012A03FA0EFC32
:1006C00028BF4CF0020C43FA05F3C01851EBE3715C
:1006D00001F0004507D54FF0000EDCF1000C7EEB79
:1006E00000006EEB0101B1F5801F1BD3B1F5001FB7
:1006F0000CD349085FEA30004FEA3C0C04F10104D6
:100700004FEA445212F5800F80F09A80BCF1004FFE
:1007100008BF5FEA500C50F1000041EB045141EA80
:10072000050130BD5FEA4C0C404141EB0101013C49
:1007300028BFB1F5801FE9D291F0000F04BF014638
:100740000020B1FA81F308BF2033A3F10B03B3F10A
:1007500020020CDA0C3208DD02F1140CC2F10C029A
:1007600001FA0CF021FA02F10CE002F11402D8BFF8
:10077000C2F1200C01FA02F120FA0CFCDCBF41EAC4
:100780000C019040E41AA2BF01EB0451294330BD93
:100790006FEA04041F3C1CDA0C340EDC04F1140470
:1007A000C4F1200220FA04F001FA02F340EA030047
:1007B00021FA04F345EA030130BDC4F10C04C4F18D
:1007C000200220FA02F001FA04F340EA030029466D
:1007D00030BD21FA04F0294630BD94F0000F83F4B7
:1007E000801306BF81F480110134013D4EE77FEA9A
:1007F000645C18BF7FEA655C29D094EA050F08BFE6
:1008000090EA020F05D054EA000C04BF19461046C6
:1008100030BD91EA030F1EBF0021002030BD5FEA0A
:10082000545C05D14000494128BF41F0004130BD32
:1008300014F580043CBF01F5801130BD01F0004586
:1008400045F0FE4141F470014FF0000030BD7FEAF9
:10085000645C1ABF194610467FEA655C1CBF0B46F4
:10086000024650EA013406BF52EA033591EA030F0B
:1008700041F4002130BD00BF90F0000F04BF002103
:10088000704730B54FF4806404F132044FF0000536
:100890004FF0000150E700BF90F0000F04BF0021AF
:1008A000704730B54FF4806404F1320410F0004515
:1008B00048BF40424FF000013EE700BF42004FEA10
:1008C000E2014FEA31014FEA02701FBF12F07F438D
:1008D00093F07F4F81F06051704732F07F4208BF44
:1008E000704793F07F4F04BF41F40021704730B54B
:1008F0004FF4607401F0004521F000411CE700BF97
:1009000050EA010208BF704730B54FF000050AE019
:1009100050EA010208BF704730B511F0004502D51A
:10092000404261EB41014FF4806404F132045FEA1C
:10093000915C3FF4D8AE4FF003025FEADC0C18BFC5
:1009400003325FEADC0C18BF033202EBDC02C2F1B7
:10095000200300FA03FC20FA02F001FA03FE40EA49
:100960000E0021FA02F11444BDE600BF70B54FF04D
:10097000FF0C4CF4E06C1CEA11541DBF1CEA13552B
:1009800094EA0C0F95EA0C0F00F0DEF82C4481EA93
:10099000030621EA4C5123EA4C5350EA013518BFB3
:1009A00052EA033541F4801143F4801338D0A0FBA0
:1009B00002CE4FF00005E1FB02E506F00042E0FB4D
:1009C00003E54FF00006E1FB03569CF0000F18BF53
:1009D0004EF0010EA4F1FF04B6F5007F64F54074FB
:1009E00004D25FEA4E0E6D4146EB060642EAC6218E
:1009F00041EA55514FEAC52040EA5E504FEACE2EFB
:100A0000B4F1FD0C88BFBCF5E06F1ED8BEF1004FFD
:100A100008BF5FEA500E50F1000041EB045170BD79
:100A200006F0004646EA010140EA020081EA0301BD
:100A3000B4EB5C04C2BFD4EB0C0541EA045170BDB9
:100A400041F480114FF0000E013C00F3AB8014F133
:100A5000360FDEBF002001F0004170BDC4F100047C
:100A6000203C35DA0C341BDC04F11404C4F12005FD
:100A700000FA05F320FA04F001FA05F240EA020058
:100A800001F0004221F0004110EBD37021FA04F68E
:100A900042EB06015EEA430E08BF20EAD37070BD48
:100AA000C4F10C04C4F1200500FA04F320FA05F0A7
:100AB00001FA04F240EA020001F0004110EBD370A9
:100AC00041F100015EEA430E08BF20EAD37070BD19
:100AD000C4F1200500FA05F24EEA020E20FA04F3F2
:100AE00001FA05F243EA020321FA04F001F00041A1
:100AF00021FA04F220EA020000EBD3705EEA430E12
:100B000008BF20EAD37070BD94F0000F0FD101F040
:100B10000046400041EB010111F4801F08BF013C79
:100B2000F7D041EA060195F0000F18BF704703F0B7
:100B30000046520043EB030313F4801F08BF013D3E
:100B4000F7D043EA0603704794EA0C0F0CEA1355FA
:100B500018BF95EA0C0F0CD050EA410618BF52EAB4
:100B60004306D1D181EA030101F000414FF00000BA
:100B700070BD50EA410606BF1046194652EA4306C8
:100B800019D094EA0C0F02D150EA013613D195EA3C
:100B90000C0F05D152EA03361CBF104619460AD184
:100BA00081EA030101F0004141F0FE4141F470018E
:100BB0004FF0000070BD41F0FE4141F4780170BD7E
:100BC00070B54FF0FF0C4CF4E06C1CEA11541DBFE3
:100BD0001CEA135594EA0C0F95EA0C0F00F0A7F8E5
:100BE000A4EB050481EA030E52EA03354FEA013112
:100BF00000F088804FEA03334FF0805545EA131325
:100C000043EA12634FEA022245EA111545EA1065EC
:100C10004FEA00260EF000419D4208BF964244F183
:100C2000FD0404F5407402D25B084FEA3202B61AA2
:100C300065EB03055B084FEA32024FF480104FF476
:100C4000002CB6EB020E75EB030E22BFB61A7546EA
:100C500040EA0C005B084FEA3202B6EB020E75EB7D
:100C6000030E22BFB61A754640EA5C005B084FEAE5
:100C70003202B6EB020E75EB030E22BFB61A7546B2
:100C800040EA9C005B084FEA3202B6EB020E75EBBD
:100C9000030E22BFB61A754640EADC0055EA060E7E
:100CA00018D04FEA051545EA16754FEA06164FEAC1
:100CB000C30343EA52734FEAC2025FEA1C1CC0D16D
:100CC00011F4801F0BD141EA00014FF000004FF0FA
:100CD000004CB6E711F4801F04BF01430020B4F1BB
:100CE000FD0C88BFBCF5E06F3FF6AFAEB5EB030C73
:100CF00004BFB6EB020C5FEA500C50F1000041EB70
:100D0000045170BD0EF0004E4EEA113114EB5C043C
:100D1000C2BFD4EB0C0541EA045170BD41F480110F
:100D20004FF0000E013C90E645EA060E8DE60CEA17
:100D3000135594EA0C0F08BF95EA0C0F3FF43BAF34
:100D400094EA0C0F0AD150EA01347FF434AF95EAEB
:100D50000C0F7FF425AF104619462CE795EA0C0FCF
:100D600006D152EA03353FF4FDAE1046194622E79C
:100D700050EA410618BF52EA43067FF4C5AE50EA76
:100D800041047FF40DAF52EA43057FF4EBAE12E766
:100D90004FF0FF3C06E000BF4FF0010C02E000BF47
:100DA0004FF0010C4DF804CD4FEA410C7FEA6C5C2A
:100DB0004FEA430C18BF7FEA6C5C1BD001B050EACD
:100DC000410C0CBF52EA430C91EA030F02BF90EAB8
:100DD000020F0020704710F1000F91EA030F58BF77
:100DE000994208BF90422CBFD8176FEAE37040F0D9
:100DF000010070474FEA410C7FEA6C5C02D150EA77
:100E0000013C07D14FEA430C7FEA6C5CD6D152EA31
:100E1000033CD3D05DF8040B704700BF84461046F6
:100E200062468C461946634600E000BF01B5FFF7F5
:100E3000B7FF002848BF10F1000F01BD4DF808EDC5
:100E4000FFF7F4FF0CBF012000205DF808FB00BF96
:100E50004DF808EDFFF7EAFF34BF012000205DF8F0
:100E600008FB00BF4DF808EDFFF7E0FF94BF01203D
:100E700000205DF808FB00BF4DF808EDFFF7CEFF3E
:100E800094BF012000205DF808FB00BF4DF808ED7D
:100E9000FFF7C4FF34BF012000205DF808FB00BF4E
:100EA0004FEA410C7FEA6C5C02D150EA013C0AD166
:100EB0004FEA430C7FEA6C5C02D152EA033C02D158
:100EC0004FF0000070474FF0010070474FEA4102B9
:100ED00012F5001215D211D56FF47873B3EB62528C
:100EE00012D94FEAC12343F0004343EA505311F0B3
:100EF000004F23FA02F018BF404270474FF0000045
:100F0000704750EA013005D111F0004008BF6FF082
:100F1000004070474FF00000704700BF53B94AB916
:100F2000002908BF00281CBF4FF0FF314FF0FF30F1
:100F3000FFF7E8BAADF1080C6DE904CEFFF778F9D8
:100F4000DDF804E0DDE9022304B070472DE9F0414B
:100F500088B0002404940594069407942E4B9A6953
:100F600042F010029A619A6902F010020092009A0F
:100F70009A6942F020029A619A6902F02002019275
:100F8000019A9A6942F004029A619A6902F0040295
:100F90000292029A9A6942F008029A619B6903F0F0
:100FA00008030393039BDFF8748001224FF48071E0
:100FB000404600F001FD1A4D22464FF4807128464C
:100FC00000F0FAFC4FF48077049701260596069608
:100FD0000323079304A9404600F0CEFB049705962F
:100FE00002260696079604A9284600F0C5FB4FF492
:100FF000007304930B4B0593069604A9284600F052
:10100000BBFB22462146172000F082FA172000F091
:10101000B7FA08B0BDE8F0810010024000080140B6
:10102000000C01400000111008B54FF4967001F05B
:10103000EDFC4FF48071024800F0C4FCF5E700BFFE
:101040000008014008B54FF47A7001F0DFFC094B4D
:1010500019684A1C1A60084803F0B2FC074C204685
:1010600003F05AFD4FF47A7382B22146044801F02E
:10107000DFF9E8E7EC09002078AA0008000000206A
:10108000480A002072B6FEE708B50A480A4B03601A
:101090004FF4E133436000238360C36003610C229B
:1010A00042618361C36101F093F900B908BDFFF7A4
:1010B000E9FF00BF480A00200038014008B50A488F
:1010C0000A4B03600A4B436000238360C3604FF404
:1010D0008042026143618361C361036200F08AFC64
:1010E00000B908BDFFF7CEFFF4090020005400400E
:1010F000A086010000B591B02822002106A803F0C7
:10110000B9FC0023019302930393049305930122F6
:1011100006924FF4803307930A9202220D920E93A7
:101120004FF480130F9306A800F058FD88B90F23E1
:10113000019302230293002303934FF480620492ED
:101140000593012101A800F07BFF20B911B05DF8E3
:1011500004FBFFF797FFFFF795FF000008B500F0CD
:10116000A1F9FFF7C7FFFFF7F1FEFFF78DFFFFF7CC
:10117000A5FF01F08DFB0C4A0121084601F068FC37
:101180000A4B18600A4A00210A4801F0C9FB0A4BC1
:1011900018600A4A00210A4801F0C2FB094B186096
:1011A00001F098FBFEE700BFF0AA0008940A0020B7
:1011B000A8AA000829100008F0090020CCAA0008FD
:1011C00045100008900A002000B583B0114B9A69C1
:1011D00042F001029A619A6902F001020092009ABB
:1011E000DA6942F08052DA61DB6903F080530193DF
:1011F000019B00220F216FF0010000F089F9064ADF
:10120000536823F0E06343F00073536003B05DF86C
:1012100004FB00BF001002400000014010B586B082
:10122000002302930393049305930268114B9A429F
:1012300001D006B010BD104CA36943F00803A361B0
:10124000A36903F008030093009BC02302931223B9
:1012500003930323059302A9084800F08DFAE3697C
:1012600043F40013E361E36903F400130193019B6A
:10127000DFE700BF0054004000100240000C0140B6
:1012800030B587B00023029303930493059302685B
:101290001C4B9A4201D007B030BD03F558439A6900
:1012A00042F480429A619A6902F480420092009A64
:1012B0009A6942F004029A619B6903F00403019366
:1012C000019B4FF4007302930223039303230593BE
:1012D0000D4D02A9284600F04FFA4FF480630293A7
:1012E000002403940123049302A9284600F044FA41
:1012F00022460521252000F00BF9252000F040F9B9
:10130000C9E700BF0038014000080140FEE7FEE7E2
:10131000FEE7FEE7FEE7704708B500F0D5F803F0FA
:1013200035F8012800D108BD01F024FEFBE708B51F
:101330004FF4007000F050FB08BD000008B50248F3
:1013400001F062F908BD00BF480A00200120704783
:1013500008B503F065FB162303604FF0FF3008BDAE
:1013600008B54FF0FF31FFF7F3FFFEE770B50C460D
:101370001646002506E0AFF30080214601F8010B78
:1013800001350C46B542F6DB304670BD70B50C46F3
:101390001646002504E014F8010BAFF30080013578
:1013A000B542F8DB304670BD4FF0FF3070474FF468
:1013B00000534B60002070470120704700207047A9
:1013C00010B503460C4A0D490D48006840B10C4861
:1013D00000680344521A934206D8094A136010BDAC
:1013E0000748084C0460F2E703F01AFB0C23036083
:1013F0004FF0FF30F3E700BF00C000200004000002
:10140000980A00203024002070470000FFF7FCFFFE
:101410000B480C490C4A002302E0D458C450043352
:10142000C4188C42F9D3094A094C002301E0136027
:101430000432A242FBD303F0F9FAFFF78FFE7047A4
:1014400000000020D009002054AF0008D00900207F
:1014500030240020FEE7000010B504460E4B18783B
:101460004FF47A73B3FBF0F30C4A1068B0FBF3F05F
:1014700000F094F868B90F2C01D901200AE000228D
:1014800021464FF0FF3000F043F8054B1C60002070
:1014900000E0012010BD00BF14000020100000205B
:1014A0001800002008B5074A136843F010031360C2
:1014B000032000F01BF80F20FFF7CEFFFFF784FE9C
:1014C000002008BD00200240034A1168034B1B782E
:1014D0000B441360704700BF9C0A002014000020DA
:1014E000014B1868704700BF9C0A0020074AD36868
:1014F00023F4E0631B041B0C000200F4E0600343D0
:1015000043F0BF6343F40033D360704700ED00E065
:1015100000B5194BDB68C3F30223C3F1070CBCF120
:10152000040F28BF4FF0040C03F1040EBEF1060FA8
:1015300018D9033B4FF0FF3E0EFA0CFC21EA0C01D8
:1015400099400EFA03F322EA0303194300280BDB48
:101550000901C9B200F1604000F5614080F8001354
:101560005DF804FB0023E5E700F00F000901C9B2B4
:10157000024B1954F4E700BF00ED00E014ED00E069
:10158000002807DB00F01F02400901239340024AB4
:1015900042F82030704700BF00E100E00138B0F1B0
:1015A000807F0BD24FF0E0235861054AF02182F88A
:1015B00023100020986107221A61704701207047AC
:1015C00000ED00E090F82130DBB2022B06D00423BE
:1015D0008363002380F8203001207047026813687D
:1015E00023F00E0313600268136823F001031360F5
:1015F000036CC16B012202FA03F34B6080F82120D7
:10160000002380F8203018467047000008B590F895
:101610002130DBB2022B03D004238363012008BDF9
:101620000268136823F00E0313600268136823F046
:101630000103136003684C4A93424ED9783A9342AF
:1016400024D01432934230D0143293422FD014322B
:1016500093422FD0143293422FD0143293422FD082
:10166000143293422FD002F5627293422ED014327C
:1016700093422DD0143293422CD01432934202D094
:101680004FF4803203E04FF4805200E00122374BE8
:101690005A60012380F82130002380F82030436B0A
:1016A000002B5ED098470020B9E71022EFE74FF4F7
:1016B0008072ECE74FF48052E9E74FF48032E6E7BE
:1016C0004FF48012E3E74FF08072E0E70122DEE79B
:1016D0001022DCE74FF48072D9E7254A934224D0E8
:1016E0001432934225D01432934224D014329342C0
:1016F00024D01432934224D01432934224D0143292
:10170000934224D002F56272934223D01432934262
:1017100022D01432934221D01432934202D04FF49B
:10172000803203E04FF4805200E00122114B5A60F6
:10173000AFE71022FAE74FF48072F7E74FF48052D8
:10174000F4E74FF48032F1E74FF48012EEE74FF008
:101750008072EBE70122E9E71022E7E74FF480729D
:10176000E4E700205BE700BF800002400004024085
:10177000080002400000024070B582B00024A44678
:10178000B0E0874DAA4210D007D9864DAA420CD0AE
:1017900005F58035AA4208D013E0A5F58015AA42C8
:1017A00003D005F57025AA4207D18A68002A62D0C5
:1017B000012A5BD04361082403E0A5F58015AA4205
:1017C000F3D0BEF1FF0F58D80646BEF1FF0F56D832
:1017D0004FEA8C0233680F25954023EA050304FA8B
:1017E00002F2134333604B6813F0805F78D06E4B86
:1017F0009A6942F001029A619B6903F00103019327
:10180000019B4FEA9C02951C684B53F825600CF035
:1018100003039D000F23AB4026EA0306644B984266
:1018200033D003F58063984200F0988003F580631D
:10183000984200F0958003F58063984200F0928012
:1018400003F58063984200F08F8003F5806398422F
:1018500019D006231AE0CC68B3E7CC680434B0E7AB
:10186000CC680834ADE7CC680C34AAE703610824DF
:10187000A7E70024A5E70424A3E7061DA5E7ACF12C
:1018800008029200A6E7052300E00023AB403343A3
:101890000232464D45F822304B6813F4801F65D064
:1018A000444A936843EA0E0393604B6813F4001FA5
:1018B00062D0404AD36843EA0E03D3604B6813F406
:1018C000003F5FD03B4A536843EA0E0353604B68C6
:1018D00013F4803F5CD0374A136843EA0E03136069
:1018E0000CF1010C0A6832FA0CF357D0012303FA09
:1018F0000CF302EA030E33EA0202F1D14A68122A1B
:101900003FF63FAF122A3FF65CAF01A555F822F033
:10191000AB17000857180008611800087318000872
:10192000C3170008C3170008C3170008C31700082F
:10193000C3170008C3170008C3170008C31700081F
:10194000C3170008C3170008C3170008C31700080F
:10195000C31700085B18000867180008012395E703
:10196000022393E7032391E704238FE7114A936847
:1019700023EA0E03936098E70E4AD36823EA0E0326
:10198000D3609BE70B4A536823EA0E0353609EE73C
:10199000084A136823EA0E031360A1E702B070BD82
:1019A0000000221000003110001002400000014031
:1019B00000080140000401400AB1016170470904B8
:1019C00001617047C36801EA030221EA030141EAA9
:1019D000024101617047704708B5054B5B690342DE
:1019E00000D108BD024B5861FFF7F5FFF9E700BFD2
:1019F00000040140002800F0CC8070B5044690F847
:101A00003D30002B77D0242384F83D3022681368C2
:101A100023F0010313602268136843F4004313604A
:101A20002268136823F40043136000F0C5FB62686A
:101A30005A4B9A4264D85A4B98428CBF00230123D8
:101A4000002B40F0A8805749A1FB00318B0C256882
:101A50006A6822F03F0242EA91426A6021680A6A9B
:101A600022F03F0266684D4DAE424FD8013313431A
:101A70000B622168CA6922F44F4222F0FF026668B5
:101A8000464B9E424CD8431E7600B3FBF6F301331F
:101A900040F6FC70034278D0C3F30B031343CB61D1
:101AA00021680B6823F0C003E269206A02431343F4
:101AB0000B6021688B6823F4034323F0FF03226942
:101AC000E068024313438B602168CB6823F0FF0377
:101AD0006269A06902431343CB602268136843F034
:101AE0000103136000202064202384F83D3020632C
:101AF00084F83E0070BD80F83C30FFF78FFB82E732
:101B0000294B98428CBF0023012399E74FF4967527
:101B100005FB03F3254DA5FB03539B090133A6E702
:101B2000A368BBB9451E06EB460CB5FBFCF50135B9
:101B3000C5F30B05B5FA85F56D0945BBC3B9013889
:101B400006EB4603B0FBF3F30133C3F30B0343F49B
:101B50000043A3E7451E06EB860C0CEB8C0CB5FB93
:101B6000FCF50135C5F30B05B5FA85F56D09E4E71C
:101B7000013806EB860303EB8303B0FBF3F3013379
:101B8000C3F30B0343F4404388E7042386E70123B0
:101B900084E7012070470120ACE700BFA086010068
:101BA0007F841E0083DE1B43FF083D00D34D62107F
:101BB00082B0084B1B68084AA2FB03235B0A00FBA8
:101BC00003F3019300BF019B5A1E0192002BF9D130
:101BD00002B0704710000020D34D6210002800F0C2
:101BE000F18170B582B00446036813F0010F2CD068
:101BF000994B5B6803F00C03042B1DD0964B5B687C
:101C000003F00C03082B12D06368B3F5803F41D07A
:101C1000002B55D103F1804303F504331A6822F4F5
:101C200080321A601A6822F480221A6037E08A4BE8
:101C30005B6813F4803FE7D0874B1B6813F4003FC9
:101C400003D06368002B00F0BF81236813F0020FFC
:101C500075D0814B5B6813F00C0F5FD07E4B5B68D7
:101C600003F00C03082B54D02369002B00F08A806A
:101C70007A4B01221A60FFF733FC0546764B1B684E
:101C800013F0020F75D1FFF72BFC401B0228F5D98A
:101C900003209EE1704A136843F480331360636845
:101CA00043B3FFF71DFC05466B4B1B6813F4003F65
:101CB000CBD1FFF715FC401B6428F5D9032088E140
:101CC000B3F5A02F09D0644B1A6822F480321A6051
:101CD0001A6822F480221A60E1E703F18043A3F539
:101CE0003C331A6842F480221A601A6842F4803247
:101CF0001A60D4E7FFF7F4FB0546574B1B6813F453
:101D0000003FA2D0FFF7ECFB401B6428F5D903206D
:101D10005FE1514B5B6813F4803FA5D14E4B1B68CC
:101D200013F0020F03D02369012B40F04F814A4A80
:101D3000136823F0F803616943EAC1031360236861
:101D400013F0080F33D0A369002B5CD0434B012262
:101D5000C3F88024FFF7C4FB05463F4B5B6A13F0D2
:101D6000020F21D1FFF7BCFB401B0228F5D903204D
:101D70002FE1394A136823F0F803616943EAC1038C
:101D80001360DCE7354B00221A60FFF7A9FB05461C
:101D9000314B1B6813F0020FD1D0FFF7A1FB401BA2
:101DA0000228F5D9032014E10120FFF701FF236881
:101DB00013F0040F00F09680274BDB6913F0805F6F
:101DC00034D1254BDA6942F08052DA61DB6903F0E5
:101DD00080530193019B0125214B1B6813F4807FE5
:101DE00026D0E368012B3DD0002B53D103F1804373
:101DF00003F504331A6A22F001021A621A6A22F009
:101E000004021A6233E0154B0022C3F88024FFF766
:101E100067FB0546104B5B6A13F0020FC7D0FFF754
:101E20005FFB401B0228F5D90320D2E00025D3E751
:101E30000B4A136843F480731360FFF751FB0646A7
:101E4000074B1B6813F4807FCBD1FFF749FB801B46
:101E50006428F5D90320BCE0001002400000424293
:101E6000007000405F4A136A43F001031362E368A5
:101E700033B3FFF735FB06465A4B1B6A13F0020FCC
:101E80002FD1FFF72DFB801B41F288339842F3D905
:101E900003209EE0052B09D0524B1A6A22F0010262
:101EA0001A621A6A22F004021A62E0E74D4B1A6ABB
:101EB00042F004021A621A6A42F001021A62D6E77C
:101EC000FFF70EFB0646474B1B6A13F0020F08D0C4
:101ED000FFF706FB801B41F288339842F3D90320B9
:101EE00077E0E5B9E369002B72D03E4A526802F010
:101EF0000C02082A56D0022B17D03B4B00221A6640
:101F0000FFF7EEFA0446374B1B6813F0007F47D00B
:101F1000FFF7E6FA001B0228F5D9032059E0314A01
:101F2000D36923F08053D361DCE72F4B00221A667C
:101F3000FFF7D6FA05462B4B1B6813F0007F06D03F
:101F4000FFF7CEFA401B0228F5D9032041E0236AAF
:101F5000B3F5803F1AD023494B6823F47413226AE7
:101F6000606A024313434B601F4B01221A66FFF75E
:101F7000B7FA04461B4B1B6813F0007F0ED1FFF726
:101F8000AFFA001B0228F5D9032022E0154A536856
:101F900023F40033A1680B435360DCE7002018E012
:101FA000002016E0012B16D00E4B5B6803F4803145
:101FB000226A914211D103F47013626A93420ED1E6
:101FC000002006E001207047012002E0012000E02F
:101FD000002002B070BD0120FBE70120F9E70120DD
:101FE000F7E700BF00100240000042420F4B5B6861
:101FF00003F00C02082A01D00D487047C3F3834256
:102000000C49885C13F4803F0BD0084B5B68C3F32A
:102010004043094AD35C064A02FB00F0B0FBF3F0F0
:102020007047064B03FB00F0704700BF00100240F2
:1020300000127A0018AB000828AB000800093D0028
:10204000002800F0A08070B50D460446524B1B6876
:1020500003F007038B420BD24F4A136823F00703A8
:102060000B431360136803F007038B4240F08D802D
:10207000236813F0020F17D013F0040F04D0474A5F
:10208000536843F4E0635360236813F0080F04D0EF
:10209000424A536843F460535360404A536823F004
:1020A000F003A1680B435360236813F0010F31D094
:1020B0006368012B20D0022B25D0384A126812F019
:1020C000020F64D035494A6822F0030213434B6083
:1020D000FFF706FA0646314B5B6803F00C036268B3
:1020E000B3EB820F16D0FFF7FBF9801B41F2883368
:1020F0009842F0D9032045E0284A126812F4003FC4
:10210000E0D101203EE0254A126812F0007FD9D1CB
:10211000012037E0204B1B6803F00703AB420AD9CC
:102120001D4A136823F007032B431360136803F061
:102130000703AB422DD1236813F0040F06D0174AD2
:10214000536823F4E063E1680B435360236813F0A2
:10215000080F07D0114A536823F46053216943EAFA
:10216000C1035360FFF742FF0C4B5B68C3F30313DB
:102170000B4AD35CD8400B4B18600B4B1868FFF729
:102180006BF9002070BD012070470120FAE70120A3
:10219000F8E70120F6E700BF0020024000100240EF
:1021A00000AB00081000002018000020014B186848
:1021B000704700BF1000002008B5FFF7F7FF044B81
:1021C0005B68C3F30223034AD35CD84008BD00BF59
:1021D0000010024010AB000808B5FFF7E7FF044B02
:1021E0005B68C3F3C223034AD35CD84008BD00BF79
:1021F0000010024010AB0008026802F10C0353E823
:10220000003F23F490730C3242E800310029F3D1EF
:10221000026802F1140353E8003F23F00103143273
:1022200042E800310029F3D1036B012B05D02023B4
:1022300080F84230002303637047026802F10C0308
:1022400053E8003F23F010030C3242E8003100292C
:10225000F3D1ECE790F84130DBB2212B01D0022022
:1022600070478368B3F5805F17D0036A5A1C026217
:102270001A7803685A60C38C9BB2013B9BB2C3843B
:102280004BB90268D36823F08003D3600268D36837
:1022900043F04003D360002070470369002BE4D172
:1022A000036A1B880268C3F308035360036A02339E
:1022B0000362E0E710B504460268136923F4405353
:1022C000C1680B43136183680269134342691A436F
:1022D0000168CB6823F4B05323F00C031343CB60A5
:1022E0000268536923F4407381690B4353610268A8
:1022F000134B9A4220D0FFF75FFF024602EB8202A7
:1023000002EB820263689B00B2FBF3F20D48A0FB74
:1023100002314909642303FB11231B013233A0FB63
:1023200003235B0903F0F00202EB011203F00F0339
:10233000216813448B6010BDFFF74EFF0246DDE7B6
:10234000003801401F85EB512DE9F84305460F4643
:1023500016469946DDF820802C68246837EA040385
:102360000CBF4FF0010C4FF0000CB4452DD1B8F16B
:10237000FF3FF1D0B8F1000F05D0FFF7B1F8A0EBA7
:1023800009004045E8D92A6802F10C0353E8003FF0
:1023900023F4D0730C3242E800310029F3D12A68CB
:1023A00002F1140353E8003F23F00103143242E822
:1023B00000310029F3D1202385F8413085F84230DF
:1023C000002385F84030032000E00020BDE8F883BA
:1023D00060B310B5044690F8413013B3242384F859
:1023E00041302268D36823F40053D3602046FFF7BE
:1023F00061FF2268136923F49043136122685369D3
:1024000023F02A0353612268D36843F40053D36056
:1024100000206064202384F8413084F842306063F7
:1024200010BD80F84030FEF72BFFD7E70120704742
:102430002DE9F04182B01E4690F84130DBB2202BEE
:102440004BD104460D46904600294AD00AB90120D6
:1024500044E000234364212380F84130FFF740F833
:102460000746A4F82480A4F82680A368B3F5805F0B
:1024700002D04FF000080FE02369FBB14FF00008D5
:102480000AE038F8023B2268C3F308035360E28C89
:1024900092B2013A92B2E284E38C9BB28BB1009685
:1024A0003B46002280212046FFF74EFFD8B9002D81
:1024B000E7D015F8012B23685A60E8E7A846002505
:1024C000EAE700963B46002240212046FFF73CFF0A
:1024D00058B9202384F8413000E0022002B0BDE862
:1024E000F0810120FAE70320F8E70320F6E77047C0
:1024F00008B50168CA6822F04002CA60202280F84C
:102500004120FFF7F4FF002008BD7047704708B571
:10251000406A0023C385C384FFF7F8FF08BD7047F6
:1025200090F84230DBB2222B69D18368B3F5805F2B
:102530004FD0826AB3F5805F04D0002B56D1036977
:10254000002B53D103685B681370836A0133836285
:10255000C38D9BB2013B9BB2C385002B51D100B50B
:1025600083B00268D36823F02003D3600268D36885
:1025700023F48073D3600268536923F0010353612D
:10258000202380F8423000234363036B012B33D1B7
:1025900000230363026802F10C0353E8003F23F0B9
:1025A00010030C3242E800310029F3D103681A68A5
:1025B00012F0100F06D0002201921A6801925B6897
:1025C0000193019B818DFFF7AAFF002003B05DF806
:1025D00004FB0269002AACD1826A03685B68C3F31A
:1025E00008031380836A02338362B1E703685B6880
:1025F00003F07F031370A8E7FFF787FFE5E70220EA
:10260000704700207047000030B583B00446026870
:102610001368D068516913F00F0505D113F0200F2E
:1026200002D010F0200F19D12DB111F0010119D1F4
:1026300010F4907F16D1216B01297DD013F0800F0B
:1026400003D010F0800F40F0188113F0400F03D03A
:1026500010F0400F40F0158103B030BD2046FFF769
:102660005FFFF9E713F0010F06D010F4807F03D06D
:10267000626C42F00102626413F0040F04D019B1DD
:10268000626C42F00202626413F0020F04D019B1CE
:10269000626C42F00402626413F0080F07D010F07D
:1026A000200F00D119B1626C42F008026264626CC2
:1026B000002AD1D013F0200F02D010F0200F29D122
:1026C00023685B6903F04003626C12F0080F00D1CD
:1026D00063B32046FFF790FD23685B6913F0400F5A
:1026E00020D0226802F1140353E8003F23F0400396
:1026F000143242E800310029F3D1E36B73B1634A2D
:102700005A63E06BFEF782FF0028A5D0E06B436BB5
:102710009847A1E72046FFF703FFD1E72046FFF7E0
:10272000F5FE99E72046FFF7F1FE95E72046FFF713
:10273000EDFE002363648FE713F0100F3FF47EAFCC
:1027400010F0100F3FF47AAF002301931368019348
:1027500053680193019B536913F0400F51D0E26B12
:1027600013685B689BB2002B3FF476AFA18D994252
:102770007FF672AFE3859369202B37D0226802F190
:102780000C0353E8003F23F480730C3242E800311D
:102790000029F3D1226802F1140353E8003F23F02B
:1027A0000103143242E800310029F3D1226802F11A
:1027B000140353E8003F23F04003143242E8003191
:1027C0000029F3D1202384F84230002323632268B8
:1027D00002F10C0353E8003F23F010030C3242E8EF
:1027E00000310029F3D1E06BFEF7ECFE02236363B6
:1027F000A18DE38D9BB2C91A89B22046FFF78FFEE7
:102800002AE7A18DE38D9BB2C91A89B2E38D9BB2F1
:10281000002B3FF421AF00293FF41EAF226802F1E4
:102820000C0353E8003F23F490730C3242E800306D
:102830000028F3D1226802F1140353E8003F23F08B
:102840000103143242E800300028F3D1202384F839
:10285000423000232363226802F10C0353E8003F57
:1028600023F010030C3242E800300028F3D1022399
:1028700063632046FFF753FEEEE62046FFF7EAFCCF
:10288000EAE62046FFF734FEE6E600BF0F25000823
:10289000EFF3058393B9EFF3108393B90C4B1868EA
:1028A000022804D080B90A4B01221A607047EFF366
:1028B0001183002BF6D06FF0050070476FF0050014
:1028C00070476FF0050070474FF0FF30704700BF52
:1028D000FC0C002008B5EFF30583B3B9EFF31083C8
:1028E000B3B90E4B1B68022B08D0012B13D10B4B35
:1028F00002221A6001F0A8FA002008BDEFF311824D
:10290000002AF2D06FF00500F7E76FF00500F4E75A
:102910006FF00500F1E74FF0FF30EEE7FC0C002010
:10292000F0B587B000240494EFF30584002C43D164
:10293000EFF31083002B3FD1334B1B68022B16D0D3
:10294000002839D000238DF8173062B3156895B18F
:10295000936903B918235C1E372C51D8546814F0BE
:10296000010F4FD156694EB14FEA960C08E0EFF3D4
:1029700011830BBBE4E70DF11705E9E74FF0800C7D
:1029800094682CB1D7685B2F02D9176907B1B6B923
:1029900014B14FF0FF340CE0D46894B914699CB1C1
:1029A0004FF0FF3405E0002418234FF0800C0DF1A8
:1029B0001705012C0AD0ACB1049807B0F0BD012472
:1029C000F7E74FF0FF34F4E70024F2E71469926868
:1029D0000292019400930B466246294601F0C6F923
:1029E0000490E9E704AA019200930B461FFA8CF2C7
:1029F000294601F0F5F90128DED000230493DBE736
:102A00000020DAE70020D8E7FC0C002008B5EFF33F
:102A10000583A3B9EFF31083A3B90C4B1B68022BFA
:102A200002D040B9002008BDEFF31183002BF8D08D
:102A30006FF00500F7E701F06BFB0020F3E76FF0A4
:102A40000500F0E76FF00500EDE700BFFC0C00208B
:102A500070B582B0EFF30583002B57D10E461546B3
:102A6000EFF31083002B55D12E4B1B68022B0ED099
:102A7000002851D0B04251D37DB1AC6814B1EB689D
:102A80004F2B1AD8002C4BD1EB683BB13FE0EFF352
:102A90001183002BECD0002439E0002301280ED054
:102AA00073BB314600F0ACFC044684B305B12D681D
:102AB0002946204600F06EFF29E00123EEE7B3B976
:102AC00003220021012000F051FC0446002CECD030
:102AD000002EEAD000231A461946204600F0AEFC2C
:102AE0000128E2D0204600F07FFF00240FE0AB6811
:102AF000032200920022114600F0EFFB0446E5E7B6
:102B0000AA68314600F059FC0446CEE7002420466E
:102B100002B070BD0024FAE70024F8E70024F6E7CD
:102B20000024F4E7FC0C0020034B0360034B0B6014
:102B300080231360704700BFA00C0020A00A002073
:102B4000034B0360034B0B604FF4807313607047BB
:102B500000110020000D002000F1080343604FF039
:102B6000FF328260C360036100230360704700236B
:102B70000361704743684B609A688A60516099604E
:102B80000861036801330360704730B40D68B5F124
:102B9000FF3F11D000F108031C465B681A68AA4287
:102BA000FAD963684B6099608C6061600861036862
:102BB0000133036030BC70470469F2E70369416880
:102BC00082688A60416851605A68824206D0002259
:102BD00002611A68013A1A601868704782685A6080
:102BE000F5E70000124A12F0070F1ED0D11D21F0A8
:102BF0000701C1F5406313440A460E4802600021F4
:102C000041601344083B23F007030B4803605960FD
:102C10001960991A51601360084B1960084B1960CC
:102C2000084B4FF000421A6070474FF44063E4E7EE
:102C3000601100206C1D00205C110020681D002028
:102C4000641D0020601D0020154B1A461B6883423E
:102C5000FBD3516802EB010C844509D0416800EBBD
:102C6000010C634509D00360904218D01060704792
:102C70004068014451601046F0E710B4094C2468E4
:102C8000A3420AD05B681944416013681B68036063
:102C9000904200D0106010BC70470460F8E77047A5
:102CA0006C1D00205C11002070B5054601F01AF97A
:102CB000344B1B68A3B1344B1B681D424AD135B15C
:102CC000083515F0070F02D025F007050835002D4F
:102CD00042D02E4B1B68AB424DD32D4A146804E002
:102CE000FFF780FFE7E722461C466368AB4202D24B
:102CF0002368002BF7D1234B1B68A3423DD01668F5
:102D000008362368136063685B1B102B10D96019A9
:102D100010F0070F08D04FF0500383F31188BFF372
:102D20006F8FBFF34F8FFEE743606560FFF78CFF47
:102D3000626816490B689B1A0B60164909688B423A
:102D400001D214490B60104B1B68134363600023CE
:102D5000236002E0002600E0002601F05DF916F095
:102D6000070F0CD04FF0500383F31188BFF36F8F20
:102D7000BFF34F8FFEE70026EFE70026EDE7304672
:102D800070BD00BF5C110020601D0020641D00208C
:102D90006C1D0020681D002080B338B50446A0F1EA
:102DA000080550F8043C164A1268134208D14FF047
:102DB000500383F31188BFF36F8FBFF34F8FFEE78C
:102DC00050F8081C41B14FF0500383F31188BFF352
:102DD0006F8FBFF34F8FFEE723EA020340F8043CF6
:102DE00001F080F854F8041C064A13680B44136081
:102DF0002846FFF729FF01F00FF938BD704700BFE3
:102E0000601D0020641D002082B0002301930D4B43
:102E10001B68B3F1FF3F08D04FF0500383F31188D4
:102E2000BFF36F8FBFF34F8FFEE74FF0500383F375
:102E30001188BFF36F8FBFF34F8F019B002BFCD026
:102E400002B070471C00002006480068006880F34C
:102E5000088862B661B6BFF34F8FBFF36F8F00DF94
:102E600000BF000008ED00E04FF0807340F8043C24
:102E700021F0010140F8081C034B40F80C3C40F8DD
:102E8000202C4038704700BF092E000800000000C9
:102E9000074B19680868B0E8F00F80F30988BFF3A2
:102EA0006F8F4FF0000080F311884EF00D0E7047C9
:102EB000BC1D00204FF0500383F31188BFF36F8FC8
:102EC000BFF34F8F0B4A136801331360012B00D0FF
:102ED00070474FF0E023D3F8043D13F0FF0FF7D015
:102EE0004FF0500383F31188BFF36F8FBFF34F8F01
:102EF000FEE700BF1C000020094B1B6843B94FF0E0
:102F0000500383F31188BFF36F8FBFF34F8FFEE73A
:102F1000013B034A13600BB983F31188704700BF6C
:102F20001C00002000000000000000000000000065
:102F3000EFF30980BFF36F8F0D4B1A6820E9F00F94
:102F400010602DE908404FF0500080F3118801F027
:102F500005F94FF0000080F31188BDE808401968BA
:102F60000868B0E8F00F80F30988BFF36F8F7047EF
:102F7000BC1D002008B54FF0500383F31188BFF348
:102F80006F8FBFF34F8F00F0BBFF28B14FF0E023EE
:102F90004FF08052C3F8042D002383F3118808BD3D
:102FA0004FF0E022002313619361054B1B68054934
:102FB000A1FB03139B09013B536107231361704776
:102FC00010000020D34D621010B582B02A4B1A7841
:102FD000D2B20192FF221A701B78DBB28DF8033057
:102FE0009DF8033003F05003244A1370244B07224A
:102FF0001A6009E0224A1368013B13609DF8033010
:103000005B00DBB28DF803309DF8033013F0800FC6
:10301000F0D11B4B1B68032B08D04FF0500383F3F8
:103020001188BFF36F8FBFF34F8FFEE71B02144A67
:10303000136003F4E0631360019BDBB20E4A13706C
:103040004FF0E023D3F8202D42F47002C3F8202D76
:10305000D3F8202D42F07042C3F8202DFFF7A0FFD7
:103060000024084B1C60FFF7EFFE01F077F8FFF734
:10307000CBFE204602B010BD00E400E0741D00202D
:10308000781D00201C000020EFF305830F2B0FD9C3
:10309000114A9B5CDBB2114A12789A4208D94FF070
:1030A000500383F31188BFF36F8FBFF34F8FFEE799
:1030B0004FF0E023D3F80C3D03F4E063084A1268B4
:1030C000934208D94FF0500383F31188BFF36F8FF9
:1030D000BFF34F8FFEE77047F0E300E0741D002060
:1030E000781D00200346406A18B11B6B1868C0F1B8
:1030F0003800704710B50446FFF7DCFEA26BE36BA7
:103100009A4204D00024FFF7F7FE204610BD0124A8
:10311000F9E710B50446FFF7CDFEA36B23B90124F0
:10312000FFF7EAFE204610BD0024F9E770B504461B
:103130001546866B026C5AB903681BB10020013634
:10314000A66370BD406801F07DF900236360F6E777
:103150006DB98068FDF7D8F9226CA3681344A360A9
:103160006268934219D32368A3602846E7E7C068E2
:10317000FDF7CAF9226C5142E3689B1AE3602268AA
:10318000934202D263680B44E360022D01D0002019
:10319000D5E726B1013E0020D1E72846CFE7002041
:1031A000CDE708B50346026C62B10846D968114400
:1031B000D960D3F804C0614501D31968D960D968D2
:1031C000FDF7A2F908BD38B50546FFF773FE95F87F
:1031D000454064B201E0013C64B2002C0ADD6B6A38
:1031E00043B105F1240001F037F80028F3D001F0D5
:1031F000C7F8F0E7FF2385F84530FFF77DFEFFF7BE
:1032000059FE95F8444064B201E0013C64B2002CE0
:103210000ADD2B6943B105F1100001F01DF800280B
:10322000F3D001F0ADF8F0E7FF2385F84430FFF765
:1032300063FE38BD38B5E0B10D460446FFF73AFEEF
:103240002368E26B216C01FB023060600020A06308
:10325000A360013A02FB0133E360FF2384F84430AA
:1032600084F84530FDB9236963B9FFF745FE0120B5
:1032700038BD4FF0500383F31188BFF36F8FBFF356
:103280004F8FFEE704F1100000F0E6FF0028ECD0BD
:103290004FF0E0234FF08052C3F8042DBFF34F8F5F
:1032A000BFF36F8FE1E704F11000FFF755FC04F165
:1032B0002400FFF751FCD8E738B51D46049C0B46A7
:1032C00049B92460E063236401212046FFF7B2FF7F
:1032D00084F84C5038BD2260F4E740B94FF05003F9
:1032E00083F31188BFF36F8FBFF34F8FFEE710B5E5
:1032F00084B01C46844653B192B189B94FF0500353
:1033000083F31188BFF36F8FBFF34F8FFEE74FF04A
:10331000500383F31188BFF36F8FBFF34F8FFEE726
:103320006AB150230393039B502B13D04FF05003EB
:1033300083F31188BFF36F8FBFF34F8FFEE7002930
:10334000EFD04FF0500383F31188BFF36F8FBFF3BB
:103350004F8FFEE7012384F8463000949DF8183023
:103360006046FFF7A9FF204604B010BD40B94FF0FA
:10337000500383F31188BFF36F8FBFF34F8FFEE7C6
:10338000F0B583B00C4615460746A1B101FB00F02D
:103390005030FFF789FC064650B1002380F84630D4
:1033A00000902B4600F1500221463846FFF784FF7B
:1033B000304603B0F0BD0846EAE740B94FF050038D
:1033C00083F31188BFF36F8FBFF34F8FFEE710B504
:1033D00082B00C46884208D24FF0500383F3118824
:1033E000BFF36F8FBFF34F8FFEE7022300931346A7
:1033F00000221146FFF771FF00B1846302B010BDD7
:1034000040B94FF0500383F31188BFF36F8FBFF3C0
:103410004F8FFEE710B50C46884208D24FF050039C
:1034200083F31188BFF36F8FBFF34F8FFEE7022244
:103430000021FFF79BFF00B1846310BDF0B585B09C
:10344000019288B10F461D460446B1B1022D20D12C
:10345000E36B012B1DD04FF0500383F31188BFF3B2
:103460006F8FBFF34F8FFEE74FF0500383F3118848
:10347000BFF36F8FBFF34F8FFEE7036C002BE5D0D8
:103480004FF0500383F31188BFF36F8FBFF34F8F5B
:10349000FEE700F07BFF064658B9019B002B48D0A1
:1034A0004FF0500383F31188BFF36F8FBFF34F8F3B
:1034B000FEE700263DE02A4639462046FFF736FE65
:1034C000636A7BB948B14FF0E0234FF08052C3F8F4
:1034D000042DBFF34F8FBFF36F8FFFF70DFD01205A
:1034E00005B0F0BD04F1240000F0B6FE0028F4D0D1
:1034F0004FF0E0234FF08052C3F8042DBFF34F8FFD
:10350000BFF36F8FE9E7FFF7F7FC0020E8E702A8B9
:1035100000F0E8FE012619E0002384F8443021E0A1
:10352000002384F8453023E02046FFF74CFE00F0EE
:1035300073FDFFF7BFFCA26BE36B9A42BBD3022D76
:10354000B9D0019B002BDED0002EE0D0FFF7D4FCD9
:1035500000F0C8FCFFF7AEFC94F8442052B2B2F180
:10356000FF3FD9D094F8452052B2B2F1FF3FD7D0F7
:10357000FFF7C2FC01A902A800F0C0FED8B920469E
:10358000FFF7B8FD0028CFD0019904F1100000F03A
:103590002FFE2046FFF717FE00F03EFD0028C8D1A1
:1035A0004FF0E0234FF08052C3F8042DBFF34F8F4C
:1035B000BFF36F8FBDE72046FFF705FE00F02CFD3F
:1035C00000208DE72DE9F84390B10F4616461C46C2
:1035D0000546B1B1022C20D1EB6B012B1DD04FF071
:1035E000500383F31188BFF36F8FBFF34F8FFEE754
:1035F0004FF0500383F31188BFF36F8FBFF34F8FEA
:10360000FEE7036C002BE5D04FF0500383F31188E5
:10361000BFF36F8FBFF34F8FFEE7FFF735FDEFF37B
:1036200011894FF0500383F31188BFF36F8FBFF3FD
:103630004F8FAA6BEB6B9A4206D3022C04D000206A
:1036400089F31188BDE8F88395F845804FFA88F82A
:10365000224639462846FFF769FDB8F1FF3F06D0FC
:1036600008F101035BB285F845300120E8E76B6A99
:103670000BB90120E4E705F1240000F0EDFD18B1DD
:1036800026B101203060DBE70120D9E70120D7E730
:10369000F0B585B0019290B10F460446C1B100F07B
:1036A00075FE064600BB019B002B5ED04FF0500319
:1036B00083F31188BFF36F8FBFF34F8FFEE74FF097
:1036C000500383F31188BFF36F8FBFF34F8FFEE773
:1036D000036C002BE3D04FF0500383F31188BFF34A
:1036E0006F8FBFF34F8FFEE700263EE0394620463E
:1036F000FFF757FD013DA563236923B9FFF7FCFBE5
:10370000012005B0F0BD04F1100000F0A5FD002877
:10371000F4D04FF0E0234FF08052C3F8042DBFF3F4
:103720004F8FBFF36F8FE9E7FFF7E6FB0020E8E775
:1037300002A800F0D7FD012621E0002384F84430E0
:1037400029E0002384F845302BE02046FFF73BFDBD
:1037500000F062FC09E02046FFF735FD00F05CFC5C
:103760002046FFF7D6FC00283FD1FFF7A3FBA56B4F
:10377000002DBBD1019B002BD6D0002ED8D0FFF757
:10378000BBFB00F0AFFBFFF795FB94F844305BB256
:10379000B3F1FF3FD1D094F845305BB2B3F1FF3FB6
:1037A000CFD0FFF7A9FB01A902A800F0A7FD0028D0
:1037B000D1D12046FFF7ADFC0028C6D0019904F115
:1037C000240000F015FD2046FFF7FDFC00F024FC6E
:1037D0000028CAD14FF0E0234FF08052C3F8042DE7
:1037E000BFF34F8FBFF36F8FBFE7002089E770B53E
:1037F00084B0019158B10446036C8BB14FF0500373
:1038000083F31188BFF36F8FBFF34F8FFEE74FF045
:10381000500383F31188BFF36F8FBFF34F8FFEE721
:1038200000F0B4FD054650B9019B5BB14FF0500369
:1038300083F31188BFF36F8FBFF34F8FFEE700262E
:10384000354655E0064653E0013BA36323683BB190
:1038500023694BB9FFF750FB0126304604B070BD19
:1038600000F088FE6060F3E704F1100000F0F4FC63
:103870000028EFD04FF0E0234FF08052C3F8042D22
:10388000BFF34F8FBFF36F8FE4E746B14FF05003A4
:1038900083F31188BFF36F8FBFF34F8FFEE7FFF7FE
:1038A0002BFBDAE702A800F01DFD01252AE000232A
:1038B00084F8443032E0002384F8453034E0FFF7E8
:1038C000F9FA606800F072FD0646FFF715FB3BE071
:1038D0002046FFF778FC00F09FFB09E02046FFF749
:1038E00072FC00F099FB2046FFF713FC002842D140
:1038F000FFF7E0FAA36B002BA6D1019B002BC4D0ED
:10390000002DCFD0FFF7F8FA00F0ECFAFFF7D2FA6B
:1039100094F844305BB2B3F1FF3FC8D094F845301F
:103920005BB2B3F1FF3FC6D0FFF7E6FA01A902A8E8
:1039300000F0E4FC0028D1D12046FFF7EAFB002884
:10394000C6D02368002BBAD0019904F1240000F0FE
:103950004FFC2046FFF737FC00F05EFB0028C7D184
:103960004FF0E0234FF08052C3F8042DBFF34F8F88
:10397000BFF36F8FBCE70EB900266EE7FFF79AFA28
:103980002046FFF7AFFB0146606800F0A3FDFFF79C
:10399000B3FAF1E70023072B0CD8074A52F833207B
:1039A0000AB10133F7E7044A42F8331002EBC303CC
:1039B00058607047704700BF7C1D00200023072B14
:1039C0000FD8084A02EBC3025268824201D0013389
:1039D000F5E7044A002142F8331002EBC3035960B3
:1039E000704770477C1D002038B110B50446FFF7C2
:1039F000E5FF94F846304BB110BD4FF0500383F310
:103A00001188BFF36F8FBFF34F8FFEE72046FFF79C
:103A1000C3F9F1E770B504460D461646FFF74AFABA
:103A200094F844305BB2B3F1FF3F0DD094F84530C9
:103A30005BB2B3F1FF3F0BD0FFF75EFAA36B5BB154
:103A40002046FFF7C0FB70BD002384F84430EDE74B
:103A5000002384F84530EFE73246294604F124007C
:103A600000F0DEFBECE70000084B1B681B6823B985
:103A7000074B4FF0FF321A607047044B1B68DB683E
:103A8000DB685A68024B1A60704700BFC01D0020F7
:103A90006C2200202DE9F04780460D4617469946D6
:103AA000089EDDF824A00A9C9200A521206B00F05E
:103AB000E1FF236B07F18042013A03EB820727F015
:103AC00007074FF0000CBCF10F0F0BD815F80C20B6
:103AD00004EB0C0383F8342015F80C3013B10CF10F
:103AE000010CF0E7002384F84330372E00D9372645
:103AF000E662E66400252565201DFFF738F804F12D
:103B00001800FFF734F82461C6F13806A661646234
:103B1000656584F858504A4641463846FFF7A4F98F
:103B20002060BAF1000F01D0CAF80040BDE8F0876C
:103B300038B5002407E004EB840293000E481844D3
:103B4000FFF70AF80134372CF5D90C4D2846FFF75A
:103B500003F80B4C2046FEF7FFFF0A48FEF7FCFF78
:103B60000948FEF7F9FF0948FEF7F6FF084B1D600C
:103B7000084B1C6038BD00BFC81D0020402200203B
:103B80005422002074220020A02200208C22002039
:103B9000C01D0020C41D002010B50446FFF78AF99F
:103BA000224A136801331360214B1B685BB1214B20
:103BB0001B686BB91E4B1B68DA6AE36A9A4207D826
:103BC0001B4B1C6004E01A4B1C601368012B29D0AE
:103BD000194A1368013313606364E06A174B1B686A
:103BE000984201D9154B186000EB8000211D144B41
:103BF00003EB8000FEF7BEFFFFF77EF90D4B1B685D
:103C00007BB10B4B1B68DA6AE36A9A4209D24FF028
:103C1000E0234FF08052C3F8042DBFF34F8FBFF362
:103C20006F8F10BDFFF784FFD2E700BF282200206E
:103C3000BC1D002088220020382200203C220020C9
:103C4000C81D002010B5044690F8593063B1012B0F
:103C500011D0022B0ED04FF0500383F31188BFF325
:103C60006F8FBFF34F8FFEE7006BFFF795F820468D
:103C7000FFF792F810BDFFF78FF8FBE70F4B1B68BB
:103C8000D3B110B5FFF716F90D4BDB68DC68201DCA
:103C9000FEF794FF0B4A1368013B1360074A136851
:103CA000013B1360FFF728F92046FFF7CBFF034BDA
:103CB0001B68002BE6D110BD704700BF2C220020EE
:103CC000A02200202822002008B5FFF7D7FF074BCD
:103CD0001B68012BF9D94FF0E0234FF08052C3F855
:103CE000042DBFF34F8FBFF36F8FEEE7C81D002089
:103CF00070B504460D46174B1E68174B1868043004
:103D0000FEF75CFFB4F1FF3F0DD03444124B1B684B
:103D10005C60A64210D9114B18680F4B196804312A
:103D2000FEF733FF70BD002DEFD00B4B1968043147
:103D30000B48FEF71FFFF5E70A4B1868064B19689A
:103D40000431FEF722FF084B1B68A342EAD9064B59
:103D50001C60E7E7B4220020BC1D0020C41D002029
:103D60008C220020C01D00206C22002030B587B0BE
:103D70000B9C7CB10C9DB5B15C250495049D5C2D1C
:103D80001AD04FF0500383F31188BFF36F8FBFF346
:103D90004F8FFEE74FF0500383F31188BFF36F8F0F
:103DA000BFF34F8FFEE74FF0500383F31188BFF34B
:103DB0006F8FBFF34F8FFEE70C9D2C63022485F8B5
:103DC000594000240394029505AC01940A9C009488
:103DD000FFF760FE0C98FFF7DFFE059807B030BDD7
:103DE0002DE9F04385B00746884614461E469000EC
:103DF000FEF75AFF00B381465C20FEF755FF0546EB
:103E0000B0B1C0F83090E5B1002385F85930039384
:103E100002950D9B01930C9B00933346224641462D
:103E20003846FFF737FE2846FFF7B6FE012005E0CB
:103E30004846FEF7B1FFE6E74FF0FF3005B0BDE8BA
:103E4000F0834FF0FF30F9E710B588B000240594F7
:103E5000069407AA06A905A8FEF766FE059B02932D
:103E6000069B019300942346079A18491848FFF7C8
:103E70007DFF184B186040B100F0F6FB012806D01A
:103E8000B0F1FF3F18D008B010BD0020F6E74FF0AA
:103E9000500383F31188BFF36F8FBFF34F8F0E4B27
:103EA0004FF0FF321A600D4B01221A600C4B0022BA
:103EB0001A60FFF789F8E6E74FF0500383F31188A3
:103EC000BFF36F8FBFF34F8FFEE700BF2CAB00082F
:103ED000C93C0008682200206C22002088220020B3
:103EE000B4220020024A136801331360704700BFF8
:103EF00034220020014B1868704700BFB422002014
:103F0000F8B53A4B1B68002B64D1394B1D6801355D
:103F10001D60C5B9374B1B681B6843B14FF0500398
:103F200083F31188BFF36F8FBFF34F8FFEE7314AE2
:103F30001168314B186810601960304A13680133FA
:103F40001360FFF791FD2E4B1B68AB4238D9002759
:103F50002C4B1B68DB6A03EB83039A002A4B9B58AC
:103F6000012B3CD901273AE00127224B1B681B6833
:103F700043B3204B1B68DB68DC6863689D4226D333
:103F8000261D3046FEF71AFEA36A1BB104F1180085
:103F9000FEF714FEE36A1D4A1268934201D91B4AD8
:103FA000136003EB83039A00314617481044FEF771
:103FB000E1FDE26A134B1B68DB6A9A42D4D2D4E774
:103FC0000027D2E70E4B4FF0FF321A60C0E70C4AD1
:103FD0001360BDE70E4A13680133136000270D4BD1
:103FE0001B6803B101273846F8BD00BF342200200A
:103FF000B4220020C01D0020C41D0020702200201B
:104000006C220020BC1D0020C81D00203C22002086
:1040100030220020B822002038B5354B1B6843B948
:104020004FF0500383F31188BFF36F8FBFF34F8FAF
:10403000FEE7FEF73FFF2E4B1A68013A1A601B6835
:10404000002B4FD12B4B1B680BB900244BE00024F5
:10405000294B1B681BB3284BDB68DC6804F1180094
:10406000FEF7ACFD251D2846FEF7A8FDE06A234BB0
:104070001B68984201D9214B186000EB800029464B
:104080001F4B03EB8000FEF775FDE26A1D4B1B68BA
:10409000DB6A9A42DCD31C4B01221A60D8E70CB1D0
:1040A000FFF7E2FC194B1C6884B9174B1C68D4B1AC
:1040B0004FF0E0234FF08052C3F8042DBFF34F8F31
:1040C000BFF36F8F01240EE0013C07D0FFF718FF0C
:1040D0000028F9D00C4B01221A60F5E70B4B0022A7
:1040E0001A60E2E70024FEF707FF204638BD00BF54
:1040F0003422002028220020742200203C220020AC
:10410000C81D0020BC1D0020B82200203022002045
:1041100010B5A8B10446104B1B6843B14FF05003D3
:1041200083F31188BFF36F8FBFF34F8FFEE7FFF765
:10413000D9FE00212046FFF7DBFDFFF76DFF48B9F0
:104140004FF0E0234FF08052C3F8042DBFF34F8FA0
:10415000BFF36F8F10BD00BF342200201F4B1B68C0
:104160001BB11F4B01221A6070471D4B00221A60C1
:104170001C4B1B6803EB83018A001B498A585AB900
:104180000BB1013BF6E74FF0500383F31188BFF307
:104190006F8FBFF34F8FFEE703EB830082000A446B
:1041A00050684068506003EB830C4FEA8C02083281
:1041B000114488420BD003EB830291000A4A0A445F
:1041C0005268D168094A1160064A13607047406816
:1041D00062469100044A0A445060ECE73422002011
:1041E000B82200203C220020C81D0020BC1D002059
:1041F00058B110B50C46094A11681831FEF7C5FCD4
:1042000001212046FFF774FD10BD4FF0500383F3EA
:104210001188BFF36F8FBFF34F8FFEE7BC1D0020E7
:1042200038B570B10D4614460A4A11681831FEF7C8
:10423000A1FC0CB14FF0FF3521462846FFF758FD91
:1042400038BD4FF0500383F31188BFF36F8FBFF376
:104250004F8FFEE7BC1D002038B5C368DC6824B36F
:1042600004F118052846FEF7A9FC184B1B682BBB68
:10427000251D2846FEF7A2FCE06A154B1B689842F4
:1042800001D9134B186000EB80002946114B03EB5A
:104290008000FEF76FFCE26A0F4B1B68DB6A9A42F4
:1042A00011D901200D4B186038BD4FF0500383F336
:1042B0001188BFF36F8FBFF34F8FFEE72946084881
:1042C000FEF758FCE7E70020EEE700BF34220020AD
:1042D0003C220020C81D0020BC1D0020B822002068
:1042E00074220020034B1B680360034B1B68436070
:1042F000704700BF70220020B4220020D8B170B5F2
:104300000C46054601B3FEF7D5FD1B4B19686B68DB
:10431000C81A2268B2F1FF3F27D0184E3668D5F888
:1043200000C0B44501D08B4224D9824215D8002365
:10433000236001241AE04FF0500383F31188BFF388
:104340006F8FBFF34F8FFEE74FF0500383F3118859
:10435000BFF36F8FBFF34F8FFEE75B1A13442360E9
:104360002846FFF7BFFF002400E00024FEF7C4FD4D
:10437000204670BD0124F9E7B422002070220020FD
:10438000014B01221A607047B8220020054B1B68C0
:1043900033B1054B1B680BB10020704702207047FA
:1043A00001207047882200203422002000283FD0BE
:1043B00038B50446C36A204A1268D26A93422FD2A3
:1043C0008269002A05DB1C4A1268D26AC2F13802EF
:1043D0008261616903EB8303184A02EB830399420C
:1043E00005D0154B1B68DB6AE362012038BD251D33
:1043F0002846FEF7E3FB104B1B68D86AE062104BBF
:104400001B68984209D800EB800029460B4B03EB50
:104410008000FEF7AFFB0120E8E7094B1860F2E7E8
:10442000C26C054B1B68DB6A9A4203D30020DDE7B0
:10443000002070470120D9E7BC1D0020C81D0020C6
:104440003C22002000283BD038B504461E4B1B6898
:10445000834208D04FF0500383F31188BFF36F8F6E
:10446000BFF34F8FFEE7036D43B94FF0500383F363
:104470001188BFF36F8FBFF34F8FFEE7013B0365DA
:10448000C16AC26C91421DD00BB1002038BD051D20
:104490002846FEF793FBE06CE062C0F13803A361AD
:1044A0000A4B1B68984201D9084B186000EB80004A
:1044B0002946074B03EB8000FEF75CFB0120E5E794
:1044C000002070470020E1E7BC1D00203C220020B6
:1044D000C81D0020002846D038B50446036D43B9F6
:1044E0004FF0500383F31188BFF36F8FBFF34F8FEB
:1044F000FEE7C26C8A4200D20A46E16A914201D0CC
:10450000012B00D038BD184B1B68A34222D0E262B9
:10451000A369002B02DBC2F13802A261626901EBE0
:104520008101124B03EB81018A42EBD1251D284604
:10453000FEF744FBE06A0E4B1B68984201D90C4B16
:10454000186000EB80002946084B03EB8000FEF763
:1045500011FBD7E74FF0500383F31188BFF36F8F40
:10456000BFF34F8FFEE77047BC1D0020C81D002021
:104570003C220020054B1B6823B1044B1A68136DC5
:1045800001331365014B1868704700BFBC1D002044
:10459000064B1A681368B3FA83F35B09036013B917
:1045A000D368186870470020704700BFBC22002005
:1045B00008B54160006191420CD8D21A83699A42D1
:1045C00001D3012008BD011D094B1868FEF7DDFA73
:1045D0000020F7E79A4201D2994206D2011D054B0D
:1045E0001868FEF7D2FA0020ECE70120EAE700BFE6
:1045F000C0220020BC22002030B583B0FEF75AFC58
:10460000114B1B681BB1FEF777FC03B030BD0F4D9B
:104610002846FEF7A1FA0E4C2046FEF79DFA0D4BF8
:104620001D600D4B1C60002300930C4B0C4A1021A5
:104630000A20FEF752FE044B18600028E3D0094917
:10464000FFF7A8F9DFE700BFE02300206423002084
:1046500078230020BC220020C022002090230020CC
:10466000C422002034AB000810B588B0FFF7C4FFA7
:10467000124B1B68CBB100240594069407AA06A927
:1046800005A8FEF75DFA059B0293069B01930223A2
:1046900000932346079A0A490A48FFF767FB0A4B2B
:1046A000186010B1012008B010BD4FF0500383F323
:1046B0001188BFF36F8FBFF34F8FFEE7E023002019
:1046C0003CAB0008A9490008E4230020B8B19C468F
:1046D00003461848006858B300B585B000910192B0
:1046E000029305291CDCFFF751FE022810D000239D
:1046F0001A4669460F480068FEF7A0FE15E04FF025
:10470000500383F31188BFF36F8FBFF34F8FFEE722
:104710000023069A694607480068FEF78FFE04E00A
:10472000002362466946FEF74DFF05B05DF804FBC5
:1047300000207047E023002070B582B01A4B1B6840
:104740001A6852B3DB681E68DC68251D2846FEF730
:1047500035FA636A20469847E369012BEED1A369D5
:1047600033449E4207D26360246129460E4B186889
:10477000FEF70BFAE2E7002100910B463246204695
:10478000FFF7A4FF0028D9D14FF0500383F311881D
:10479000BFF36F8FBFF34F8FFEE7044A10680249E3
:1047A0000860136002B070BDBC220020C02200204F
:1047B00038B50546FFF79EFB0446074B1B6883424E
:1047C00005D800232B60044B1C60204638BDFFF742
:1047D000B3FF01232B60F6E78C23002070B582B075
:1047E00006460D4614490968C968CC68201DFEF7C5
:1047F000E5F9E169012904D0636A2046984702B0CF
:1048000070BDA16933462A4631442046FFF7D0FEE9
:104810000028F1D0002100910B4632462046FFF7D8
:1048200055FF0028E8D14FF0500383F31188BFF300
:104830006F8FBFF34F8FFEE7BC22002070B582B0B0
:1048400006460C46FFF74EFB01A8FFF7B1FF019BA0
:104850002BBB05460CB9B0421AD22CB1124B1B68C7
:104860001C68B4FA84F464092246711B0F4B186863
:10487000FFF7D0F8FFF7D0FB98B94FF0E0234FF0E7
:104880008052C3F8042DBFF34F8FBFF36F8F08E042
:10489000FFF7C2FB29463046FFF7A0FF01E0FFF714
:1048A000BBFB02B070BD00BFC0220020E02300208F
:1048B00010B588B002E0049B002B0FDA002204A997
:1048C000384B1868FEF7E4FE002869D0049B002BE3
:1048D000F1DA07990698059B9847ECE7069C63690F
:1048E00013B1201DFEF76AF903A8FFF761FF049BCF
:1048F000092BE3D801A252F823F000BF2549000894
:104900002549000825490008BD4800086B490008F2
:10491000914900082549000825490008BD480008BC
:104920006B490008059BA169024619442046FFF720
:104930003FFE0028C2D0636A20469847E369012BF6
:10494000BCD1A269002100910B4605980244204683
:10495000FFF7BCFE0028B1D14FF0500383F311885C
:10496000BFF36F8FBFF34F8FFEE70599A16131B1A0
:104970000346024601442046FFF71AFE9EE74FF029
:10498000500383F31188BFF36F8FBFF34F8FFEE7A0
:1049900094F82C30002B91D12046FEF7FDF98DE7DD
:1049A00008B010BDE023002000B583B001A8FFF7D8
:1049B000EFFD0199FFF742FFFFF77AFFF6E70000EE
:1049C0000FB4F0B5C3B048AD55F8047B124E642166
:1049D0003068FEF70CFF00240294FC22214603A855
:1049E00000F048F801952B463A464FF4807102A832
:1049F00000F0F4F84FF47A7382B202A90748FDF789
:104A000017FD2346224621463068FEF717FD43B0C6
:104A1000BDE8F04004B07047940A0020480A002026
:104A2000014B1868704700BF2000002070B50D4E84
:104A30000D4D761BB61006D0002455F8043B01340A
:104A40009847A642F9D1094E094D06F007F8761BA2
:104A5000B61006D0002455F8043B01349847A6420E
:104A6000F9D170BD48AF000848AF000850AF00084A
:104A700048AF0008830730B548D0541E002A3FD005
:104A80000346CAB201E0013C3AD303F8012B9D076B
:104A9000F9D1032C2DD9CDB245EA05250F2C45EAD5
:104AA000054536D9A4F1100222F00F0C03F1200EB7
:104AB000E6444FEA121C03F1100242E9045542E9B0
:104AC000025510327245F8D10CF1010214F00C0FAE
:104AD00003EB021204F00F0C13D0ACF1040323F02B
:104AE00003030433134442F8045B9342FBD10CF0FC
:104AF00003042CB1CAB21C4403F8012B9C42FBD125
:104B000030BD64461346002CF4D1F9E70346144641
:104B1000BFE71A46A446E0E720F0030110F00300C7
:104B2000C0F1000051F8043B00F1040C4FEACC0C3A
:104B30006FF000021CBF22FA0CF213434FF0010C7D
:104B40004CEA0C2C4CEA0C4CA3EB0C0222EA0302BC
:104B500012EACC1204BF51F8043B0430F4D0C2F185
:104B6000000102EA0102B2FA82F2C2F11F0200EB76
:104B7000D200704730B540EA0104A30722D1032ACE
:104B800020D90B468446194653F8045BA5F101343D
:104B900024EA050414F0803F15D1043A032A19468B
:104BA0004CF8045BEFD801F1FF3E52B163461EF8AA
:104BB000011F541E03F8011B41B122469C46002AE6
:104BC000F4D130BD844601F1FF3EEEE76244002C93
:104BD000F7D003F8011B9342FBD130BD10B5194C3F
:104BE000002924689AB028DB009004904FF40270EA
:104BF0004FF6FF7CADF80C0011D001390291059100
:104C000020466946ADF80EC000F04CF8421C01DAAF
:104C10008B2323600022009B1A701AB010BD0291F2
:104C2000059120466946ADF80EC000F03BF8431CE4
:104C300001DA8B2323601AB010BD8B234FF0FF30B5
:104C40002360F8E720000020024B13B1024800F077
:104C500005B8704700000000694C000800230146B9
:104C60001A46184601F070BD38B5084B084D5B1B5D
:104C70009C1007D0043B1D44013C55F8043998476B
:104C8000002CF9D1BDE8384005F0EEBE54AF000865
:104C900050AF0008704700BF704700BF704700BFAB
:104CA000704700BF2DE9F04FD5B00C460C919146EE
:104CB0000E930A9002F0DAFE036818461793FFF786
:104CC0002BFFA3891690190603D52369002B00F04A
:104CD0008F8700242BAB224698464D46CDE92944C8
:104CE0002893129400230024CDE914342B78CDE9C5
:104CF0001922CDE91B2218920892002B00F0CE81D8
:104D0000AA4604E01AF8013F002B00F00981252B88
:104D1000F8D1BAEB050640F007819AF80030002B75
:104D200000F0BC8100234FF0FF324FF02B0920240C
:104D30001F469AF8016007920AF1010A8DF8833044
:104D400009930AF1010AA6F120035A2B00F22081EF
:104D5000DFE813F0CA021E011E01C5021E011E017A
:104D60001E01A3021E011E016A00F3021E0147027A
:104D7000D9021E01D4025B005B005B005B005B009C
:104D80005B005B005B005B001E011E011E011E013B
:104D90001E011E011E01B0011E010B027A00B001AE
:104DA000B001B0011E011E011E011E019E021E0166
:104DB0001E01B6001E011E011E0119021E014C0239
:104DC0001E011E013F071E011E011E011E011E01C4
:104DD0001E011E011E01B0011E010B027C00B0016C
:104DE000B001B00191027C0075001E0184021E0119
:104DF0007002B8005E0275001E01190272001C07E5
:104E00001E011E011F071E0172000022A6F13003C1
:104E10001AF8016B02EB820203EB4202A6F13003A7
:104E2000092BF5D909928EE70E9B53F8042B002A23
:104E300009920E93C0F2D2819AF8006081E79AF845
:104E4000006047F020077CE747F01007BA060E9B8A
:104E500040F17D81073323F007031A465B6852F85F
:104E6000084B99460E92002BC0F27F85079B0133B9
:104E700001F0398054EA090327F0800B00F0058522
:104E80000A2C79F1000380F0938701235F463034C8
:104E90008DF84F410B930DF24F15079A0B99002394
:104EA0008A42B8BF0A4606929DF883200D930F935D
:104EB00013931093002A7CD0069B0133069378E06D
:104EC00047F0100717F0200900F032810E9B0733DE
:104ED00023F00703D3F8049053F8084B0E930023F4
:104EE00027F4806B00228DF88320079A511C00F074
:104EF0002A8254EA09012BF0800740F02382002A1D
:104F000041F02B80002B40F0C5841BF001030B9374
:104F100000F0548530230DF24F158DF84F31BCE76A
:104F2000BAEB050600F0BA802A9BC8E90056334464
:104F30002A93299B0133072B299305DC08F10808E4
:104F4000089B33440893E8E60C990A9828AA03F0D2
:104F50007FFC80B90DF1AC08F2E70C990A9828AAF9
:104F600003F076FC002800F08A800D9B1BB10D99A0
:104F70000A9802F07BFC0C9B9B8913F0400F089B66
:104F800018BF4FF0FF330893089855B0BDE8F08F75
:104F9000002E00F08380012300228DF8EC60069340
:104FA0003BAD8DF883200B930D9207920F921392D5
:104FB000109217F0020302D006990231069117F001
:104FC000840B07D109990698A1EB0009B9F1000FEC
:104FD00000F336832A9C82B10122C8F80420299A62
:104FE000013401320DF18301072A2A942992C8F86D
:104FF000001000F3698308F108087BB10223C8F8A8
:105000000430299B0234013321AA072B2A942993C7
:10501000C8F8002000F36C8308F10808BBF1800F8A
:1050200000F02E82079B0B9AA3EB020BBBF1000F43
:1050300000F37182FB0500F1C5810B9BC8F800509D
:105040001C44C8F80430299B2A940133072B299368
:1050500000F3EA8208F108087B0705D5099B069A48
:105060009D1A002D00F35083DDE9083206998A422B
:10507000ACBF9B185B180893002C7FF46EAF002325
:1050800029930D9B1BB10D990A9802F0EFFB554631
:105090000DF1AC082B78002B7FF432AE2A9B002B4D
:1050A0003FF469AF0C9C0A98214628AA03F0D0FB74
:1050B000A38962E70E9B073323F00702F2E802346C
:1050C000CDE91434DDE9143424F00044994618463F
:1050D0000E9221464FF0FF32B64BFBF7E1FE00285F
:1050E00040F09684484621464FF0FF32B14BFBF723
:1050F000B9FE002840F08C84DDE914010022002371
:10510000FBF7A6FE002840F0A6879DF8832000212B
:105110000320A94DA94B27F080070D910690472E3B
:10512000C8BF1D4607910B900F9113911091C1E6D6
:1051300017F0100340F0628417F0400200F07B8704
:105140000E9A994652F8044B0E92A4B2C7E653F851
:10515000044B0E93FB0600F141847D0640F13B8435
:1051600044F3C0394B4624B27DE6012000220E9B59
:10517000069053F8041B3BAD8DF883208DF8EC109E
:105180000E930B9010E74FF000090E9C079B54F80C
:10519000045B8DF88390002D00F0EE865A1C00F021
:1051A00060851A464946284602F010FF0D900028F7
:1051B00001F09E800D9B9DF883205B1B0B9323EADF
:1051C000E373CDF81C900E940693CDF83490CDF88F
:1051D0003C90CDF84C90CDF840906BE6099B5B423B
:1051E00009939AF8006047F00407AAE547F0100B0E
:1051F0001BF0200900F0AA830E9B073323F007035E
:105200001A4652F8084BD3F804900E92012369E62F
:10521000302278260E9B8DF8842053F8044B684A80
:105220000E934FF00009022347F0020B8DF88560C2
:10523000189257E6BD0600F1D683FC0600F193866E
:10524000780600F15D87B90540F18D860E9B0899BF
:1052500053F8042B554611700E931BE79AF8006023
:105260006C2E03BF9AF8016047F020070AF1010A8B
:1052700047F0100765E59AF80060682E03BF9AF8BA
:10528000016047F400770AF1010A47F0400758E54A
:105290009AF8006047F0080753E50A9E304602F08E
:1052A000E5FB436818461B93FFF736FC0346304680
:1052B0001C931E4602F0DAFB83681993002E3FF41C
:1052C000BBAD199B002B3FF4B7AD199B1B78002B8E
:1052D0003FF4B2AD9AF8006047F4806731E59AF880
:1052E000006047F001072CE59DF88330002B7FF428
:1052F000A3AD9AF800608DF8834022E59AF800602B
:1053000047F080071DE5524612F8016B2A2E01F086
:10531000EB81A6F13003092B924698BF002201F2DF
:1053200003801AF8016B02EB820203EB4202A6F142
:105330003003092BF5D9079205E59AF800608DF83E
:105340008390FEE4BB46012B3FF49AAD022B54AD93
:1053500012D1189A04F00F03D35C240944EA0974AB
:105360004FEA191905F8013D54EA0903F2D154AB8B
:105370005B1B5F460B9390E504F00703E40844EAE7
:1053800049744FEAD909303354EA09012A4605F82D
:10539000013DF1D11BF0010FE9D0302BE7D03023D4
:1053A000023A05F8013C54AB9B1A5F4615460B9335
:1053B00073E500BFFFFFEF7F48AB00084CAB000870
:1053C00058AB0008652E40F3E980DDE914010022A6
:1053D0000023FBF733FD002800F0D2810123C8F839
:1053E0000430299BBF4A01330134072B2A942993A7
:1053F000C8F8002000F37A8508F10808229B129A69
:10540000934280F2D782169B179A1C44C8E9002366
:10541000299B2A940133072B299300F3DD8308F19C
:105420000808129B5D1E002D7FF716AE102D41F36C
:105430004181DFF8B492224649461026B946299B9D
:105440000F46DDF828B00C9C05E008F10808103D77
:10545000102D40F3588501331032072BC8E9007630
:10546000CDE92932F1DD2146584628AA03F0F0F9AA
:1054700000287FF47AADDDE929320DF1AC08E6E7CA
:10548000099B069AA3EB020BBBF1000F7FF7CAAD95
:10549000BBF1100F41F30580DFF84C9241462046E6
:1054A000A8464C461023299A0C9DDDF8289006E06A
:1054B000ABF1100BBBF1100F01F1080119DD013246
:1054C0001030072AC1E90043CDE92920F0DD294643
:1054D000484628AA03F0BCF900287FF446ADDDE970
:1054E0002920ABF1100BBBF1100F4FF010032BA9CB
:1054F000E5DC4546A1468846044601325C44072A5D
:10550000CDE92924C8F80090C8F804B000F3188544
:1055100008F1080886E5BBF1100F40F39785DFF826
:10552000C89141462046A8464C461023299A0C9D16
:10553000DDF8289006E0ABF1100BBBF1100F01F184
:10554000080119DD01321030072AC1E90043CDE915
:105550002920F0DD2946484628AA03F079F90028D9
:105560007FF403ADDDE92920ABF1100BBBF1100F87
:105570004FF010032BA9E5DC4546A14688460446BA
:1055800001325C44072ACDE92924C8F80090C8F804
:1055900004B000F3CE8108F108084BE5129B012B03
:1055A00040F37E810123299E01341E44072EC8F852
:1055B00000502A94C8F80430299600F3E18108F1DC
:1055C0000808169B0136179A1C44072EC8E90023C9
:1055D000CDE9296400F3E18108F108080022DDE942
:1055E00014010023FBF72AFC002840F07681129B6F
:1055F0000136013B01351C44072EC8F8005029969E
:10560000C8F804302A9400F35B8108F108081A9B5B
:1056100001361C44C8F80430072E24ABCDE92964B8
:10562000C8F800307FF716AD0C990A9828AA03F045
:105630000FF900287FF499AC2A9C0DF1AC080BE51A
:10564000B9F1100F40F35086DDE929214046CDE93C
:105650001D36B84610244F460C9EA9460A9D04E00C
:10566000103F102F00F1080016DD01321F4B1031E2
:10567000072AC0E90034CDE92921F1DD3146284669
:1056800028AA03F0E5F800287FF46FACDDE92921B2
:10569000103F102F2BA8E8DC4D46DDE91D36B9463A
:1056A0004746804609EB010401321049072ACDE93B
:1056B0002924C8F80490C8F8001000F3C3839DF8AB
:1056C000832008F1080886E40C990A9828AA1D93FB
:1056D00003F0BEF800287FF448AC2A9C1D9B0DF116
:1056E000AC088AE488AB00089CAB00088CAB0008CF
:1056F0000C990A9828AA03F0ABF800287FF435AC7F
:105700002A9C0DF1AC0889E4102D40F3C4861026C4
:10571000299B0A9FDDF8309004E0103D102D08F120
:10572000080817DD0133B84A1034072BC8E90026F2
:10573000CDE92934F1DD4946384628AA03F088F836
:1057400000287FF412ACDDE92934103D102D0DF155
:10575000AC08E7DC0133AC4A2C44072BCDE92934F3
:10576000C8F80450C8F800207FF77EAC0C990A985E
:1057700028AA03F06DF800287FF4F7AB2A9C73E4A5
:105780002299002940F36F83DDF84090129B9945E0
:10579000A8BF9946B9F1000F0BDD299B4C4401339A
:1057A000072BC8E900592A94299300F31D8508F1B5
:1057B0000808109EB9F1000FA8BFA6EB0906002E3D
:1057C00000F32582DDF840B07805AB4400F15F823C
:1057D000229B129A934202DBF90740F17684169AD3
:1057E00017991444C8E90012299A2A940132072A09
:1057F000299200F3138508F10808129AAE18A6EB57
:105800000B06D51AAE42A8BF2E46002E0DDD299BF1
:1058100034440133072BC8F800B0C8F804602A9458
:10582000299300F3718508F10808002EA8BFAD1B6D
:10583000002D7FF711AC102D40F33C87DFF8CC91A1
:10584000224649461026B946299B0F46DDF828B066
:105850000C9C05E008F10808103D102D40F353831F
:1058600001331032072BC8E90076CDE92932F1DD8A
:105870002146584628AA02F0EBFF00287FF475ABBA
:10588000DDE929320DF1AC08E6E7079B002B7FF438
:10589000FCAA5F46002354AD07930B93FFF7FDBAB4
:1058A000FA073FF57FAE0123299E01341E44072EDF
:1058B000C8F800502A94C8F8043029967FF7A5AE9E
:1058C0000C990A9828AA02F0C3FF00287FF44DAB78
:1058D000DDE929640DF1AC0899E6129B5D1E002DEF
:1058E0007FF795AE102D40F3DF86224607974FF0E5
:1058F000100BDFF818910A9C0C9F05E008F10808CE
:10590000103D102D40F37F8301361032072EC8E979
:10591000009BCDE92962F1DD3946204628AA02F034
:1059200097FF00287FF421ABDDE929620DF1AC0877
:10593000E6E70C990A9828AA02F08AFF00287FF46B
:1059400014AB2A9C0DF1AC08FFF774BB1BF01003DD
:105950000E9A3AD11BF0400133D052F8044B9946CD
:105960000E920123A4B2FFF7BDBA2D2364428DF835
:105970008330BB464FF0010369EB4909FFF7B5BA25
:105980000C990A9828AA02F063FF00287FF4EDAA78
:10599000DDE929640DF1AC0813E60C990A9828AAF0
:1059A00002F056FF00287FF4E0AADDE929640DF13A
:1059B000AC0813E6FD077FF54FAB24E554ADFFF7C8
:1059C0006CBA1BF4007940F08A8352F8044B01232F
:1059D0000E92FFF787BAB80500F19B834FEAE4798E
:1059E0004B46FFF740BA0E9B089853F8041BC217AA
:1059F0005546C1E900020E93FFF74CBB0E9B53F8CE
:105A0000044B0E93FFF76BBA8CAB00089CAB0008FD
:105A1000DDE9140102460B46FBF742FA002840F08C
:105A2000E985612E00F07D85412E00F08B84079B77
:105A3000013300F08F8326F02003472B069300F0FC
:105A40008F85DDE9141247F480730F931346002B02
:105A5000C0F2B0850B9300238B461D930D93069BDC
:105A6000462B00F0E983452B00F0468507990B9BF8
:105A700001910221009126A9049123A9039122A951
:105A80005A460A98029100F03BFF069B0546472BB9
:105A900040F03A8617F0010FB9460F9F40F0FE84A0
:105AA000269B5B1B1293069B472B00F06E83069B85
:105AB000462B00F0F083229B1093109B069A013B2B
:105AC000412A229300F0BB850021F2B2002B8DF811
:105AD0009020B6BF2D222B22109B8DF89120B8BFAD
