:020000040800F2
:1000000000C000204D1C00080D1B00080F1B00083D
:10001000111B0008131B0008151B0008000000003E
:100020000000000000000000000000005151000826
:10003000171B000800000000F1510008191B000800
:10004000951C0008951C0008951C0008951C0008CC
:10005000951C0008951C0008951C0008951C0008BC
:10006000951C0008951C0008951C0008951C0008AC
:10007000951C0008951C0008951C0008951C00089C
:10008000951C0008951C0008951C0008951C00088C
:10009000951C0008951C0008951C00082F1B0008E3
:1000A000951C0008951C0008951C0008951C00086C
:1000B000951C0008951C0008951C00083D1B0008B5
:1000C0004D1B00085D1B00086D1B0008951C0008F7
:1000D000951C00087D1B0008951C0008951C000855
:1000E000951C0008951C0008951C0008951C00082C
:1000F000951C0008951C0008951C0008951C00081C
:10010000951C0008951C0008951C0008951C00080B
:10011000951C0008951C0008951C0008951C0008FB
:10012000951C0008951C0008951C0008951C0008EB
:1001300000000000000000000000000000000000BF
:1001400000000000000000000000000000000000AF
:10015000000000000000000000000000000000009F
:10016000000000000000000000000000000000008F
:10017000000000000000000000000000000000007F
:10018000000000000000000000000000000000006F
:10019000000000000000000000000000000000005F
:1001A000000000000000000000000000000000004F
:1001B000000000000000000000000000000000003F
:1001C000000000000000000000000000000000002F
:1001D000000000000000000000000000000000001F
:0401E0005FF8E0F1F3
:1001F00010B5054C237833B9044B13B10448AFF361
:1002000000800123237010BDE009002000000000E1
:100210008CED000808B5034B1BB103490348AFF34D
:10022000008008BD00000000E40900208CED0008FB
:1002300081F0004102E000BF83F0004330B54FEA97
:1002400041044FEA430594EA050F08BF90EA020F04
:100250001FBF54EA000C55EA020C7FEA645C7FEA97
:10026000655C00F0E2804FEA5454D4EB5555B8BFBA
:100270006D420CDD2C4480EA020281EA030382EA2B
:10028000000083EA010180EA020281EA0303362DBD
:1002900088BF30BD11F0004F4FEA01314FF4801C90
:1002A0004CEA113102D0404261EB410113F0004FA2
:1002B0004FEA03334CEA133302D0524263EB430359
:1002C00094EA050F00F0A780A4F10104D5F1200EF7
:1002D0000DDB02FA0EFC22FA05F2801841F1000152
:1002E00003FA0EF2801843FA05F359410EE0A5F126
:1002F00020050EF1200E012A03FA0EFC28BF4CF057
:10030000020C43FA05F3C01851EBE37101F000450C
:1003100007D54FF0000EDCF1000C7EEB00006EEB19
:100320000101B1F5801F1BD3B1F5001F0CD34908A3
:100330005FEA30004FEA3C0C04F101044FEA4452FA
:1003400012F5800F80F09A80BCF1004F08BF5FEA81
:10035000500C50F1000041EB045141EA050130BD61
:100360005FEA4C0C404141EB0101013C28BFB1F573
:10037000801FE9D291F0000F04BF01460020B1FABE
:1003800081F308BF2033A3F10B03B3F120020CDA91
:100390000C3208DD02F1140CC2F10C0201FA0CF06F
:1003A00021FA02F10CE002F11402D8BFC2F1200CD4
:1003B00001FA02F120FA0CFCDCBF41EA0C0190408A
:1003C000E41AA2BF01EB0451294330BD6FEA0404D3
:1003D0001F3C1CDA0C340EDC04F11404C4F12002BE
:1003E00020FA04F001FA02F340EA030021FA04F3D0
:1003F00045EA030130BDC4F10C04C4F1200220FA27
:1004000002F001FA04F340EA0300294630BD21FA64
:1004100004F0294630BD94F0000F83F4801306BF2A
:1004200081F480110134013D4EE77FEA645C18BF1E
:100430007FEA655C29D094EA050F08BF90EA020FB5
:1004400005D054EA000C04BF1946104630BD91EAAD
:10045000030F1EBF0021002030BD5FEA545C05D1B0
:100460004000494128BF41F0004130BD14F58004EF
:100470003CBF01F5801130BD01F0004545F0FE4163
:1004800041F470014FF0000030BD7FEA645C1ABF98
:10049000194610467FEA655C1CBF0B46024650EACF
:1004A000013406BF52EA033591EA030F41F40021FB
:1004B00030BD00BF90F0000F04BF0021704730B581
:1004C0004FF4806404F132044FF000054FF0000156
:1004D00050E700BF90F0000F04BF0021704730B517
:1004E0004FF4806404F1320410F0004548BF4042EC
:1004F0004FF000013EE700BF42004FEAE2014FEA41
:1005000031014FEA02701FBF12F07F4393F07F4F1B
:1005100081F06051704732F07F4208BF704793F01E
:100520007F4F04BF41F40021704730B54FF4607431
:1005300001F0004521F000411CE700BF50EA010234
:1005400008BF704730B54FF000050AE050EA0102DD
:1005500008BF704730B511F0004502D5404261EB4D
:1005600041014FF4806404F132045FEA915C3FF48E
:10057000D8AE4FF003025FEADC0C18BF03325FEA2B
:10058000DC0C18BF033202EBDC02C2F1200300FADC
:1005900003FC20FA02F001FA03FE40EA0E0021FA01
:1005A00002F11444BDE600BF70B54FF0FF0C4CF4EF
:1005B000E06C1CEA11541DBF1CEA135594EA0C0FA1
:1005C00095EA0C0F00F0DEF82C4481EA030621EADC
:1005D0004C5123EA4C5350EA013518BF52EA033517
:1005E00041F4801143F4801338D0A0FB02CE4FF0C9
:1005F0000005E1FB02E506F00042E0FB03E54FF0F9
:100600000006E1FB03569CF0000F18BF4EF0010EF0
:10061000A4F1FF04B6F5007F64F5407404D25FEAEC
:100620004E0E6D4146EB060642EAC62141EA55519F
:100630004FEAC52040EA5E504FEACE2EB4F1FD0CE1
:1006400088BFBCF5E06F1ED8BEF1004F08BF5FEA5F
:10065000500E50F1000041EB045170BD06F0004611
:1006600046EA010140EA020081EA0301B4EB5C04BE
:10067000C2BFD4EB0C0541EA045170BD41F48011B6
:100680004FF0000E013C00F3AB8014F1360FDEBFDB
:10069000002001F0004170BDC4F10004203C35DAB7
:1006A0000C341BDC04F11404C4F1200500FA05F33A
:1006B00020FA04F001FA05F240EA020001F00042DB
:1006C00021F0004110EBD37021FA04F642EB060151
:1006D0005EEA430E08BF20EAD37070BDC4F10C047B
:1006E000C4F1200500FA04F320FA05F001FA04F23F
:1006F00040EA020001F0004110EBD37041F100012B
:100700005EEA430E08BF20EAD37070BDC4F1200535
:1007100000FA05F24EEA020E20FA04F301FA05F29D
:1007200043EA020321FA04F001F0004121FA04F245
:1007300020EA020000EBD3705EEA430E08BF20EA15
:10074000D37070BD94F0000F0FD101F0004640004F
:1007500041EB010111F4801F08BF013CF7D041EAD1
:10076000060195F0000F18BF704703F000465200D5
:1007700043EB030313F4801F08BF013DF7D043EAA6
:100780000603704794EA0C0F0CEA135518BF95EA5C
:100790000C0F0CD050EA410618BF52EA4306D1D1E3
:1007A00081EA030101F000414FF0000070BD50EA02
:1007B000410606BF1046194652EA430619D094EA8C
:1007C0000C0F02D150EA013613D195EA0C0F05D176
:1007D00052EA03361CBF104619460AD181EA0301CA
:1007E00001F0004141F0FE4141F470014FF0000082
:1007F00070BD41F0FE4141F4780170BD70B54FF01D
:10080000FF0C4CF4E06C1CEA11541DBF1CEA13559C
:1008100094EA0C0F95EA0C0F00F0A7F8A4EB05047E
:1008200081EA030E52EA03354FEA013100F0888075
:100830004FEA03334FF0805545EA131343EA12633E
:100840004FEA022245EA111545EA10654FEA0026F3
:100850000EF000419D4208BF964244F1FD0404F5AC
:10086000407402D25B084FEA3202B61A65EB030508
:100870005B084FEA32024FF480104FF4002CB6EBC5
:10088000020E75EB030E22BFB61A754640EA0C0045
:100890005B084FEA3202B6EB020E75EB030E22BF85
:1008A000B61A754640EA5C005B084FEA3202B6EBC6
:1008B000020E75EB030E22BFB61A754640EA9C0085
:1008C0005B084FEA3202B6EB020E75EB030E22BF55
:1008D000B61A754640EADC0055EA060E18D04FEA13
:1008E000051545EA16754FEA06164FEAC30343EAB3
:1008F00052734FEAC2025FEA1C1CC0D111F4801F80
:100900000BD141EA00014FF000004FF0004CB6E778
:1009100011F4801F04BF01430020B4F1FD0C88BF17
:10092000BCF5E06F3FF6AFAEB5EB030C04BFB6EB22
:10093000020C5FEA500C50F1000041EB045170BD15
:100940000EF0004E4EEA113114EB5C04C2BFD4EB42
:100950000C0541EA045170BD41F480114FF0000EC6
:10096000013C90E645EA060E8DE60CEA135594EA42
:100970000C0F08BF95EA0C0F3FF43BAF94EA0C0F45
:100980000AD150EA01347FF434AF95EA0C0F7FF4BA
:1009900025AF104619462CE795EA0C0F06D152EA0E
:1009A00003353FF4FDAE1046194622E750EA4106F2
:1009B00018BF52EA43067FF4C5AE50EA41047FF403
:1009C0000DAF52EA43057FF4EBAE12E74FEA410266
:1009D000B2F1E04324BFB3F5001CDCF1FE5C0DD99D
:1009E00001F0004C4FEAC0024CEA5070B2F1004FE7
:1009F00040EB830008BF20F00100704711F0804FEA
:100A000021D113F13872BCBF01F00040704741F4AE
:100A100080114FEA5252C2F11802C2F1200C10FAB2
:100A20000CF320FA02F018BF40F001004FEAC12396
:100A30004FEAD32303FA0CFC40EA0C0023FA02F33A
:100A40004FEA4303CCE77FEA625307D150EA013310
:100A50001EBF4FF0FE4040F44000704701F00040E0
:100A600040F0FE4040F40000704700BF80F00040BE
:100A700002E000BF81F0004142001FBF5FEA410376
:100A800092EA030F7FEA226C7FEA236C6AD04FEA76
:100A90001262D2EB1363C1BFD218414048404140BB
:100AA000B8BF5B42192B88BF704710F0004F40F46D
:100AB000000020F07F4018BF404211F0004F41F489
:100AC000000121F07F4118BF494292EA030F3FD055
:100AD000A2F1010241FA03FC10EB0C00C3F1200368
:100AE00001FA03F100F0004302D5494260EB4000F7
:100AF000B0F5000F13D3B0F1807F06D340084FEA62
:100B0000310102F10102FE2A51D2B1F1004F40EB56
:100B1000C25008BF20F0010040EA030070474900BE
:100B200040EB0000013A28BFB0F5000FEDD2B0FA5B
:100B300080FCACF1080CB2EB0C0200FA0CF0AABF7E
:100B400000EBC25052421843BCBFD040184370471C
:100B500092F0000F81F4000106BF80F40000013222
:100B6000013BB5E74FEA41037FEA226C18BF7FEAF9
:100B7000236C21D092EA030F04D092F0000F08BF3B
:100B80000846704790EA010F1CBF0020704712F022
:100B90007F4F04D1400028BF40F00040704712F161
:100BA00000723CBF00F50000704700F0004343F0C6
:100BB000FE4040F4000070477FEA226216BF0846FC
:100BC0007FEA23630146420206BF5FEA412390EABF
:100BD000010F40F4800070474FF0000304E000BFB5
:100BE00010F0004348BF40425FEA000C08BF704766
:100BF00043F0964301464FF000001CE050EA01022A
:100C000008BF70474FF000030AE000BF50EA01023E
:100C100008BF704711F0004302D5404261EB41012B
:100C20005FEA010C02BF84460146002043F0B64350
:100C300008BFA3F18053A3F50003BCFA8CF2083A75
:100C4000A3EBC25310DB01FA02FC634400FA02FC7E
:100C5000C2F12002BCF1004F20FA02F243EB020085
:100C600008BF20F00100704702F1200201FA02FCE7
:100C7000C2F1200250EA4C0021FA02F243EB0200DA
:100C800008BF20EADC7070474FF0FF0C1CEAD0521E
:100C90001EBF1CEAD15392EA0C0F93EA0C0F6FD0DF
:100CA0001A4480EA010C400218BF5FEA41211ED0BD
:100CB0004FF0006343EA501043EA5111A0FB0131A9
:100CC0000CF00040B1F5000F3EBF490041EAD3717E
:100CD0005B0040EA010062F17F02FD2A1DD8B3F1FA
:100CE000004F40EBC25008BF20F00100704790F069
:100CF000000F0CF0004C08BF49024CEA502040EABB
:100D000051207F3AC2BFD2F1FF0340EAC250704780
:100D100040F400004FF00003013A5DDC12F1190FBE
:100D2000DCBF00F000407047C2F10002410021FA30
:100D300002F1C2F1200200FA02FC5FEA310040F148
:100D4000000053EA4C0308BF20EADC70704792F0C1
:100D5000000F00F0004C02BF400010F4000F013AF9
:100D6000F9D040EA0C0093F0000F01F0004C02BFF4
:100D7000490011F4000F013BF9D041EA0C018FE763
:100D80000CEAD15392EA0C0F18BF93EA0C0F0AD069
:100D900030F0004C18BF31F0004CD8D180EA01008F
:100DA00000F00040704790F0000F17BF90F0004F28
:100DB000084691F0000F91F0004F14D092EA0C0F0A
:100DC00001D142020FD193EA0C0F03D14B0218BF9D
:100DD000084608D180EA010000F0004040F0FE40E3
:100DE00040F40000704740F0FE4040F4400070477F
:100DF0004FF0FF0C1CEAD0521EBF1CEAD15392EAFE
:100E00000C0F93EA0C0F69D0A2EB030280EA010CED
:100E100049024FEA402037D04FF0805343EA111186
:100E200043EA10130CF000408B4238BF5B0042F1E4
:100E30007D024FF4000C8B4224BF5B1A40EA0C0089
:100E4000B3EB510F24BFA3EB510340EA5C00B3EBBB
:100E5000910F24BFA3EB910340EA9C00B3EBD10FA9
:100E600024BFA3EBD10340EADC001B0118BF5FEAFB
:100E70001C1CE0D1FD2A3FF650AF8B4240EBC25024
:100E800008BF20F0010070470CF0004C4CEA5020E5
:100E90007F32C2BFD2F1FF0340EAC250704740F434
:100EA00000004FF00003013A37E792F0000F00F026
:100EB000004C02BF400010F4000F013AF9D040EAA4
:100EC0000C0093F0000F01F0004C02BF490011F438
:100ED000000F013BF9D041EA0C0195E70CEAD15330
:100EE00092EA0C0F08D142027FF47DAF93EA0C0F17
:100EF0007FF470AF084676E793EA0C0F04D14B02FB
:100F00003FF44CAF08466EE730F0004C18BF31F0AC
:100F1000004CCAD130F000427FF45CAF31F00043A6
:100F20007FF43CAF5FE700BF4FF0FF3C06E000BF3F
:100F30004FF0010C02E000BF4FF0010C4DF804CD62
:100F40004FEA40024FEA41037FEA226C18BF7FEA72
:100F5000236C11D001B052EA530C18BF90EA010F74
:100F600058BFB2EB030088BFC81738BF6FEAE17003
:100F700018BF40F0010070477FEA226C02D15FEA9F
:100F8000402C05D17FEA236CE4D15FEA412CE1D00B
:100F90005DF8040B704700BF844608466146FFE7D2
:100FA0000FB5FFF7C9FF002848BF10F1000F0FBDB4
:100FB0004DF808EDFFF7F4FF0CBF012000205DF8AD
:100FC00008FB00BF4DF808EDFFF7EAFF34BF012032
:100FD00000205DF808FB00BF4DF808EDFFF7E0FFCB
:100FE00094BF012000205DF808FB00BF4DF808ED1C
:100FF000FFF7D2FF94BF012000205DF808FB00BF7F
:101000004DF808EDFFF7C8FF34BF012000205DF860
:1010100008FB00BF4FEA4002B2F1FE4F0FD34FF082
:101020009E03B3EB12620DD94FEA002343F0004355
:1010300010F0004F23FA02F018BF404270474FF003
:101040000000704712F1610F01D1420205D110F08A
:10105000004008BF6FF0004070474FF0000070473D
:101060002DE9F047089E0D4604468846002B4DD1D9
:101070008A42944668D9B2FA82F252B101FA02F376
:10108000C2F1200120FA01F10CFA02FC41EA030846
:1010900094404FEA1C41B8FBF1F71FFA8CFE01FBAC
:1010A000178807FB0EF0230C43EA084398420AD93D
:1010B0001CEB030307F1FF3580F01E81984240F2DC
:1010C0001B81023F63441B1AB3FBF1F001FB103399
:1010D00000FB0EFEA4B244EA0344A6450AD91CEB69
:1010E000040400F1FF3380F00981A64540F2068137
:1010F000644402380021A4EB0E0440EA07401EB10C
:101100000023D440C6E90043BDE8F0878B4208D9EC
:10111000002E00F0EE800021C6E900050846BDE87B
:10112000F087B3FA83F100294AD1AB4202D382425D
:1011300000F2FC80841A65EB030301209846002E20
:10114000E2D0C6E90048DFE702B9FFDEB2FA82F278
:10115000002A40F09180A1EB0C0001214FEA1C47CE
:101160001FFA8CFEB0FBF7F307FB1300250C45EAD2
:1011700000450EFB03F0A84208D91CEB050503F15E
:10118000FF3802D2A84200F2CE8043462D1AB5FBAA
:10119000F7F007FB10550EFB00FEA4B244EA05442D
:1011A000A64508D91CEB040400F1FF3502D2A64580
:1011B00000F2B6802846A4EB0E0440EA03409EE706
:1011C000C1F120078B4022FA07FC4CEA030C25FAF8
:1011D00007FA4FEA1C49BAFBF9F820FA07F309FBB2
:1011E00018AA8D401FFA8CFE1D4300FA01F308FB7C
:1011F0000EF02C0C44EA0A44A04202FA01F20BD988
:101200001CEB040408F1FF3A80F08880A04240F211
:101210008580A8F102086444241AB4FBF9F009FBA4
:10122000104400FB0EFEADB245EA0444A64508D9C1
:101230001CEB040400F1FF356CD2A6456AD90238D4
:10124000644440EA0840A0FB0295A4EB0E04AC42C3
:10125000C846AE4656D353D0002E69D0B3EB080231
:1012600064EB0E0422FA01F304FA07F71F43CC40A3
:10127000C6E90074002147E70CFA02FCC2F1200124
:1012800025FA01F34FEA1C4720FA01F195400D437E
:10129000B3FBF7F107FB11331FFA8CFE280C40EA71
:1012A000034001FB0EF3834204FA02F408D91CEB5D
:1012B000000001F1FF382FD283422DD9023960445A
:1012C000C01AB0FBF7F307FB1300ADB245EA0045C7
:1012D00003FB0EF0A84208D91CEB050503F1FF380B
:1012E00016D2A84214D9023B6544281A43EA0141A8
:1012F00038E73146304607E72F46E4E61846F9E678
:101300004B45A9D2B9EB020865EB0C0E0138A3E7F7
:101310004346EAE7284694E74146D1E7D0467BE7D3
:101320006444023847E7023B65442FE7084606E776
:101330003146E9E6704700BF844641EA000313F0F6
:10134000030349D1403A23D30B6803604B684360E1
:101350008B688360CB68C3600B6903614B69436131
:101360008B698361CB69C3610B6A03624B6A436219
:101370008B6A8362CB6AC3620B6B03634B6B436301
:101380008B6B8363CB6BC36340304031403ADBD21D
:1013900030320BD30B6803604B6843608B6883600B
:1013A000CB68C36010301031103AF3D20C3205D341
:1013B00051F8043B40F8043B043AF9D2043208D017
:1013C000D2071CBF11F8013B00F8013B01D30B8889
:1013D00003806046704700BF082A13D38B07B1D043
:1013E00010F00303AED0C3F10403D21ADB071CBF15
:1013F00011F8013B00F8013BA4D331F8023B20F87F
:10140000023B9FE7043AD9D3013A11F8013B00F8B7
:10141000013BF9D20B7803704B7843708B78837063
:10142000604670474FF0FF3C06E000BF4FF0010CF4
:1014300002E000BF4FF0010C4DF804CD4FEA410C23
:101440007FEA6C5C4FEA430C18BF7FEA6C5C1BD0F0
:1014500001B050EA410C0CBF52EA430C91EA030F71
:1014600002BF90EA020F0020704710F1000F91EACE
:10147000030F58BF994208BF90422CBFD8176FEA9C
:10148000E37040F0010070474FEA410C7FEA6C5C6A
:1014900002D150EA013C07D14FEA430C7FEA6C5C71
:1014A000D6D152EA033CD3D05DF8040B704700BF9D
:1014B0008446104662468C461946634600E000BFEB
:1014C00001B5FFF7B7FF002848BF10F1000F01BDBD
:1014D0004DF808EDFFF7F4FF0CBF012000205DF888
:1014E00008FB00BF4DF808EDFFF7EAFF34BF01200D
:1014F00000205DF808FB00BF4DF808EDFFF7E0FFA6
:1015000094BF012000205DF808FB00BF4DF808EDF6
:10151000FFF7CEFF94BF012000205DF808FB00BF5D
:101520004DF808EDFFF7C4FF34BF012000205DF83F
:1015300008FB00BF4FEA410C7FEA6C5C02D150EA25
:10154000013C0AD14FEA430C7FEA6C5C02D152EABB
:10155000033C02D14FF0000070474FF0010070478C
:101560004FEA410212F5001215D211D56FF47873CB
:10157000B3EB625212D94FEAC12343F0004343EA6E
:10158000505311F0004F23FA02F018BF4042704749
:101590004FF00000704750EA013005D111F00040D3
:1015A00008BF6FF0004070474FF00000704700BF69
:1015B00053B94AB9002908BF00281CBF4FF0FF31BA
:1015C0004FF0FF30FFF7B6BEADF1080C6DE904CE69
:1015D000FFF746FDDDF804E0DDE9022304B07047C3
:1015E0002DE9F04188B000240494059406940794F2
:1015F0002E4B9A6942F010029A619A6902F0100229
:101600000092009A9A6942F020029A619A6902F067
:1016100020020192019A9A6942F008029A619A693D
:1016200002F008020292029A9A6942F004029A6158
:101630009B6903F004030393039BDFF8748001228A
:101640004FF48071404600F08DFE1A4D22464FF453
:101650008071284600F086FE4FF4807704970126BB
:10166000059606960323079304A9404600F0CEFC96
:101670000497059602260696079604A9284600F0C8
:10168000C5FC4FF4007304930B4B0593069604A915
:10169000284600F0BBFC22460521172000F06CFB19
:1016A000172000F0A1FB08B0BDE8F0810010024057
:1016B00000080140000C01400000111008B54FF473
:1016C000967003F06BFB4FF48071024800F050FEFF
:1016D000F5E700BF0008014000B587B0142003F013
:1016E0005DFB07F045F80F4B1868FEF705FF044651
:1016F0000D460D4B1868FEF7FFFECDE904010B4BBC
:101700001868FEF7F9FECDE90201094B1868FEF7EB
:10171000F3FECDE9000122462B46064806F0E8FD1F
:10172000DCE700BF80280020902800208C280020C3
:1017300084280020A8ED000800B583B001904FF682
:10174000FF73012201A9034803F03AF8019803B09E
:101750005DF804FBA80A002072B6FEE708B50A4847
:101760000A4B03604FF4E133436000238360C3609E
:1017700003610C2242618361C36102F0F1FF00B991
:1017800008BDFFF7E9FF00BFA80A002000380140AC
:1017900008B50A480A4B03600A4B43600023836084
:1017A000C3604FF48042026143618361C36103629D
:1017B00001F050FA00B908BDFFF7CEFF000A002083
:1017C00000540040A086010008B50A480A4B036097
:1017D0000A4B436000238360C3604FF48042026180
:1017E00043618361C361036201F034FA00B908BD4B
:1017F000FFF7B2FF540A002000580040A086010005
:1018000000B591B02822002106A807F053F9002363
:1018100001930293039304930593012206924FF4DC
:10182000803307930A9202220D920E934FF4E01335
:101830000F9306A802F09AFB80B90F2301930221AF
:101840000291002303934FF480620492059301A850
:1018500002F0BEFD20B911B05DF804FBFFF77CFF7C
:10186000FFF77AFF08B500F03DFAFFF7C9FFFFF771
:10187000B7FEFFF773FFFFF78BFFFFF7A5FFD02041
:1018800006F0CEF903F0CCF9084A0021084803F02D
:101890000FFA084B1860084A0021084803F008FABC
:1018A000074B186003F0DEF9FEE700BFD8ED000833
:1018B000BD160008FC090020FCED0008D916000840
:1018C000F00A002000B583B0114B9A6942F0010282
:1018D0009A619A6902F001020092009ADA6942F074
:1018E0008052DA61DB6903F080530193019B00228F
:1018F0000F216FF0010000F03FFA064A536823F011
:10190000E06343F00073536003B05DF804FB00BF75
:10191000001002400000014010B588B0002304937D
:101920000593069307930368324A934204D0324AE0
:1019300093422FD008B010BD304CA36943F0080388
:10194000A361A36903F008030093009BC0230493E1
:10195000122305930323079304A9294800F056FB9B
:10196000E36943F40013E361E36903F400130193B3
:10197000019B002205211F2000F0FEF91F2000F02E
:1019800033FA00220521202000F0F6F9202000F093
:101990002BFACFE7194CA36943F00803A361A369AD
:1019A00003F008030293029B4FF440630493122355
:1019B00005930323079304A9114800F027FBE3696B
:1019C00043F48003E361E36903F480030393039B1F
:1019D00000220521212000F0CFF9212000F004FA97
:1019E00000220521222000F0C7F9222000F0FCF996
:1019F000A0E700BF00540040005800400010024023
:101A0000000C014010B503681A4A934203D01A4AE9
:101A1000934216D010BD02F5DE32D36923F40013D1
:101A2000D361164C4021204600F010FC8021204656
:101A300000F00CFC1F2000F0E5F9202000F0E2F996
:101A4000E8E702F5DC32D36923F48003D3610B4C61
:101A50004FF48061204600F0F9FB4FF4006120460E
:101A600000F0F4FB212000F0CDF9222000F0CAF9AB
:101A7000D0E700BF0054004000580040000C014077
:101A800030B587B000230293039304930593026853
:101A90001C4B9A4201D007B030BD03F558439A69F8
:101AA00042F480429A619A6902F480420092009A5C
:101AB0009A6942F004029A619B6903F0040301935E
:101AC000019B4FF4007302930223039303230593B6
:101AD0000D4D02A9284600F099FA4FF48063029355
:101AE000002403940123049302A9284600F08EFAEF
:101AF00022460521252000F03FF9252000F074F949
:101B0000C9E700BF0038014000080140FEE7FEE7DA
:101B1000FEE7FEE7FEE7704708B500F0F5F804F0D1
:101B200027FC012800D108BD03F084FBFBE708B5C2
:101B30004FF4007000F026FC08BD000008B5024814
:101B400002F0C6F808BD00BF000A002008B5024830
:101B500002F08EF908BD00BF000A002008B5024857
:101B600002F0B6F808BD00BF540A002008B50248CC
:101B700002F07EF908BD00BF540A002008B50248F3
:101B800002F00AFF08BD00BFA80A0020012070472C
:101B900008B506F065FF162303604FF0FF3008BD5F
:101BA00008B54FF0FF31FFF7F3FFFEE770B50C46C5
:101BB0001646002506E0AFF30080214601F8010B30
:101BC00001350C46B542F6DB304670BD70B50C46AB
:101BD0001646002504E014F8010BFFF7ADFD0135B2
:101BE000B542F8DB304670BD4FF0FF3070474FF420
:101BF00000534B6000207047012070470020704761
:101C000010B503460C4A0D490D48006840B10C4818
:101C100000680344521A934206D8094A136010BD63
:101C20000748084C0460F2E706F01AFF0C23036033
:101C30004FF0FF30F3E700BF00C0002000040000B9
:101C4000F40A00204829002070470000FFF7FCFF3D
:101C50000B480C490C4A002302E0D458C45004330A
:101C6000C4188C42F9D3094A094C002301E01360DF
:101C70000432A242FBD306F0F9FEFFF7F3FD7047F2
:101C800000000020E0090020D4FD0008E009002049
:101C900044290020FEE7000010B504460E4B1878DA
:101CA0004FF47A73B3FBF0F30C4A1068B0FBF3F017
:101CB00000F0BAF868B90F2C01D901200AE000221F
:101CC00021464FF0FF3000F057F8054B1C60002014
:101CD00000E0012010BD00BF040000200000002033
:101CE0000800002008B5074A136843F0100313608A
:101CF000032000F02FF80F20FFF7CEFFFFF7E2FDE3
:101D0000002008BD00200240034A1168034B1B78E5
:101D10000B441360704700BFF80A00200400002045
:101D2000014B1868704700BFF80A002038B5044618
:101D3000FFF7F6FF0546B4F1FF3F02D0044B1B78D6
:101D40001C44FFF7EDFF401BA042FAD338BD00BF93
:101D500004000020074AD36823F4E0631B041B0C33
:101D6000000200F4E060034343F0BF6343F4003338
:101D7000D360704700ED00E000B5194BDB68C3F39A
:101D80000223C3F1070CBCF1040F28BF4FF0040C71
:101D900003F1040EBEF1060F18D9033B4FF0FF3ECE
:101DA0000EFA0CFC21EA0C0199400EFA03F322EA28
:101DB0000303194300280BDB0901C9B200F160409D
:101DC00000F5614080F800135DF804FB0023E5E7AF
:101DD00000F00F000901C9B2024B1954F4E700BF2B
:101DE00000ED00E014ED00E0002807DB00F01F022A
:101DF000400901239340024A42F82030704700BF57
:101E000000E100E000280CDB00F01F024009012384
:101E100093402030034A42F82030BFF34F8FBFF386
:101E20006F8F704700E100E00138B0F1807F0BD286
:101E30004FF0E0235861054AF02182F8231000207A
:101E4000986107221A6170470120704700ED00E099
:101E500090F82130DBB2022B06D0042383630023E9
:101E600080F82030012070470268136823F00E03C9
:101E700013600268136823F001031360036CC16BE5
:101E8000012202FA03F34B6080F82120002380F83E
:101E9000203018467047000008B590F82130DBB2BA
:101EA000022B03D004238363012008BD026813685A
:101EB00023F00E0313600268136823F0010313601C
:101EC00003684C4A93424ED9783A934224D0143254
:101ED000934230D0143293422FD0143293422FD0F9
:101EE000143293422FD0143293422FD014329342A3
:101EF0002FD002F5627293422ED0143293422DD02D
:101F0000143293422CD01432934202D04FF48032D8
:101F100003E04FF4805200E00122374B5A60012366
:101F200080F82130002380F82030436B002B5ED0F6
:101F300098470020B9E71022EFE74FF48072ECE7F2
:101F40004FF48052E9E74FF48032E6E74FF4801215
:101F5000E3E74FF08072E0E70122DEE71022DCE7E2
:101F60004FF48072D9E7254A934224D01432934229
:101F700025D01432934224D01432934224D0143208
:101F8000934224D01432934224D01432934224D06A
:101F900002F56272934223D01432934222D014325B
:101FA000934221D01432934202D04FF4803203E0A6
:101FB0004FF4805200E00122114B5A60AFE710222B
:101FC000FAE74FF48072F7E74FF48052F4E74FF4EA
:101FD0008032F1E74FF48012EEE74FF08072EBE7CA
:101FE0000122E9E71022E7E74FF48072E4E70020DE
:101FF0005BE700BF8000024000040240080002408E
:102000000000024090F821007047000070B582B0D7
:102010000024A446B0E0874DAA4210D007D9864DCF
:10202000AA420CD005F58035AA4208D013E0A5F5E8
:102030008015AA4203D005F57025AA4207D18A6807
:10204000002A62D0012A5BD04361082403E0A5F591
:102050008015AA42F3D0BEF1FF0F58D80646BEF154
:10206000FF0F56D84FEA8C0233680F25954023EABC
:10207000050304FA02F2134333604B6813F0805FE8
:1020800078D06E4B9A6942F001029A619B6903F025
:1020900001030193019B4FEA9C02951C684B53F886
:1020A00025600CF003039D000F23AB4026EA0306D6
:1020B000644B984233D003F58063984200F09880D7
:1020C00003F58063984200F0958003F580639842A1
:1020D00000F0928003F58063984200F08F8003F552
:1020E0008063984219D006231AE0CC68B3E7CC6825
:1020F0000434B0E7CC680834ADE7CC680C34AAE708
:1021000003610824A7E70024A5E70424A3E7061D2C
:10211000A5E7ACF108029200A6E7052300E0002342
:10212000AB4033430232464D45F822304B6813F43E
:10213000801F65D0444A936843EA0E0393604B685E
:1021400013F4001F62D0404AD36843EA0E03D36001
:102150004B6813F4003F5FD03B4A536843EA0E03D9
:1021600053604B6813F4803F5CD0374A136843EAEE
:102170000E0313600CF1010C0A6832FA0CF357D00D
:10218000012303FA0CF302EA030E33EA0202F1D14F
:102190004A68122A3FF63FAF122A3FF65CAF01A50C
:1021A00055F822F03F200008EB200008F520000839
:1021B0000721000857200008572000085720000872
:1021C0005720000857200008572000085720000813
:1021D0005720000857200008572000085720000803
:1021E0005720000857200008EF200008FB200008B7
:1021F000012395E7022393E7032391E704238FE765
:10220000114A936823EA0E03936098E70E4AD36855
:1022100023EA0E03D3609BE70B4A536823EA0E03BD
:1022200053609EE7084A136823EA0E031360A1E790
:1022300002B070BD000022100000311000100240FA
:10224000000001400008014000040140002279E044
:10225000052500E0002505FA04F464454ED0FF2B67
:1022600067D80646FF2B66D8950034684FF00F0EEE
:102270000EFA05FE24EA0E044FF0040C0CFA05FCDD
:1022800044EA0C043460C46824EA0303C3600132E6
:1022900031FA02F354D0012393400B40F7D04FEAB8
:1022A000920E0EF102052C4C54F8255002F0030456
:1022B000A4000F26A64006EA050C284DA842C9D066
:1022C00005F58065A84211D005F58065A8420FD0BC
:1022D00005F58065A8420DD005F58065A8420BD0B4
:1022E00005F58065A842B3D00625B4E70125B2E71D
:1022F0000225B0E70325AEE70425ACE7184C2568B6
:1023000025EA03052560656825EA03056560E5683B
:1023100025EA0305E560A56825EA0305A5600E4FDB
:102320000EF1020457F8245025EA060647F8246007
:1023300095E7061D96E7A2F1080C4FEA8C0594E795
:10234000F0BD013231FA02F305D0012393400B4076
:10235000F7D0F0B5A3E77047000001400008014046
:10236000000401400AB1016170470904016170472E
:10237000C36801EA030221EA030141EA0241016163
:102380007047704708B5054B5B69034200D108BD33
:10239000024B5861FFF7F5FFF9E700BF0004014069
:1023A00003685A6912F0800F01D000221A61704749
:1023B00090F83E30DBB2402B10D00369B3F5804F6C
:1023C0001BD0036D002B39D1436CC3F3C8130268D3
:1023D00003F0060343F0F00313617047036D2BB95C
:1023E000436C026803F0FE0313617047436C02689C
:1023F00043F00103DBB21361704790F83D30DBB26C
:10240000212B0FD0436C026843F00103DBB2136150
:10241000436B6BB19B6A5BB10268536843F4006322
:1024200053607047436C026803F0FE031361EFE7EB
:10243000836B33B19B6A002BEED102E0036D012B5D
:1024400000D07047436CC3F3C813026803F006035F
:1024500043F0F1031361F4E7436C0268DBB21361EC
:10246000436B3BB19B6A2BB10268536843F4006332
:1024700053607047836B002BFBD09B6A002BF3D11A
:10248000F7E710B48DB090F83E30DAB2C16A046B51
:1024900090F83D30DBB2222B0AD000230B93036867
:1024A0005A690B929B690B930B9B0DB010BC704744
:1024B000036D0BB9402A17D0036D1BB90369B3F53F
:1024C000404F19D0438D9BB2002B25D10393036855
:1024D0005A6903929A690392039A1A6842F4007245
:1024E0001A6000230365E0E7019303685A690192CB
:1024F0009B690193019BD8E70023029303685A6903
:1025000002929A690292029A1A6842F480721A60E0
:10251000036D01330365C8E7438D9BB2012B25D0C2
:10252000438D9BB2022B7BD00268136843F4806317
:10253000136003685A6812F4006F0ED011F5803FE3
:1025400007D0012905D0082903D0102901D020295E
:1025500003D15A6842F480525A6000230A930368F8
:102560005A690A929B690A930A9BBAE711F5803F60
:1025700011D0082934D0202932D0122C2ED0042991
:1025800040D002293ED010293CD00268136823F4C1
:10259000806313603BE00268136823F48063136078
:1025A00003685A6812F4006F0CD01A6822F4806233
:1025B0001A600023049303685A6904929B69049388
:1025C000049B8EE7002205925A6905929A6905924A
:1025D000059A1A6842F400721A6082E70129CED087
:1025E0000268136823F48063136000230793036871
:1025F0005A6907929A690792079A1A6842F4007218
:102600001A606EE70268136843F480631360002366
:10261000069303685A6906929B690693069B60E7D6
:10262000042915D0022913D0102911D0026813688B
:1026300043F4006313600023089303685A69089207
:102640009A690892089A1A6822F480621A600CE06B
:102650000268136843F480631360002309930368DE
:102660005A6909929B690993099B03685A6812F495
:10267000006F3FF436AF11F5803F08D0012906D036
:10268000082904D0102902D020297FF42AAF5A68E3
:1026900042F480525A6024E7438D9BB25BB1426A98
:1026A000036812781A61436A01334362438D9BB217
:1026B000013B9BB243857047438D9BB25BB103687E
:1026C0001A69436A1A70436A01334362438D9BB2AD
:1026D000013B9BB24385704782B0002301930E4BB0
:1026E0001B68DB080D4AA2FB03231B0A03EB8303D1
:1026F0000193019B013B0193019B33B103681B686C
:1027000013F4007FF5D1002004E0036C43F02003B4
:102710000364012002B070470000002089B5F8145E
:1027200003685A6912F4806F01D1002070476FF47A
:1027300080625A6100230363202280F83D2080F8E4
:102740003E30026C42F00402026480F83C3001200A
:102750007047C36AB3F52A0F04D0C36AB3F12A4F96
:1027600003D070470123C36270470823C362F8E7B0
:102770002DE9F04106460C46174698463BE0FFF728
:10278000CFFA069BC01A404502D8B8F1000F32D1EB
:10279000012D18D033689B6924EA03039BB2B3FA76
:1027A00083F35B099F4226D100233363202286F8FE
:1027B0003D2086F83E30326C42F02002326486F8CA
:1027C0003C30012027E033685B6924EA03039BB2B5
:1027D000B3FA83F35B09E5E733685B6924EA030C2A
:1027E0001FFA8CFCBCFA8CFC4FEA5C1C674511D1CB
:1027F000B8F1FF3FC3D1C4F30745012DECD03368D6
:102800009B6924EA030C1FFA8CFCBCFA8CFC4FEA8F
:102810005C1CEBE70020BDE8F0812DE9F84305469C
:102820000E469046994653E01A6842F400721A60C8
:102830002B686FF480625A6100232B63202285F895
:102840003D2085F83E302A6C42F004022A6485F867
:102850003C3001204AE0FFF763FAA0EB0900404555
:1028600002D8B8F1000F33D1012F17D02B689B6924
:1028700026EA03039BB2003B18BF012343B30023A6
:102880002B63202285F83D2085F83E302A6C42F0EB
:1028900020022A6485F83C30012027E02B685B6920
:1028A00026EA03039BB2003B18BF0123E6E72B682F
:1028B0009C6926EA0404A4B2003C18BF0124A4B118
:1028C0002B685A6912F4806FAED1B8F1FF3FC2D1C4
:1028D000C6F30747012FEAD12B685C6926EA040496
:1028E000A4B2003C18BF0124E9E70020BDE8F8834A
:1028F00070B504460D46164623685B6913F0800FD9
:1029000021D12046FFF70CFFF8B9B5F1FF3FF3D016
:10291000FFF706FA801BA84201D8002DECD12368EE
:102920005B6913F0800FE7D100232363202284F832
:102930003D2084F83E30226C42F02002226484F86C
:102940003C30012000E0002070BD0120FCE70000C9
:102950002DE9F04385B004460D4691461F46DDF84B
:1029600030800D9E0368196841F4807119600096EB
:10297000434600224FF00111FFF7FAFE60B92368C9
:1029800005F0FE051D613346424626492046FFF705
:1029900044FF68B1012008E023681B6813F4807FBE
:1029A00002D04FF400732364032005B0BDE8F08328
:1029B0000023039323685A6903929B690393039B43
:1029C000324641462046FFF793FF30B9012F0FD121
:1029D00023685FFA89F61E61E7E7236C042B01D0B8
:1029E0000120E2E72268136843F400731360F7E7FD
:1029F00023684FEA19221A61324641462046FFF702
:102A000077FF20B923685FFA89F61E61CDE7236C52
:102A1000042B01D00120C8E72268136843F4007337
:102A20001360F7E7020001002DE9F04784B0044687
:102A30000D46164699460C9FDDF8348002681368EF
:102A400043F4806313600368196841F4807119606E
:102A5000CDF800803B4600224FF00111FFF788FEC1
:102A600070B95FFA85FA236805F0FE051D614346DB
:102A70003A4641492046FFF7D0FE68B1012008E000
:102A800023681B6813F4807F02D04FF40073236423
:102A9000032004B0BDE8F0870023039323685A693C
:102AA00003929B690393039B424639462046FFF7F6
:102AB0001FFF80B9B9F1010F18D12368F6B21E616A
:102AC000424639462046FFF713FF68B3236C042BB8
:102AD00024D00120DDE7236C042B01D00120D8E7AE
:102AE0002268136843F400731360F7E72368320A1F
:102AF0001A61424639462046FFF7FAFE18B92368A4
:102B0000F6B21E61DCE7236C042B01D00120C0E784
:102B10002268136843F400731360F7E722681368B0
:102B200043F400731360D4E72268136843F480739E
:102B30001360CDF800803B4600224FF00111204683
:102B4000FFF716FE68B922684AF001031361434695
:102B50003A4609492046FFF760FE002899D0012037
:102B600097E723681B6813F4807F02D04FF400734B
:102B7000236403208DE700BF0200010070B5044606
:102B80000D46164623685B6913F0040F21D12046D9
:102B9000FFF7C6FDF8B9B5F1FF3FF3D0FFF7C0F876
:102BA000801BA84201D8002DECD123685B6913F08B
:102BB000040FE7D100232363202284F83D2084F80A
:102BC0003E30226C42F02002226484F83C30012026
:102BD00000E0002070BD0120FCE770B504460D4602
:102BE000164614E06FF010025A610023236320227E
:102BF00084F83D2084F83E30226C226484F83C3016
:102C0000012025E023685B6913F0400F10D0236892
:102C1000586910F0400F1AD1586910F0100FE1D127
:102C2000FFF77EF8801BA842ECD8002DEFD1E9E732
:102C300000232363202284F83D2084F83E30226C58
:102C400042F02002226484F83C30012000E00020A1
:102C500070BD0000002800F0CC8070B5044690F8EC
:102C60003D30002B77D0242384F83D302268136850
:102C700023F0010313602268136843F400431360D8
:102C80002268136823F40043136001F05DFC62685E
:102C90005A4B9A4264D85A4B98428CBF0023012366
:102CA000002B40F0A8805749A1FB00318B0C256810
:102CB0006A6822F03F0242EA91426A6021680A6A29
:102CC00022F03F0266684D4DAE424FD801331343A8
:102CD0000B622168CA6922F44F4222F0FF02666843
:102CE000464B9E424CD8431E7600B3FBF6F30133AD
:102CF00040F6FC70034278D0C3F30B031343CB615F
:102D000021680B6823F0C003E269206A0243134381
:102D10000B6021688B6823F4034323F0FF032269CF
:102D2000E068024313438B602168CB6823F0FF0304
:102D30006269A06902431343CB602268136843F0C1
:102D40000103136000202064202384F83D302063B9
:102D500084F83E0070BD80F83C30FEF7DDFD82E770
:102D6000294B98428CBF0023012399E74FF49675B5
:102D700005FB03F3254DA5FB03539B090133A6E790
:102D8000A368BBB9451E06EB460CB5FBFCF5013547
:102D9000C5F30B05B5FA85F56D0945BBC3B9013817
:102DA00006EB4603B0FBF3F30133C3F30B0343F429
:102DB0000043A3E7451E06EB860C0CEB8C0CB5FB21
:102DC000FCF50135C5F30B05B5FA85F56D09E4E7AA
:102DD000013806EB860303EB8303B0FBF3F3013307
:102DE000C3F30B0343F4404388E7042386E701233E
:102DF00084E7012070470120ACE700BFA0860100F6
:102E00007F841E0083DE1B43FF083D00D34D62100C
:102E1000A8B110B50446242380F83D300268136839
:102E200023F001031360FEF7EDFD0020206484F819
:102E30003D00206384F83E0084F83C0010BD012072
:102E4000704700002DE9F04383B004460F469046DA
:102E500099460C9EFEF764FF054694F83D00C0B20B
:102E6000202803D0022003B0BDE8F0830095192389
:102E700001224B492046FFF77BFC002840F0898067
:102E800094F83C30012B00F08680012384F83C301C
:102E900023681A6812F0010F03D11A6842F0010288
:102EA0001A602268136823F400631360212384F8F6
:102EB0003D30402384F83E30002323640A9B636244
:102EC000BDF82C306385638D2385364BE362019515
:102ED00000964B46424639462046FFF739FD00280A
:102EE0005BD1238D002B35D02A4631462046FFF793
:102EF000FFFC20BB626A236812781A61626A531C65
:102F00006362218D013989B22185638D9BB2013BBA
:102F10009BB263852368586910F0040FE1D0002943
:102F2000DFD052781A61636A01336362238D013BFB
:102F30002385638D9BB2013B9BB26385D1E7236CF4
:102F4000042B01D001208EE72268136843F400733C
:102F50001360F7E72A4631462046FFF70FFE50B1CF
:102F6000236C042B01D001207DE72268136843F411
:102F700000731360F7E72268136843F4007313606B
:102F8000202384F83D30002384F83E3084F83C3020
:102F900069E7022067E7022065E7012063E700BFD9
:102FA000020010000000FFFF2DE9F04389B0044645
:102FB0000F4690469946129E00230793FEF7B0FEF7
:102FC000054694F83D00C0B2202804D002273846B8
:102FD00009B0BDE8F08300951923012281492046FC
:102FE000FFF7C6FB002840F0728194F83C30012BBB
:102FF00000F06F81012384F83C3023681A6812F0D6
:10300000010F03D11A6842F001021A6022681368A6
:1030100023F400631360222384F83D30402384F8B6
:103020003E3000232364109B6362BDF84430638507
:10303000638D23856C4BE362019500964B464246B7
:1030400039462046FFF7F0FC0746002840F0438150
:10305000238D5BB9039323685A6903929A6903929B
:10306000039A1A6842F400721A60EDE0012B0FD047
:10307000022B21D02268136843F48063136000237D
:10308000069323685A6906929B690693069BDBE0C8
:103090002268136823F48063136072B600230493DC
:1030A00023685A6904929A690492049A1A6842F44D
:1030B00000721A6062B6C7E02268136843F40063C6
:1030C000136072B60023059323685A6905929A69C2
:1030D0000592059A1A6822F480621A6062B6B3E01B
:1030E0002A4631462046FFF778FD002840F0F5805B
:1030F00023681A69636A1A70636A01336362238DF5
:10310000013B2385638D9BB2013B9BB263859BE0B2
:1031100000953346002235492046FFF729FB002859
:1031200040F0DF802268136823F48063136072B676
:1031300023681A69636A1A70636A01336362238DB4
:10314000013B2385638D9BB2013B9BB26385284B7A
:103150001B68DB08274AA2FB03231B0A03EB83033C
:10316000C3EBC3030793079B013B0793079B002B0C
:1031700028D023685A6912F0040FF4D01A6842F478
:1031800000721A6023681A69636A1A70636A0133ED
:103190006362238D013B2385638D9BB2013B9BB210
:1031A000638562B623681A69636A1A70636A0133B9
:1031B0006362238D013B2385638D9BB2013B9BB2F0
:1031C000638541E02363202284F83D2084F83E306B
:1031D000226C42F02002226462B684F83C3001275F
:1031E000F5E600BF020010000000FFFF0400010030
:1031F0000000002089B5F8142A4631462046FFF722
:10320000ECFC00286FD123681A69636A1A70626A3D
:10321000531C6362238D013B2385638D9BB2013B6D
:103220009BB263852368596911F0040F0CD01B69A8
:103230005370636A01336362238D013B2385638D81
:103240009BB2013B9BB26385238D002B36D0032BB1
:10325000D2D8012B3FF444AF022B7FF459AF009535
:103260003346002221492046FFF782FA002836D152
:1032700072B62268136843F40073136023681A69F6
:10328000636A1A70636A01336362238D013B23858D
:10329000638D9BB2013B9BB2638562B623681A695A
:1032A000636A1A70636A01336362238D013B23856D
:1032B000638D9BB2013B9BB26385C5E7202384F8F5
:1032C0003D30002384F83E3084F83C307FE602270E
:1032D0007DE602277BE6012779E6012777E60127CD
:1032E00075E6012773E6012771E600BF04000100BF
:1032F00070477047704708B590F83D30DAB2438D9B
:103300009BB283B1416A036809781961436A01334A
:103310004362438D9BB2013B9BB24385438D9BB27D
:103320000BB9292A00D008BD0268536823F48063D2
:10333000536021230363282380F83D30FFF7DAFF31
:10334000F1E7704708B590F83D30DAB2438D9BB293
:1033500083B103681969436A1970436A0133436290
:10336000438D9BB2013B9BB24385438D9BB20BB90E
:103370002A2A00D008BD0268536823F48063536092
:1033800022230363282380F83D30FFF7DAFFF1E7BB
:10339000704700B583B090F83D3003F02803282B28
:1033A0000CD0002301930268516901919269019246
:1033B000019A80F83C3003B05DF804FB0268536862
:1033C00023F48063536011F0040F0BD0002311F03D
:1033D000800F09D18289002180F83C101946FFF73F
:1033E000D7FFE8E70123F2E7028BF4E7704700001C
:1033F00010B5044690F83D30DBB2C26A082A01D00D
:10340000202A01D1282B06D0212B1FD023686FF44E
:1034100080625A6110BD1D4BE3622268536823F439
:10342000E063536023686FF480625A612268136816
:1034300023F48063136000232363202284F83D205B
:1034400084F83E302046FFF7D1FFE3E70F4BE362FD
:1034500021232363202384F83D30002384F83E3069
:103460002268536823F4E063536023686FF480623A
:103470005A612268136823F4806313602046FEF7C4
:103480008FFF2046FFF736FFC4E700BF0000FFFFB5
:10349000704708B5C26A90F83D30DBB2212B00D0EE
:1034A00008BD438D9BB263B1426A036812781A610A
:1034B000436A01334362438D9BB2013B9BB2438518
:1034C000EEE7082A04D0202A02D012F5803F19D155
:1034D0000268536823F4E06353600268136843F49E
:1034E0000073136000230363202380F83D3090F8BD
:1034F0003E30DBB2402B15D0002380F83E30FFF782
:10350000F7FECDE70268536823F4E06353601123AC
:103510000363002380F83E30202380F83D30FFF71E
:10352000E7FEBDE7002380F83E30FFF7B1FFB7E7C5
:1035300008B590F83D30026D9AB9C36C012B08D0E4
:10354000836CC3F3072302681361036D01330365C2
:1035500008BD836C0268DBB21361036D023303653F
:10356000F6E7DBB2026D012A23D0026D022A3ED1BA
:10357000222B26D0428D92B20AB1212B2AD0428D25
:1035800092B2002AE4D1212BE2D10268536823F4DD
:10359000E06353600268136843F400731360002310
:1035A0000363202280F83D2080F83E30FFF770FF53
:1035B000CEE7836C0268DBB21361036D01330365F0
:1035C000C6E70268136843F480731360036D013328
:1035D0000365BDE7426A036812781A61436A0133E2
:1035E0004362438D9BB2013B9BB24385B0E7FEF73C
:1035F000D7FEADE710B590F83D30DBB290F83E2035
:10360000D2B2C46A018D09B9212B04D0212B3BD041
:10361000402A37D010BD082C04D0202C02D014F53D
:10362000803F19D10268536823F4E0635360026855
:10363000136843F40073136000230363202380F8AE
:103640003D3090F83E30DBB2402B15D0002380F89F
:103650003E30FFF74DFEDDE70268536823F4E06378
:10366000536011230363002380F83E30202380F849
:103670003D30FFF73DFECDE7002380F83E30FFF7F9
:1036800007FFC7E7222BC5D1438D9BB22BB9026838
:10369000536823F480635360BCE790F83E30DBB29C
:1036A000402B0CD0426A036812781A61436A0133D6
:1036B0004362438D9BB2013B9BB24385AAE7FFF770
:1036C00037FFA7E7704708B5C26A438D9BB2042B4A
:1036D00014D0438D9BB2032B22D0438D9BB2022B7F
:1036E00039D003681A69436A1A70436A0133436226
:1036F000438D9BB2013B9BB2438510E00268536847
:1037000023F48063536003681A69436A1A70436A3A
:1037100001334362438D9BB2013B9BB2438508BD9D
:1037200001684B6823F480634B60042A06D0022AA8
:1037300004D00268136823F48063136003681A6975
:10374000436A1A70436A01334362438D9BB2013B63
:103750009BB24385E3E7012A0BD0102A09D0042A43
:1037600038D0022A36D00268136843F4007313601D
:1037700004E00268136823F48063136003681A6925
:10378000436A1A70426A531C4362438D9BB2013BE9
:103790009BB2438503681B695370436A01334362DC
:1037A000438D9BB2013B9BB243850268536823F46F
:1037B00040735360202380F83D3090F83E30DBB2F8
:1037C000402B0DD0002380F83E3012230363FFF717
:1037D00090FDA4E70268136843F480631360CDE7AB
:1037E000002380F83E300363FFF76CFF97E77047D4
:1037F00090F83D30DBB2222B00D0704710B5044664
:10380000438D9BB2032B15D903681A69436A1A705A
:10381000436A01334362438D9BB2013B9BB24385B4
:10382000438D9BB2032B0FD10268536823F480634E
:10383000536009E0C26A022A01D0012B05D922682F
:10384000536823F48063536010BDFEF745FF0028E2
:103850002ED12268136823F48063136022685368B2
:1038600023F4E063536023681A69636A1A70636A19
:1038700001336362638D9BB2013B9BB2638520235E
:1038800084F83D3094F83E30DBB2402B08D0002362
:1038900084F83E30122323632046FFF72AFDD3E746
:1038A000002384F83E3023632046FFF70BFFCBE76D
:1038B0002268536823F4E063536023681A69636ADB
:1038C0001A70636A01336362638D9BB2013B9BB2E2
:1038D0006385202384F83D30002384F83E30204661
:1038E000FFF785FFB0E7704700B583B00023019371
:1038F000406A90F83D20D2B2324B1B68DB08324957
:10390000A1FB03131B0A03EB8303C3EBC303019364
:10391000019B43B1019B013B019303681B6813F4B6
:10392000007FF5D103E0036C43F020030364436B95
:103930000BB100219962836B0BB100219962016880
:103940000B6823F480630B6000234385436B0BB14A
:1039500000215963836B0BB10021596301680B6827
:1039600023F001030B6090F83D30DBB2602B0ED0EA
:1039700002F02802282A14D0202380F83D300023AA
:1039800080F83E30FFF733FF03B05DF804FB2023DF
:1039900080F83D30002380F83E300364FFF7A3FF3A
:1039A000F2E70268136843F00103136002681368CA
:1039B00043F48063136000230363282380F83D30C1
:1039C000E0E700BF0000002089B5F81410B50446F8
:1039D00090F83D30DBB290F83E20D2B2102A36D0BB
:1039E000402A34D003F02802282A38D022685268AE
:1039F00012F4006F07D1602B05D0202384F83D30EE
:103A0000002384F83E300023236323685A6812F4AD
:103A1000006F48D05A6822F400625A60626B92F8D4
:103A20002130DBB2012B20D0444B5363606BFEF797
:103A300033FA002849D02268136823F00103136089
:103A4000202384F83D30606B436B98473DE0222B88
:103A5000C8D121680A6822F400620A60C2E7002324
:103A60002363282384F83D30CFE7A36B334A5A639E
:103A7000A06BFEF711FA40B323685A6912F0400FA9
:103A800005D01A69636A1A70636A01336362226837
:103A9000136823F001031360202384F83D30A06BEA
:103AA000436B984711E094F83D20D2B2602A1FD0B2
:103AB0005A6912F0400F05D01A69636A1A70636A76
:103AC000013363622046FFF792FE236C13F00F0F61
:103AD00004D02268536823F4E063536094F83D30C7
:103AE000DBB2226C12F0040F01D0282B18D010BDCD
:103AF000202284F83D20002222645A6912F0400FEF
:103B000005D01A69636A1A70636A013363622268B6
:103B1000136823F0010313602046FFF7E4FED4E7A7
:103B2000074BE36200232363202284F83D2084F8BE
:103B30003E302046FFF75AFCD9E700BFE9380008BD
:103B40000000FFFF30B583B0044690F83D50EDB261
:103B50000268536823F4E063536000230193036811
:103B60005A6901921A6842F001021A60019B0268C8
:103B7000136823F48063136003685A6812F4006FBB
:103B800038D0222D21D02A2D1FD0426B12685268C6
:103B900092B24285428D92B21AB1026C42F0040296
:103BA00002645A6822F400625A60606BFEF72AFAD7
:103BB00001281FD0636B444A5A63606BFEF76CF9AF
:103BC000C0B1606B436B984714E0A26B12685268F7
:103BD00092B26285628D92B21AB1226C42F00402F6
:103BE00022645A6822F400625A60A06BFEF70AFA57
:103BF000012842D1638D9BB233B323685A6912F016
:103C0000040F0AD01A69636A1A70636A0133636227
:103C1000638D9BB2013B9BB2638523685A6912F0A6
:103C2000400F0AD01A69636A1A70636A01336362CB
:103C3000638D9BB2013B9BB26385638D9BB21BB1CD
:103C4000236C43F004032364236C13BB2A2D25D07B
:103C500094F83D30DBB2282B29D0236B222B01D0E6
:103C6000222D19D100232363202284F83D2084F8DB
:103C70003E302046FFF765FB0EE0A36B124A5A6305
:103C8000A06BFEF709F90028B4D0A06B436B9847EE
:103C9000B0E72046FFF79AFE03B030BD0023236350
:103CA000282384F83D302046FFF74BFBD0E7074B35
:103CB000E36200232363202284F83D2084F83E3011
:103CC0002046FFF793FBE7E7E93800080000FFFF15
:103CD000F8B5044602685568C66A90F83E30DBB213
:103CE00090F83D10C8B2102B13D0402B11D0236C8C
:103CF000002B7AD05369002113F0020F78D015F40D
:103D0000007F75D0236C03B191692046FFF741FB1A
:103D1000F8BDD2F818C0516911F0010705D1B6F508
:103D20002A0FF5D0B6F12A4FF2D017B115F4007F63
:103D300029D111F0080F02D015F4007F2AD111F01B
:103D4000020F02D015F4007F28D11CF0040F31D0EF
:103D5000526812F4006FDBD111F0800F05D015F41A
:103D6000806F02D011F0040F1CD011F0040FCFD0DF
:103D700015F4007FCCD0212818D0402BC8D1204684
:103D8000FFF7D6FBC4E72046FEF7E3FC2046FEF72C
:103D90000FFBBDE72046FEF75FFBB9E72046FEF7C5
:103DA00070FBB5E72046FFF725FCB1E72046FFF79B
:103DB00070FBADE7536813F4006FA9D111F0400F09
:103DC00005D015F4806F02D011F0040F09D011F066
:103DD000040F9DD015F4007F9AD02046FFF773FCA6
:103DE00096E72046FFF704FD92E79169536983E760
:103DF00013F0100F02D015F4007F18D121281AD02B
:103E0000292818D013F0400F05D015F4806F02D088
:103E100013F0040F28D013F0040F3FF479AF15F41A
:103E2000007F3FF475AF2046FEF746FC70E7204662
:103E3000FFF788FE6CE713F0800F05D015F4806F54
:103E400002D013F0040F0BD013F0040F3FF460AF57
:103E500015F4007F3FF45CAF2046FEF71DFC57E7EA
:103E60002046FFF748FA53E72046FFF76BFA4FE783
:103E7000F8B5044603685D695F6890F83E20D2B2E9
:103E800015F4807F0CD017F4807F41D06FF48071DF
:103E9000596101680B6843F400430B60012600E0A0
:103EA000002615F4007F08D017F4807F05D046F077
:103EB000020623686FF40071596115F4806F19D000
:103EC00017F4807F16D0638D99B294F83D30DBB241
:103ED000206B202A1ED023686FF48061596146F060
:103EE0000406102A01D0402A04D12268136843F442
:103EF0000073136015F4006F08D017F4807F05D0AD
:103F000046F0080623686FF400625A6186B9F8BD6E
:103F10000026C6E70029DED1212B05D0292B03D0AE
:103F2000282BD8D12128D6D12046FFF761FAE1E726
:103F3000236C1E4326642046FFF748FDE7E7000098
:103F400082B0084B1B68084AA2FB03235B0A00FBF4
:103F500003F3019300BF019B5A1E0192002BF9D17C
:103F600002B0704700000020D34D6210002800F01E
:103F7000F18170B582B00446036813F0010F2CD0B4
:103F8000994B5B6803F00C03042B1DD0964B5B68C8
:103F900003F00C03082B12D06368B3F5803F41D0C7
:103FA000002B55D103F1804303F504331A6822F442
:103FB00080321A601A6822F480221A6037E08A4B35
:103FC0005B6813F4803FE7D0874B1B6813F4003F16
:103FD00003D06368002B00F0BF81236813F0020F49
:103FE00075D0814B5B6813F00C0F5FD07E4B5B6824
:103FF00003F00C03082B54D02369002B00F08A80B7
:104000007A4B01221A60FDF78BFE0546764B1B6842
:1040100013F0020F75D1FDF783FE401B0228F5D97E
:1040200003209EE1704A136843F480331360636891
:1040300043B3FDF775FE05466B4B1B6813F4003F59
:10404000CBD1FDF76DFE401B6428F5D9032088E134
:10405000B3F5A02F09D0644B1A6822F480321A609D
:104060001A6822F480221A60E1E703F18043A3F585
:104070003C331A6842F480221A601A6842F4803293
:104080001A60D4E7FDF74CFE0546574B1B6813F446
:10409000003FA2D0FDF744FE401B6428F5D9032061
:1040A0005FE1514B5B6813F4803FA5D14E4B1B6819
:1040B00013F0020F03D02369012B40F04F814A4ACD
:1040C000136823F0F803616943EAC10313602368AE
:1040D00013F0080F33D0A369002B5CD0434B0122AF
:1040E000C3F88024FDF71CFE05463F4B5B6A13F0C6
:1040F000020F21D1FDF714FE401B0228F5D9032041
:104100002FE1394A136823F0F803616943EAC103D8
:104110001360DCE7354B00221A60FDF701FE05460F
:10412000314B1B6813F0020FD1D0FDF7F9FD401B96
:104130000228F5D9032014E10120FFF701FF2368CD
:1041400013F0040F00F09680274BDB6913F0805FBB
:1041500034D1254BDA6942F08052DA61DB6903F031
:1041600080530193019B0125214B1B6813F4807F31
:1041700026D0E368012B3DD0002B53D103F18043BF
:1041800003F504331A6A22F001021A621A6A22F055
:1041900004021A6233E0154B0022C3F88024FDF7B5
:1041A000BFFD0546104B5B6A13F0020FC7D0FDF749
:1041B000B7FD401B0228F5D90320D2E00025D3E744
:1041C0000B4A136843F480731360FDF7A9FD06469C
:1041D000074B1B6813F4807FCBD1FDF7A1FD801B3B
:1041E0006428F5D90320BCE00010024000004242E0
:1041F000007000405F4A136A43F001031362E368F2
:1042000033B3FDF78DFD06465A4B1B6A13F0020FC0
:104210002FD1FDF785FD801B41F288339842F3D9F9
:1042200003209EE0052B09D0524B1A6A22F00102AE
:104230001A621A6A22F004021A62E0E74D4B1A6A07
:1042400042F004021A621A6A42F001021A62D6E7C8
:10425000FDF766FD0646474B1B6A13F0020F08D0B8
:10426000FDF75EFD801B41F288339842F3D90320AD
:1042700077E0E5B9E369002B72D03E4A526802F05C
:104280000C02082A56D0022B17D03B4B00221A668C
:10429000FDF746FD0446374B1B6813F0007F47D0FF
:1042A000FDF73EFD001B0228F5D9032059E0314AF5
:1042B000D36923F08053D361DCE72F4B00221A66C9
:1042C000FDF72EFD05462B4B1B6813F0007F06D033
:1042D000FDF726FD401B0228F5D9032041E0236AA3
:1042E000B3F5803F1AD023494B6823F47413226A34
:1042F000606A024313434B601F4B01221A66FDF7AD
:104300000FFD04461B4B1B6813F0007F0ED1FDF719
:1043100007FD001B0228F5D9032022E0154A536847
:1043200023F40033A1680B435360DCE7002018E05E
:10433000002016E0012B16D00E4B5B6803F4803191
:10434000226A914211D103F47013626A93420ED132
:10435000002006E001207047012002E0012000E07B
:10436000002002B070BD0120FBE70120F9E7012029
:10437000F7E700BF00100240000042420F4B5B68AD
:1043800003F00C02082A01D00D487047C3F38342A2
:104390000C49885C13F4803F0BD0084B5B68C3F377
:1043A0004043094AD35C064A02FB00F0B0FBF3F03D
:1043B0007047064B03FB00F0704700BF001002403F
:1043C00000127A0038EE000848EE000800093D00AF
:1043D000002800F0A08070B50D460446524B1B68C3
:1043E00003F007038B420BD24F4A136823F00703F5
:1043F0000B431360136803F007038B4240F08D807A
:10440000236813F0020F17D013F0040F04D0474AAB
:10441000536843F4E0635360236813F0080F04D03B
:10442000424A536843F460535360404A536823F050
:10443000F003A1680B435360236813F0010F31D0E0
:104440006368012B20D0022B25D0384A126812F065
:10445000020F64D035494A6822F0030213434B60CF
:10446000FDF75EFC0646314B5B6803F00C036268A7
:10447000B3EB820F16D0FDF753FC801B41F288335B
:104480009842F0D9032045E0284A126812F4003F10
:10449000E0D101203EE0254A126812F0007FD9D118
:1044A000012037E0204B1B6803F00703AB420AD919
:1044B0001D4A136823F007032B431360136803F0AE
:1044C0000703AB422DD1236813F0040F06D0174A1F
:1044D000536823F4E063E1680B435360236813F0EF
:1044E000080F07D0114A536823F46053216943EA47
:1044F000C1035360FFF742FF0C4B5B68C3F3031328
:104500000B4AD35CD8400B4B18600B4B1868FDF777
:10451000C3FB002070BD012070470120FAE7012095
:10452000F8E70120F6E700BF00200240001002403B
:1045300020EE00080000002008000020014B186851
:10454000704700BF0000002008B5FFF7F7FF044BDD
:104550005B68C3F30223034AD35CD84008BD00BFA5
:104560000010024030EE000808B5FFF7E7FF044BEB
:104570005B68C3F3C223034AD35CD84008BD00BFC5
:104580000010024030EE0008026802F10C0353E80C
:10459000003F23F490730C3242E800310029F3D13C
:1045A000026802F1140353E8003F23F001031432C0
:1045B00042E800310029F3D1036B012B05D0202301
:1045C00080F84230002303637047026802F10C0355
:1045D00053E8003F23F010030C3242E80031002979
:1045E000F3D1ECE790F84130DBB2212B01D002206F
:1045F00070478368B3F5805F17D0036A5A1C026264
:104600001A7803685A60C38C9BB2013B9BB2C38487
:104610004BB90268D36823F08003D3600268D36883
:1046200043F04003D360002070470369002BE4D1BE
:10463000036A1B880268C3F308035360036A0233EA
:104640000362E0E710B504460268136923F440539F
:10465000C1680B43136183680269134342691A43BB
:104660000168CB6823F4B05323F00C031343CB60F1
:104670000268536923F4407381690B4353610268F4
:10468000134B9A4220D0FFF75FFF024602EB8202F3
:1046900002EB820263689B00B2FBF3F20D48A0FBC1
:1046A00002314909642303FB11231B013233A0FBB0
:1046B00003235B0903F0F00202EB011203F00F0386
:1046C000216813448B6010BDFFF74EFF0246DDE703
:1046D000003801401F85EB512DE9F84305460F4690
:1046E00016469946DDF820802C68246837EA0403D2
:1046F0000CBF4FF0010C4FF0000CB4452DD1B8F1B8
:10470000FF3FF1D0B8F1000F05D0FDF709FBA0EB9A
:1047100009004045E8D92A6802F10C0353E8003F3C
:1047200023F4D0730C3242E800310029F3D12A6817
:1047300002F1140353E8003F23F00103143242E86E
:1047400000310029F3D1202385F8413085F842302B
:10475000002385F84030032000E00020BDE8F88306
:1047600060B310B5044690F8413013B3242384F8A5
:1047700041302268D36823F40053D3602046FFF70A
:1047800061FF2268136923F490431361226853691F
:1047900023F02A0353612268D36843F40053D360A3
:1047A00000206064202384F8413084F84230606344
:1047B00010BD80F84030FDF763F9D7E7012070475E
:1047C0002DE9F04182B01E4690F84130DBB2202B3B
:1047D0004BD104460D46904600294AD00AB9012023
:1047E00044E000234364212380F84130FDF798FA28
:1047F0000746A4F82480A4F82680A368B3F5805F58
:1048000002D04FF000080FE02369FBB14FF0000821
:104810000AE038F8023B2268C3F308035360E28CD5
:1048200092B2013A92B2E284E38C9BB28BB10096D1
:104830003B46002280212046FFF74EFFD8B9002DCD
:10484000E7D015F8012B23685A60E8E7A846002551
:10485000EAE700963B46002240212046FFF73CFF56
:1048600058B9202384F8413000E0022002B0BDE8AE
:10487000F0810120FAE70320F8E70320F6E770470C
:1048800008B50168CA6822F04002CA60202280F898
:104890004120FFF7F4FF002008BD7047704708B5BE
:1048A000406A0023C385C384FFF7F8FF08BD704743
:1048B00090F84230DBB2222B69D18368B3F5805F78
:1048C0004FD0826AB3F5805F04D0002B56D10369C4
:1048D000002B53D103685B681370836A01338362D2
:1048E000C38D9BB2013B9BB2C385002B51D100B558
:1048F00083B00268D36823F02003D3600268D368D2
:1049000023F48073D3600268536923F00103536179
:10491000202380F8423000234363036B012B33D103
:1049200000230363026802F10C0353E8003F23F005
:1049300010030C3242E800310029F3D103681A68F1
:1049400012F0100F06D0002201921A6801925B68E3
:104950000193019B818DFFF7AAFF002003B05DF852
:1049600004FB0269002AACD1826A03685B68C3F366
:1049700008031380836A02338362B1E703685B68CC
:1049800003F07F031370A8E7FFF787FFE5E7022036
:10499000704700207047000030B583B004460268BD
:1049A0001368D068516913F00F0505D113F0200F7B
:1049B00002D010F0200F19D12DB111F0010119D141
:1049C00010F4907F16D1216B01297DD013F0800F58
:1049D00003D010F0800F40F0188113F0400F03D087
:1049E00010F0400F40F0158103B030BD2046FFF7B6
:1049F0005FFFF9E713F0010F06D010F4807F03D0BA
:104A0000626C42F00102626413F0040F04D019B129
:104A1000626C42F00202626413F0020F04D019B11A
:104A2000626C42F00402626413F0080F07D010F0C9
:104A3000200F00D119B1626C42F008026264626C0E
:104A4000002AD1D013F0200F02D010F0200F29D16E
:104A500023685B6903F04003626C12F0080F00D119
:104A600063B32046FFF790FD23685B6913F0400FA6
:104A700020D0226802F1140353E8003F23F04003E2
:104A8000143242E800310029F3D1E36B73B1634A79
:104A90005A63E06BFDF700FA0028A5D0E06B436B8A
:104AA0009847A1E72046FFF703FFD1E72046FFF72D
:104AB000F5FE99E72046FFF7F1FE95E72046FFF760
:104AC000EDFE002363648FE713F0100F3FF47EAF19
:104AD00010F0100F3FF47AAF002301931368019395
:104AE00053680193019B536913F0400F51D0E26B5F
:104AF00013685B689BB2002B3FF476AFA18D99429F
:104B00007FF672AFE3859369202B37D0226802F1DC
:104B10000C0353E8003F23F480730C3242E8003169
:104B20000029F3D1226802F1140353E8003F23F077
:104B30000103143242E800310029F3D1226802F166
:104B4000140353E8003F23F04003143242E80031DD
:104B50000029F3D1202384F8423000232363226804
:104B600002F10C0353E8003F23F010030C3242E83B
:104B700000310029F3D1E06BFDF76AF9022363638A
:104B8000A18DE38D9BB2C91A89B22046FFF78FFE33
:104B90002AE7A18DE38D9BB2C91A89B2E38D9BB23E
:104BA000002B3FF421AF00293FF41EAF226802F131
:104BB0000C0353E8003F23F490730C3242E80030BA
:104BC0000028F3D1226802F1140353E8003F23F0D8
:104BD0000103143242E800300028F3D1202384F886
:104BE000423000232363226802F10C0353E8003FA4
:104BF00023F010030C3242E800300028F3D10223E6
:104C000063632046FFF753FEEEE62046FFF7EAFC1B
:104C1000EAE62046FFF734FEE6E600BF9F480008BC
:104C2000EFF3058393B9EFF3108393B90C4B186836
:104C3000022804D080B90A4B01221A607047EFF3B2
:104C40001183002BF6D06FF0050070476FF0050060
:104C500070476FF0050070474FF0FF30704700BF9E
:104C6000580D002008B5EFF30583B3B9EFF31083B7
:104C7000B3B90E4B1B68022B08D0012B13D10B4B81
:104C800002221A6001F0D2F8002008BDEFF3118271
:104C9000002AF2D06FF00500F7E76FF00500F4E7A7
:104CA0006FF00500F1E74FF0FF30EEE7580D002000
:104CB000F0B587B000240494EFF30584002C43D1B1
:104CC000EFF31083002B3FD1334B1B68022B16D020
:104CD000002839D000238DF8173062B3156895B1DC
:104CE000936903B918235C1E372C51D8546814F00B
:104CF000010F4FD156694EB14FEA960C08E0EFF321
:104D000011830BBBE4E70DF11705E9E74FF0800CC9
:104D100094682CB1D7685B2F02D9176907B1B6B96F
:104D200014B14FF0FF340CE0D46894B914699CB10D
:104D30004FF0FF3405E0002418234FF0800C0DF1F4
:104D40001705012C0AD0ACB1049807B0F0BD0124BE
:104D5000F7E74FF0FF34F4E70024F2E714699268B4
:104D60000292019400930B466246294600F0F0FF40
:104D70000490E9E704AA019200930B461FFA8CF213
:104D8000294601F01FF80128DED000230493DBE759
:104D90000020DAE70020D8E7580D002008B5EFF32F
:104DA0000583A3B9EFF31083A3B90C4B1B68022B47
:104DB00002D040B9002008BDEFF31183002BF8D0DA
:104DC0006FF00500F7E701F095F90020F3E76FF0C9
:104DD0000500F0E76FF00500EDE700BF580D00207B
:104DE000034B0360034B0B6080231360704700BFCD
:104DF000FC0C0020FC0A0020034B0360034B0B60FB
:104E00004FF48073136070475C1100205C0D00202C
:104E100000F1080343604FF0FF328260C36003611A
:104E200000230360704700230361704743684B60B1
:104E30009A688A6051609960086103680133036071
:104E4000704730B40D68B5F1FF3F11D000F1080391
:104E50001C465B681A68AA42FAD963684B6099607D
:104E60008C606160086103680133036030BC704787
:104E70000469F2E70369416882688A6041685160A9
:104E80005A68824206D0002202611A68013A1A600A
:104E90001868704782685A60F5E70000124A12F0FD
:104EA000070F1ED0D11D21F00701C1F54063134447
:104EB0000A460E480260002141601344083B23F07B
:104EC00007030B48036059601960991A5160136019
:104ED000084B1960084B1960084B4FF000421A60EC
:104EE00070474FF44063E4E7BC110020C81D002068
:104EF000B8110020C41D0020C01D0020BC1D0020D2
:104F0000154B1A461B688342FBD3516802EB010C18
:104F1000844509D0416800EB010C634509D003606A
:104F2000904218D0106070474068014451601046AC
:104F3000F0E710B4094C2468A3420AD05B68194416
:104F4000416013681B680360904200D0106010BC81
:104F500070470460F8E77047C81D0020B8110020B2
:104F600070B5054600F0B0FF344B1B68A3B1344B5D
:104F70001B681D424AD135B1083515F0070F02D024
:104F800025F007050835002D42D02E4B1B68AB429B
:104F90004DD32D4A146804E0FFF780FFE7E722466F
:104FA0001C466368AB4202D22368002BF7D1234B27
:104FB0001B68A3423DD016680836236813606368F7
:104FC0005B1B102B10D9601910F0070F08D04FF0A1
:104FD000500383F31188BFF36F8FBFF34F8FFEE74A
:104FE00043606560FFF78CFF626816490B689B1A87
:104FF0000B60164909688B4201D214490B60104BB3
:105000001B68134363600023236002E0002600E076
:10501000002600F0F3FF16F0070F0CD04FF05003FE
:1050200083F31188BFF36F8FBFF34F8FFEE7002626
:10503000EFE70026EDE7304670BD00BFB811002055
:10504000BC1D0020C01D0020C81D0020C41D002064
:1050500080B338B50446A0F1080550F8043C164A60
:105060001268134208D14FF0500383F31188BFF345
:105070006F8FBFF34F8FFEE750F8081C41B14FF020
:10508000500383F31188BFF36F8FBFF34F8FFEE799
:1050900023EA020340F8043C00F016FF54F8041C15
:1050A000064A13680B4413602846FFF729FF00F0F7
:1050B000A5FF38BD704700BFBC1D0020C01D0020EB
:1050C00082B0002301930D4B1B68B3F1FF3F08D062
:1050D0004FF0500383F31188BFF36F8FBFF34F8FEF
:1050E000FEE74FF0500383F31188BFF36F8FBFF3D8
:1050F0004F8F019B002BFCD002B070470C000020AA
:1051000006480068006880F3088862B661B6BFF39D
:105110004F8FBFF36F8F00DF00BF000008ED00E08E
:105120004FF0807340F8043C21F0010140F8081C66
:10513000034B40F80C3C40F8202C4038704700BF2F
:10514000C150000800000000000000000000000046
:10515000074B19680868B0E8F00F80F30988BFF3BF
:105160006F8F4FF0000080F311884EF00D0E7047E6
:10517000181E00204FF0500383F31188BFF36F8F88
:10518000BFF34F8F0B4A136801331360012B00D01C
:1051900070474FF0E023D3F8043D13F0FF0FF7D032
:1051A0004FF0500383F31188BFF36F8FBFF34F8F1E
:1051B000FEE700BF0C000020094B1B6843B94FF00D
:1051C000500383F31188BFF36F8FBFF34F8FFEE758
:1051D000013B034A13600BB983F31188704700BF8A
:1051E0000C00002000000000000000000000000093
:1051F000EFF30980BFF36F8F0D4B1A6820E9F00FB2
:1052000010602DE908404FF0500080F3118800F045
:1052100097FF4FF0000080F31188BDE8084019683F
:105220000868B0E8F00F80F30988BFF36F8F70470C
:10523000181E002008B54FF0500383F31188BFF308
:105240006F8FBFF34F8F00F04DFE28B14FF0E0237A
:105250004FF08052C3F8042D002383F3118808BD5A
:105260004FF0E022002313619361054B1B68054951
:10527000A1FB03139B09013B536107231361704793
:1052800000000020D34D621010B582B02A4B1A786E
:10529000D2B20192FF221A701B78DBB28DF8033074
:1052A0009DF8033003F05003244A1370244B072267
:1052B0001A6009E0224A1368013B13609DF803302D
:1052C0005B00DBB28DF803309DF8033013F0800FE4
:1052D000F0D11B4B1B68032B08D04FF0500383F316
:1052E0001188BFF36F8FBFF34F8FFEE71B02144A85
:1052F000136003F4E0631360019BDBB20E4A13708A
:105300004FF0E023D3F8202D42F47002C3F8202D93
:10531000D3F8202D42F07042C3F8202DFFF7A0FFF4
:105320000024084B1C60FFF7EBFE00F009FFFFF7BD
:10533000C7FE204602B010BD00E400E0D01D0020F2
:10534000D41D00200C000020EFF305830F2B0FD994
:10535000114A9B5CDBB2114A12789A4208D94FF08D
:10536000500383F31188BFF36F8FBFF34F8FFEE7B6
:105370004FF0E023D3F80C3D03F4E063084A1268D1
:10538000934208D94FF0500383F31188BFF36F8F16
:10539000BFF34F8FFEE77047F0E300E0D01D002021
:1053A000D41D002010B50446FFF7E4FEA26BE36BAA
:1053B0009A4204D00024FFF7FFFE204610BD0124CE
:1053C000F9E710B50446FFF7D5FEA36B23B9012416
:1053D000FFF7F2FE204610BD0024F9E770B5044641
:1053E0001546866B026C5AB903681BB10020013662
:1053F000A66370BD406800F0CBFF00236360F6E752
:105400006DB98068FBF798FF226CA3681344A36012
:105410006268934219D32368A3602846E7E7C0680F
:10542000FBF78AFF226C5142E3689B1AE360226813
:10543000934202D263680B44E360022D01D0002046
:10544000D5E726B1013E0020D1E72846CFE700206E
:10545000CDE708B50346026C62B10846D96811442D
:10546000D960D3F804C0614501D31968D960D968FF
:10547000FBF762FF08BD38B50546FFF77BFE95F8E0
:10548000454064B201E0013C64B2002C0ADD6B6A65
:1054900043B105F1240000F0D1FE0028F3D000F064
:1054A00061FFF0E7FF2385F84530FFF785FEFFF742
:1054B00061FE95F8444064B201E0013C64B2002C06
:1054C0000ADD2B6943B105F1100000F0B7FE00289A
:1054D000F3D000F047FFF0E7FF2385F84430FFF7F3
:1054E0006BFE38BD38B5E0B10D460446FFF742FE0D
:1054F0002368E26B216C01FB023060600020A06336
:10550000A360013A02FB0133E360FF2384F84430D7
:1055100084F84530FDB9236963B9FFF74DFE0120DA
:1055200038BD4FF0500383F31188BFF36F8FBFF383
:105530004F8FFEE704F1100000F080FE0028ECD051
:105540004FF0E0234FF08052C3F8042DBFF34F8F8C
:10555000BFF36F8FE1E704F11000FFF759FC04F18E
:105560002400FFF755FCD8E738B51D46049C0B46D0
:1055700049B92460E063236401212046FFF7B2FFAC
:1055800084F84C5038BD2260F4E740B94FF0500326
:1055900083F31188BFF36F8FBFF34F8FFEE710B512
:1055A00084B01C46844653B192B189B94FF0500380
:1055B00083F31188BFF36F8FBFF34F8FFEE74FF078
:1055C000500383F31188BFF36F8FBFF34F8FFEE754
:1055D0006AB150230393039B502B13D04FF0500319
:1055E00083F31188BFF36F8FBFF34F8FFEE700295E
:1055F000EFD04FF0500383F31188BFF36F8FBFF3E9
:105600004F8FFEE7012384F8463000949DF8183050
:105610006046FFF7A9FF204604B010BDF0B585B085
:10562000019288B10F461D460446B1B1022D20D12A
:10563000E36B012B1DD04FF0500383F31188BFF3B0
:105640006F8FBFF34F8FFEE74FF0500383F3118846
:10565000BFF36F8FBFF34F8FFEE7036C002BE5D0D6
:105660004FF0500383F31188BFF36F8FBFF34F8F59
:10567000FEE700F07DFE064658B9019B002B48D09E
:105680004FF0500383F31188BFF36F8FBFF34F8F39
:10569000FEE700263DE02A4639462046FFF79EFEFB
:1056A000636A7BB948B14FF0E0234FF08052C3F8F2
:1056B000042DBFF34F8FBFF36F8FFFF77DFD0120E8
:1056C00005B0F0BD04F1240000F0B8FD0028F4D0CE
:1056D0004FF0E0234FF08052C3F8042DBFF34F8FFB
:1056E000BFF36F8FE9E7FFF767FD0020E8E702A847
:1056F00000F0EAFD012619E0002384F8443021E09F
:10570000002384F8453023E02046FFF7B4FE00F084
:1057100075FCFFF72FFDA26BE36B9A42BBD3022D02
:10572000B9D0019B002BDED0002EE0D0FFF744FD66
:1057300000F0CAFBFFF71EFD94F8442052B2B2F10C
:10574000FF3FD9D094F8452052B2B2F1FF3FD7D0F5
:10575000FFF732FD01A902A800F0C2FDD8B920462A
:10576000FFF720FE0028CFD0019904F1100000F0CF
:1057700031FD2046FFF77FFE00F040FC0028C8D135
:105780004FF0E0234FF08052C3F8042DBFF34F8F4A
:10579000BFF36F8FBDE72046FFF76DFE00F02EFCD4
:1057A00000208DE72DE9F84390B10F4616461C46C0
:1057B0000546B1B1022C20D1EB6B012B1DD04FF06F
:1057C000500383F31188BFF36F8FBFF34F8FFEE752
:1057D0004FF0500383F31188BFF36F8FBFF34F8FE8
:1057E000FEE7036C002BE5D04FF0500383F31188E4
:1057F000BFF36F8FBFF34F8FFEE7FFF7A5FDEFF30A
:1058000011894FF0500383F31188BFF36F8FBFF3FB
:105810004F8FAA6BEB6B9A4206D3022C04D0002068
:1058200089F31188BDE8F88395F845804FFA88F828
:10583000224639462846FFF7D1FDB8F1FF3F06D092
:1058400008F101035BB285F845300120E8E76B6A97
:105850000BB90120E4E705F1240000F0EFFC18B1DA
:1058600026B101203060DBE70120D9E70120D7E72E
:10587000F0B585B0019290B10F460446C1B100F079
:1058800077FD064600BB019B002B5ED04FF0500316
:1058900083F31188BFF36F8FBFF34F8FFEE74FF095
:1058A000500383F31188BFF36F8FBFF34F8FFEE771
:1058B000036C002BE3D04FF0500383F31188BFF348
:1058C0006F8FBFF34F8FFEE700263EE0394620463C
:1058D000FFF7BFFD013DA563236923B9FFF76CFC0A
:1058E000012005B0F0BD04F1100000F0A7FC002875
:1058F000F4D04FF0E0234FF08052C3F8042DBFF3F3
:105900004F8FBFF36F8FE9E7FFF756FC0020E8E702
:1059100002A800F0D9FC012621E0002384F84430DD
:1059200029E0002384F845302BE02046FFF7A3FD53
:1059300000F064FB09E02046FFF79DFD00F05EFBF0
:105940002046FFF73EFD00283FD1FFF713FCA56B73
:10595000002DBBD1019B002BD6D0002ED8D0FFF755
:105960002BFC00F0B1FAFFF705FC94F844305BB271
:10597000B3F1FF3FD1D094F845305BB2B3F1FF3FB4
:10598000CFD0FFF719FC01A902A800F0A9FC00285C
:10599000D1D12046FFF715FD0028C6D0019904F1AA
:1059A000240000F017FC2046FFF765FD00F026FB01
:1059B0000028CAD14FF0E0234FF08052C3F8042DE5
:1059C000BFF34F8FBFF36F8FBFE7002089E7000061
:1059D0000023072B0CD8074A52F833200AB10133B1
:1059E000F7E7044A42F8331002EBC30358607047EC
:1059F000704700BFD81D002070B504460D461646FE
:105A0000FFF7B8FB94F844305BB2B3F1FF3F0DD021
:105A100094F845305BB2B3F1FF3F0BD0FFF7CCFBFE
:105A2000A36B5BB12046FFF726FD70BD002384F811
:105A30004430EDE7002384F84530EFE7324629464D
:105A400004F1240000F0DEFBECE70000084B1B68CB
:105A50001B6823B9074B4FF0FF321A607047044BA5
:105A60001B68DB68DB685A68024B1A60704700BF2E
:105A70001C1E0020C82200202DE9F04780460D465C
:105A800017469946089EDDF824A00A9C9200A5219D
:105A9000206B03F00FF8236B07F18042013A03EB10
:105AA000820727F007074FF0000CBCF10F0F0BD84F
:105AB00015F80C2004EB0C0383F8342015F80C3097
:105AC00013B10CF1010CF0E7002384F84330372EBA
:105AD00000D93726E662E66400252565201DFFF71C
